{
  "_format": "hh-sol-artifact-1",
  "contractName": "POAPOGTokenStation",
  "sourceName": "contracts/POAPOGTokenStation.sol",
  "abi": [
    {
      "inputs": [
        {
          "internalType": "contract OGTokenInterface",
          "name": "_ogToken",
          "type": "address"
        },
        {
          "internalType": "contract POAP",
          "name": "_poap",
          "type": "address"
        }
      ],
      "stateMutability": "nonpayable",
      "type": "constructor"
    },
    {
      "anonymous": false,
      "inputs": [
        {
          "indexed": true,
          "internalType": "address",
          "name": "from",
          "type": "address"
        },
        {
          "indexed": true,
          "internalType": "address",
          "name": "to",
          "type": "address"
        }
      ],
      "name": "OwnershipTransferred",
      "type": "event"
    },
    {
      "inputs": [
        {
          "internalType": "uint256[]",
          "name": "_tokenEvents",
          "type": "uint256[]"
        },
        {
          "internalType": "uint256[]",
          "name": "_tokensToMint",
          "type": "uint256[]"
        }
      ],
      "name": "addTokenEvents",
      "outputs": [],
      "stateMutability": "nonpayable",
      "type": "function"
    },
    {
      "inputs": [
        {
          "internalType": "uint256[]",
          "name": "tokenIds",
          "type": "uint256[]"
        }
      ],
      "name": "collect",
      "outputs": [],
      "stateMutability": "nonpayable",
      "type": "function"
    },
    {
      "inputs": [
        {
          "internalType": "uint256",
          "name": "",
          "type": "uint256"
        }
      ],
      "name": "collected",
      "outputs": [
        {
          "internalType": "uint256",
          "name": "",
          "type": "uint256"
        }
      ],
      "stateMutability": "view",
      "type": "function"
    },
    {
      "inputs": [],
      "name": "ogToken",
      "outputs": [
        {
          "internalType": "contract OGTokenInterface",
          "name": "",
          "type": "address"
        }
      ],
      "stateMutability": "view",
      "type": "function"
    },
    {
      "inputs": [],
      "name": "owner",
      "outputs": [
        {
          "internalType": "address",
          "name": "",
          "type": "address"
        }
      ],
      "stateMutability": "view",
      "type": "function"
    },
    {
      "inputs": [],
      "name": "poap",
      "outputs": [
        {
          "internalType": "contract POAP",
          "name": "",
          "type": "address"
        }
      ],
      "stateMutability": "view",
      "type": "function"
    },
    {
      "inputs": [
        {
          "internalType": "uint256",
          "name": "",
          "type": "uint256"
        }
      ],
      "name": "tokenEventData",
      "outputs": [
        {
          "internalType": "uint256",
          "name": "tokensToMint",
          "type": "uint256"
        },
        {
          "internalType": "uint256",
          "name": "totalCollected",
          "type": "uint256"
        },
        {
          "internalType": "uint256",
          "name": "numberCollected",
          "type": "uint256"
        }
      ],
      "stateMutability": "view",
      "type": "function"
    },
    {
      "inputs": [
        {
          "internalType": "address",
          "name": "_newOwner",
          "type": "address"
        }
      ],
      "name": "transferOwnership",
      "outputs": [],
      "stateMutability": "nonpayable",
      "type": "function"
    }
  ],
  "bytecode": "0x608060405234801561001057600080fd5b506040516109503803806109508339818101604052604081101561003357600080fd5b50805160209091015161004533610076565b600180546001600160a01b039384166001600160a01b031991821617909155600280549290931691161790556100fd565b60005460ff16156100ce576040805162461bcd60e51b815260206004820152601360248201527f416c726561647920696e697469616c6973656400000000000000000000000000604482015290519081900360640190fd5b6000805460ff196001600160a01b0390931661010002610100600160a81b031990911617919091166001179055565b6108448061010c6000396000f3fe608060405234801561001057600080fd5b50600436106100885760003560e01c80638da5cb5b1161005b5780638da5cb5b146102ac57806393252553146102b4578063b69b2a65146102ef578063f2fde38b146102f757610088565b8063484a01041461008d57806357f46cbe146100b15780635f144efd1461015657806377e840ed1461027d575b600080fd5b61009561031d565b604080516001600160a01b039092168252519081900360200190f35b610154600480360360208110156100c757600080fd5b8101906020810181356401000000008111156100e257600080fd5b8201836020820111156100f457600080fd5b8035906020019184602083028401116401000000008311171561011657600080fd5b91908080602002602001604051908101604052809392919081815260200183836020028082843760009201919091525092955061032c945050505050565b005b6101546004803603604081101561016c57600080fd5b81019060208101813564010000000081111561018757600080fd5b82018360208201111561019957600080fd5b803590602001918460208302840111640100000000831117156101bb57600080fd5b919080806020026020016040519081016040528093929190818152602001838360200280828437600092019190915250929594936020810193503591505064010000000081111561020b57600080fd5b82018360208201111561021d57600080fd5b8035906020019184602083028401116401000000008311171561023f57600080fd5b9190808060200260200160405190810160405280939291908181526020018383602002808284376000920191909152509295506105fe945050505050565b61029a6004803603602081101561029357600080fd5b50356106b5565b60408051918252519081900360200190f35b6100956106c7565b6102d1600480360360208110156102ca57600080fd5b50356106db565b60408051938452602084019290925282820152519081900360600190f35b6100956106fc565b6101546004803603602081101561030d57600080fd5b50356001600160a01b031661070b565b6002546001600160a01b031681565b60005b81518110156105fa57600082828151811061034657fe5b602090810291909101810151600254604080516331a9108f60e11b81526004810184905290519294506001600160a01b0390911692636352211e92602480840193829003018186803b15801561039b57600080fd5b505afa1580156103af573d6000803e3d6000fd5b505050506040513d60208110156103c557600080fd5b50516001600160a01b03163314610423576040805162461bcd60e51b815260206004820152601760248201527f4e6f74206f776e6572206f6620504f415020746f6b656e000000000000000000604482015290519081900360640190fd5b6002546040805163024f4a5360e31b81526004810184905290516000926001600160a01b03169163127a5298916024808301926020929190829003018186803b15801561046f57600080fd5b505afa158015610483573d6000803e3d6000fd5b505050506040513d602081101561049957600080fd5b505160008181526003602090815260408083208054878552600490935292205492935090918111156105ea576000848152600460205260409020546001830154908203906104ed5760028301805460010190555b60018301546104fc90826107c1565b600184015560008581526004602052604090205461051a90826107c1565b60008681526004602081815260408084209490945560015484516340c10f1960e01b815233938101939093526024830186905293516001600160a01b03909416936340c10f19936044808501948390030190829087803b15801561057d57600080fd5b505af1158015610591573d6000803e3d6000fd5b505050506040513d60208110156105a757600080fd5b50516105e8576040805162461bcd60e51b815260206004820152600b60248201526a135a5b9d0819985a5b195960aa1b604482015290519081900360640190fd5b505b50506001909201915061032f9050565b5050565b60005461010090046001600160a01b0316331461064e576040805162461bcd60e51b81526020600482015260096024820152682737ba1037bbb732b960b91b604482015290519081900360640190fd5b805182511461065c57600080fd5b60005b82518110156106b057600083828151811061067657fe5b6020026020010151905082828151811061068c57fe5b6020908102919091018101516000928352600390915260409091205560010161065f565b505050565b60046020526000908152604090205481565b60005461010090046001600160a01b031681565b60036020526000908152604090208054600182015460029092015490919083565b6001546001600160a01b031681565b60005461010090046001600160a01b0316331461075b576040805162461bcd60e51b81526020600482015260096024820152682737ba1037bbb732b960b91b604482015290519081900360640190fd5b600080546040516001600160a01b038085169361010090930416917f8be0079c531659141344cd1fd0a4f28419497f9722a3daafe3b4186f6b6457e091a3600080546001600160a01b0390921661010002610100600160a81b0319909216919091179055565b81810182811015610808576040805162461bcd60e51b815260206004820152600c60248201526b416464206f766572666c6f7760a01b604482015290519081900360640190fd5b9291505056fea26469706673582212206b6da2d1cc93cc6ac18d51ca240f8d0023c03e1fc23844a902228754688abb4f64736f6c63430007010033",
  "linkReferences": {},
  "deployedLinkReferences": {}
}