{
  "_format": "hh-sol-artifact-1",
  "contractName": "OptinoGov",
  "sourceName": "contracts/OptinoGov.sol",
  "abi": [
    {
      "inputs": [
        {
          "internalType": "contract OGTokenInterface",
          "name": "ogToken",
          "type": "address"
        },
        {
          "internalType": "contract OGDTokenInterface",
          "name": "ogdToken",
          "type": "address"
        }
      ],
      "stateMutability": "nonpayable",
      "type": "constructor"
    },
    {
      "anonymous": false,
      "inputs": [
        {
          "indexed": true,
          "internalType": "address",
          "name": "user",
          "type": "address"
        },
        {
          "indexed": false,
          "internalType": "uint256",
          "name": "elapsed",
          "type": "uint256"
        },
        {
          "indexed": false,
          "internalType": "uint256",
          "name": "reward",
          "type": "uint256"
        },
        {
          "indexed": false,
          "internalType": "uint256",
          "name": "callerReward",
          "type": "uint256"
        },
        {
          "indexed": false,
          "internalType": "uint256",
          "name": "rewardPool",
          "type": "uint256"
        },
        {
          "indexed": false,
          "internalType": "uint256",
          "name": "end",
          "type": "uint256"
        },
        {
          "indexed": false,
          "internalType": "uint256",
          "name": "duration",
          "type": "uint256"
        }
      ],
      "name": "Collected",
      "type": "event"
    },
    {
      "anonymous": false,
      "inputs": [
        {
          "indexed": true,
          "internalType": "address",
          "name": "user",
          "type": "address"
        },
        {
          "indexed": false,
          "internalType": "uint256",
          "name": "tokens",
          "type": "uint256"
        },
        {
          "indexed": false,
          "internalType": "uint256",
          "name": "balance",
          "type": "uint256"
        },
        {
          "indexed": false,
          "internalType": "uint256",
          "name": "duration",
          "type": "uint256"
        },
        {
          "indexed": false,
          "internalType": "uint256",
          "name": "end",
          "type": "uint256"
        },
        {
          "indexed": false,
          "internalType": "address",
          "name": "delegatee",
          "type": "address"
        },
        {
          "indexed": false,
          "internalType": "uint256",
          "name": "votes",
          "type": "uint256"
        },
        {
          "indexed": false,
          "internalType": "uint256",
          "name": "rewardPool",
          "type": "uint256"
        },
        {
          "indexed": false,
          "internalType": "uint256",
          "name": "totalVotes",
          "type": "uint256"
        }
      ],
      "name": "Committed",
      "type": "event"
    },
    {
      "anonymous": false,
      "inputs": [
        {
          "indexed": false,
          "internalType": "string",
          "name": "key",
          "type": "string"
        },
        {
          "indexed": false,
          "internalType": "uint256",
          "name": "value",
          "type": "uint256"
        }
      ],
      "name": "ConfigUpdated",
      "type": "event"
    },
    {
      "anonymous": false,
      "inputs": [
        {
          "indexed": true,
          "internalType": "address",
          "name": "oldDelegatee",
          "type": "address"
        },
        {
          "indexed": true,
          "internalType": "address",
          "name": "delegatee",
          "type": "address"
        },
        {
          "indexed": false,
          "internalType": "uint256",
          "name": "votes",
          "type": "uint256"
        }
      ],
      "name": "DelegateUpdated",
      "type": "event"
    },
    {
      "anonymous": false,
      "inputs": [
        {
          "indexed": true,
          "internalType": "address",
          "name": "user",
          "type": "address"
        },
        {
          "indexed": false,
          "internalType": "uint256",
          "name": "oip",
          "type": "uint256"
        }
      ],
      "name": "Executed",
      "type": "event"
    },
    {
      "anonymous": false,
      "inputs": [
        {
          "indexed": true,
          "internalType": "address",
          "name": "proposer",
          "type": "address"
        },
        {
          "indexed": false,
          "internalType": "uint256",
          "name": "oip",
          "type": "uint256"
        },
        {
          "indexed": false,
          "internalType": "string",
          "name": "description",
          "type": "string"
        },
        {
          "indexed": false,
          "internalType": "address[]",
          "name": "targets",
          "type": "address[]"
        },
        {
          "indexed": false,
          "internalType": "uint256[]",
          "name": "value",
          "type": "uint256[]"
        },
        {
          "indexed": false,
          "internalType": "bytes[]",
          "name": "data",
          "type": "bytes[]"
        },
        {
          "indexed": false,
          "internalType": "uint256",
          "name": "start",
          "type": "uint256"
        }
      ],
      "name": "Proposed",
      "type": "event"
    },
    {
      "anonymous": false,
      "inputs": [
        {
          "indexed": false,
          "internalType": "address",
          "name": "tokenOwner",
          "type": "address"
        },
        {
          "indexed": false,
          "internalType": "uint256",
          "name": "tokens",
          "type": "uint256"
        },
        {
          "indexed": false,
          "internalType": "uint256",
          "name": "balance",
          "type": "uint256"
        },
        {
          "indexed": false,
          "internalType": "bytes32",
          "name": "stakingKey",
          "type": "bytes32"
        }
      ],
      "name": "StakeBurnt",
      "type": "event"
    },
    {
      "anonymous": false,
      "inputs": [
        {
          "indexed": false,
          "internalType": "bytes32",
          "name": "stakingKey",
          "type": "bytes32"
        },
        {
          "indexed": false,
          "internalType": "uint256",
          "name": "dataType",
          "type": "uint256"
        },
        {
          "indexed": false,
          "internalType": "address[4]",
          "name": "addresses",
          "type": "address[4]"
        },
        {
          "indexed": false,
          "internalType": "uint256[6]",
          "name": "uints",
          "type": "uint256[6]"
        },
        {
          "indexed": false,
          "internalType": "string",
          "name": "string0",
          "type": "string"
        },
        {
          "indexed": false,
          "internalType": "string",
          "name": "string1",
          "type": "string"
        },
        {
          "indexed": false,
          "internalType": "string",
          "name": "string2",
          "type": "string"
        },
        {
          "indexed": false,
          "internalType": "string",
          "name": "string3",
          "type": "string"
        }
      ],
      "name": "StakeInfoAdded",
      "type": "event"
    },
    {
      "anonymous": false,
      "inputs": [
        {
          "indexed": false,
          "internalType": "address",
          "name": "tokenOwner",
          "type": "address"
        },
        {
          "indexed": false,
          "internalType": "uint256",
          "name": "tokens",
          "type": "uint256"
        },
        {
          "indexed": false,
          "internalType": "uint256",
          "name": "balance",
          "type": "uint256"
        },
        {
          "indexed": false,
          "internalType": "bytes32",
          "name": "stakingKey",
          "type": "bytes32"
        }
      ],
      "name": "Staked",
      "type": "event"
    },
    {
      "anonymous": false,
      "inputs": [
        {
          "indexed": true,
          "internalType": "address",
          "name": "user",
          "type": "address"
        },
        {
          "indexed": false,
          "internalType": "uint256",
          "name": "tokens",
          "type": "uint256"
        },
        {
          "indexed": false,
          "internalType": "uint256",
          "name": "balance",
          "type": "uint256"
        },
        {
          "indexed": false,
          "internalType": "uint256",
          "name": "duration",
          "type": "uint256"
        },
        {
          "indexed": false,
          "internalType": "uint256",
          "name": "end",
          "type": "uint256"
        },
        {
          "indexed": false,
          "internalType": "uint256",
          "name": "votes",
          "type": "uint256"
        },
        {
          "indexed": false,
          "internalType": "uint256",
          "name": "rewardPool",
          "type": "uint256"
        },
        {
          "indexed": false,
          "internalType": "uint256",
          "name": "totalVotes",
          "type": "uint256"
        }
      ],
      "name": "Uncommitted",
      "type": "event"
    },
    {
      "anonymous": false,
      "inputs": [
        {
          "indexed": false,
          "internalType": "address",
          "name": "tokenOwner",
          "type": "address"
        },
        {
          "indexed": false,
          "internalType": "uint256",
          "name": "tokens",
          "type": "uint256"
        },
        {
          "indexed": false,
          "internalType": "uint256",
          "name": "balance",
          "type": "uint256"
        },
        {
          "indexed": false,
          "internalType": "bytes32",
          "name": "stakingKey",
          "type": "bytes32"
        }
      ],
      "name": "Unstaked",
      "type": "event"
    },
    {
      "anonymous": false,
      "inputs": [
        {
          "indexed": true,
          "internalType": "address",
          "name": "user",
          "type": "address"
        },
        {
          "indexed": false,
          "internalType": "uint256",
          "name": "oip",
          "type": "uint256"
        },
        {
          "indexed": false,
          "internalType": "bool",
          "name": "voteFor",
          "type": "bool"
        },
        {
          "indexed": false,
          "internalType": "uint256",
          "name": "forVotes",
          "type": "uint256"
        },
        {
          "indexed": false,
          "internalType": "uint256",
          "name": "againstVotes",
          "type": "uint256"
        }
      ],
      "name": "Voted",
      "type": "event"
    },
    {
      "inputs": [
        {
          "internalType": "uint256",
          "name": "tokens",
          "type": "uint256"
        },
        {
          "internalType": "address[4]",
          "name": "addresses",
          "type": "address[4]"
        },
        {
          "internalType": "uint256[6]",
          "name": "uints",
          "type": "uint256[6]"
        },
        {
          "internalType": "string[4]",
          "name": "strings",
          "type": "string[4]"
        }
      ],
      "name": "addStakeForConvention",
      "outputs": [],
      "stateMutability": "nonpayable",
      "type": "function"
    },
    {
      "inputs": [
        {
          "internalType": "uint256",
          "name": "tokens",
          "type": "uint256"
        },
        {
          "internalType": "address",
          "name": "feedAddress",
          "type": "address"
        },
        {
          "internalType": "uint256",
          "name": "feedType",
          "type": "uint256"
        },
        {
          "internalType": "uint256",
          "name": "feedDecimals",
          "type": "uint256"
        },
        {
          "internalType": "string",
          "name": "name",
          "type": "string"
        }
      ],
      "name": "addStakeForFeed",
      "outputs": [],
      "stateMutability": "nonpayable",
      "type": "function"
    },
    {
      "inputs": [
        {
          "internalType": "uint256",
          "name": "tokens",
          "type": "uint256"
        },
        {
          "internalType": "uint256",
          "name": "dataType",
          "type": "uint256"
        },
        {
          "internalType": "address[4]",
          "name": "addresses",
          "type": "address[4]"
        },
        {
          "internalType": "uint256[6]",
          "name": "uints",
          "type": "uint256[6]"
        },
        {
          "internalType": "string[4]",
          "name": "strings",
          "type": "string[4]"
        }
      ],
      "name": "addStakeForGeneral",
      "outputs": [],
      "stateMutability": "nonpayable",
      "type": "function"
    },
    {
      "inputs": [
        {
          "internalType": "uint256",
          "name": "tokens",
          "type": "uint256"
        },
        {
          "internalType": "address",
          "name": "tokenAddress",
          "type": "address"
        },
        {
          "internalType": "string",
          "name": "name",
          "type": "string"
        }
      ],
      "name": "addStakeForToken",
      "outputs": [],
      "stateMutability": "nonpayable",
      "type": "function"
    },
    {
      "inputs": [
        {
          "internalType": "address[]",
          "name": "tokenOwners",
          "type": "address[]"
        },
        {
          "internalType": "bytes32",
          "name": "stakingKey",
          "type": "bytes32"
        },
        {
          "internalType": "uint256",
          "name": "percent",
          "type": "uint256"
        }
      ],
      "name": "burnStake",
      "outputs": [],
      "stateMutability": "nonpayable",
      "type": "function"
    },
    {
      "inputs": [
        {
          "internalType": "bool",
          "name": "commitRewards",
          "type": "bool"
        },
        {
          "internalType": "uint256",
          "name": "duration",
          "type": "uint256"
        }
      ],
      "name": "collectReward",
      "outputs": [],
      "stateMutability": "nonpayable",
      "type": "function"
    },
    {
      "inputs": [
        {
          "internalType": "address",
          "name": "tokenOwner",
          "type": "address"
        }
      ],
      "name": "collectRewardFor",
      "outputs": [],
      "stateMutability": "nonpayable",
      "type": "function"
    },
    {
      "inputs": [],
      "name": "collectRewardForDelay",
      "outputs": [
        {
          "internalType": "uint256",
          "name": "",
          "type": "uint256"
        }
      ],
      "stateMutability": "view",
      "type": "function"
    },
    {
      "inputs": [],
      "name": "collectRewardForFee",
      "outputs": [
        {
          "internalType": "uint256",
          "name": "",
          "type": "uint256"
        }
      ],
      "stateMutability": "view",
      "type": "function"
    },
    {
      "inputs": [
        {
          "internalType": "uint256",
          "name": "tokens",
          "type": "uint256"
        },
        {
          "internalType": "uint256",
          "name": "duration",
          "type": "uint256"
        }
      ],
      "name": "commit",
      "outputs": [],
      "stateMutability": "nonpayable",
      "type": "function"
    },
    {
      "inputs": [
        {
          "internalType": "address",
          "name": "",
          "type": "address"
        }
      ],
      "name": "commitments",
      "outputs": [
        {
          "internalType": "uint64",
          "name": "duration",
          "type": "uint64"
        },
        {
          "internalType": "uint64",
          "name": "end",
          "type": "uint64"
        },
        {
          "internalType": "uint64",
          "name": "lastDelegated",
          "type": "uint64"
        },
        {
          "internalType": "uint64",
          "name": "lastVoted",
          "type": "uint64"
        },
        {
          "internalType": "uint256",
          "name": "tokens",
          "type": "uint256"
        },
        {
          "internalType": "uint256",
          "name": "staked",
          "type": "uint256"
        },
        {
          "internalType": "uint256",
          "name": "votes",
          "type": "uint256"
        },
        {
          "internalType": "uint256",
          "name": "delegatedVotes",
          "type": "uint256"
        },
        {
          "internalType": "address",
          "name": "delegatee",
          "type": "address"
        }
      ],
      "stateMutability": "view",
      "type": "function"
    },
    {
      "inputs": [
        {
          "internalType": "address",
          "name": "delegatee",
          "type": "address"
        }
      ],
      "name": "delegate",
      "outputs": [],
      "stateMutability": "nonpayable",
      "type": "function"
    },
    {
      "inputs": [
        {
          "internalType": "uint256",
          "name": "oip",
          "type": "uint256"
        }
      ],
      "name": "execute",
      "outputs": [],
      "stateMutability": "nonpayable",
      "type": "function"
    },
    {
      "inputs": [],
      "name": "executeDelay",
      "outputs": [
        {
          "internalType": "uint256",
          "name": "",
          "type": "uint256"
        }
      ],
      "stateMutability": "view",
      "type": "function"
    },
    {
      "inputs": [
        {
          "internalType": "bytes32",
          "name": "stakingKey",
          "type": "bytes32"
        }
      ],
      "name": "getStakeInfoByKey",
      "outputs": [
        {
          "internalType": "uint256",
          "name": "dataType",
          "type": "uint256"
        },
        {
          "internalType": "address[4]",
          "name": "addresses",
          "type": "address[4]"
        },
        {
          "internalType": "uint256[6]",
          "name": "uints",
          "type": "uint256[6]"
        },
        {
          "internalType": "string",
          "name": "string0",
          "type": "string"
        },
        {
          "internalType": "string",
          "name": "string1",
          "type": "string"
        },
        {
          "internalType": "string",
          "name": "string2",
          "type": "string"
        },
        {
          "internalType": "string",
          "name": "string3",
          "type": "string"
        }
      ],
      "stateMutability": "view",
      "type": "function"
    },
    {
      "inputs": [
        {
          "internalType": "address",
          "name": "tokenOwner",
          "type": "address"
        },
        {
          "internalType": "bytes32",
          "name": "stakingKey",
          "type": "bytes32"
        }
      ],
      "name": "getStaked",
      "outputs": [
        {
          "internalType": "uint256",
          "name": "_staked",
          "type": "uint256"
        }
      ],
      "stateMutability": "view",
      "type": "function"
    },
    {
      "inputs": [],
      "name": "maxDuration",
      "outputs": [
        {
          "internalType": "uint256",
          "name": "",
          "type": "uint256"
        }
      ],
      "stateMutability": "view",
      "type": "function"
    },
    {
      "inputs": [],
      "name": "ogToken",
      "outputs": [
        {
          "internalType": "contract OGTokenInterface",
          "name": "",
          "type": "address"
        }
      ],
      "stateMutability": "view",
      "type": "function"
    },
    {
      "inputs": [],
      "name": "ogdToken",
      "outputs": [
        {
          "internalType": "contract OGDTokenInterface",
          "name": "",
          "type": "address"
        }
      ],
      "stateMutability": "view",
      "type": "function"
    },
    {
      "inputs": [],
      "name": "proposalCost",
      "outputs": [
        {
          "internalType": "uint256",
          "name": "",
          "type": "uint256"
        }
      ],
      "stateMutability": "view",
      "type": "function"
    },
    {
      "inputs": [],
      "name": "proposalCount",
      "outputs": [
        {
          "internalType": "uint256",
          "name": "",
          "type": "uint256"
        }
      ],
      "stateMutability": "view",
      "type": "function"
    },
    {
      "inputs": [],
      "name": "proposalThreshold",
      "outputs": [
        {
          "internalType": "uint256",
          "name": "",
          "type": "uint256"
        }
      ],
      "stateMutability": "view",
      "type": "function"
    },
    {
      "inputs": [
        {
          "internalType": "uint256",
          "name": "",
          "type": "uint256"
        }
      ],
      "name": "proposals",
      "outputs": [
        {
          "internalType": "uint256",
          "name": "start",
          "type": "uint256"
        },
        {
          "internalType": "address",
          "name": "proposer",
          "type": "address"
        },
        {
          "internalType": "string",
          "name": "description",
          "type": "string"
        },
        {
          "internalType": "uint256",
          "name": "forVotes",
          "type": "uint256"
        },
        {
          "internalType": "uint256",
          "name": "againstVotes",
          "type": "uint256"
        },
        {
          "internalType": "bool",
          "name": "executed",
          "type": "bool"
        }
      ],
      "stateMutability": "view",
      "type": "function"
    },
    {
      "inputs": [
        {
          "internalType": "string",
          "name": "description",
          "type": "string"
        },
        {
          "internalType": "address[]",
          "name": "targets",
          "type": "address[]"
        },
        {
          "internalType": "uint256[]",
          "name": "values",
          "type": "uint256[]"
        },
        {
          "internalType": "bytes[]",
          "name": "data",
          "type": "bytes[]"
        }
      ],
      "name": "propose",
      "outputs": [
        {
          "internalType": "uint256",
          "name": "",
          "type": "uint256"
        }
      ],
      "stateMutability": "nonpayable",
      "type": "function"
    },
    {
      "inputs": [],
      "name": "quorum",
      "outputs": [
        {
          "internalType": "uint256",
          "name": "",
          "type": "uint256"
        }
      ],
      "stateMutability": "view",
      "type": "function"
    },
    {
      "inputs": [],
      "name": "quorumDecayPerSecond",
      "outputs": [
        {
          "internalType": "uint256",
          "name": "",
          "type": "uint256"
        }
      ],
      "stateMutability": "view",
      "type": "function"
    },
    {
      "inputs": [],
      "name": "rewardPool",
      "outputs": [
        {
          "internalType": "uint256",
          "name": "",
          "type": "uint256"
        }
      ],
      "stateMutability": "view",
      "type": "function"
    },
    {
      "inputs": [],
      "name": "rewardsPerSecond",
      "outputs": [
        {
          "internalType": "uint256",
          "name": "",
          "type": "uint256"
        }
      ],
      "stateMutability": "view",
      "type": "function"
    },
    {
      "inputs": [
        {
          "internalType": "string",
          "name": "key",
          "type": "string"
        },
        {
          "internalType": "uint256",
          "name": "value",
          "type": "uint256"
        }
      ],
      "name": "setConfig",
      "outputs": [],
      "stateMutability": "nonpayable",
      "type": "function"
    },
    {
      "inputs": [
        {
          "internalType": "bytes32",
          "name": "",
          "type": "bytes32"
        }
      ],
      "name": "stakeInfoData",
      "outputs": [
        {
          "internalType": "uint256",
          "name": "dataType",
          "type": "uint256"
        },
        {
          "internalType": "string",
          "name": "string0",
          "type": "string"
        },
        {
          "internalType": "string",
          "name": "string1",
          "type": "string"
        },
        {
          "internalType": "string",
          "name": "string2",
          "type": "string"
        },
        {
          "internalType": "string",
          "name": "string3",
          "type": "string"
        }
      ],
      "stateMutability": "view",
      "type": "function"
    },
    {
      "inputs": [
        {
          "internalType": "uint256",
          "name": "",
          "type": "uint256"
        }
      ],
      "name": "stakeInfoIndex",
      "outputs": [
        {
          "internalType": "bytes32",
          "name": "",
          "type": "bytes32"
        }
      ],
      "stateMutability": "view",
      "type": "function"
    },
    {
      "inputs": [],
      "name": "stakeInfoLength",
      "outputs": [
        {
          "internalType": "uint256",
          "name": "_stakeInfoLength",
          "type": "uint256"
        }
      ],
      "stateMutability": "view",
      "type": "function"
    },
    {
      "inputs": [
        {
          "internalType": "uint256",
          "name": "tokens",
          "type": "uint256"
        },
        {
          "internalType": "address[4]",
          "name": "addresses",
          "type": "address[4]"
        },
        {
          "internalType": "uint256[6]",
          "name": "uints",
          "type": "uint256[6]"
        },
        {
          "internalType": "string[4]",
          "name": "strings",
          "type": "string[4]"
        }
      ],
      "name": "subStakeForConvention",
      "outputs": [],
      "stateMutability": "nonpayable",
      "type": "function"
    },
    {
      "inputs": [
        {
          "internalType": "uint256",
          "name": "tokens",
          "type": "uint256"
        },
        {
          "internalType": "address",
          "name": "feedAddress",
          "type": "address"
        },
        {
          "internalType": "uint256",
          "name": "feedType",
          "type": "uint256"
        },
        {
          "internalType": "uint256",
          "name": "feedDecimals",
          "type": "uint256"
        },
        {
          "internalType": "string",
          "name": "name",
          "type": "string"
        }
      ],
      "name": "subStakeForFeed",
      "outputs": [],
      "stateMutability": "nonpayable",
      "type": "function"
    },
    {
      "inputs": [
        {
          "internalType": "uint256",
          "name": "tokens",
          "type": "uint256"
        },
        {
          "internalType": "uint256",
          "name": "dataType",
          "type": "uint256"
        },
        {
          "internalType": "address[4]",
          "name": "addresses",
          "type": "address[4]"
        },
        {
          "internalType": "uint256[6]",
          "name": "uints",
          "type": "uint256[6]"
        },
        {
          "internalType": "string[4]",
          "name": "strings",
          "type": "string[4]"
        }
      ],
      "name": "subStakeForGeneral",
      "outputs": [],
      "stateMutability": "nonpayable",
      "type": "function"
    },
    {
      "inputs": [
        {
          "internalType": "uint256",
          "name": "tokens",
          "type": "uint256"
        },
        {
          "internalType": "address",
          "name": "tokenAddress",
          "type": "address"
        },
        {
          "internalType": "string",
          "name": "name",
          "type": "string"
        }
      ],
      "name": "subStakeForToken",
      "outputs": [],
      "stateMutability": "nonpayable",
      "type": "function"
    },
    {
      "inputs": [],
      "name": "totalVotes",
      "outputs": [
        {
          "internalType": "uint256",
          "name": "",
          "type": "uint256"
        }
      ],
      "stateMutability": "view",
      "type": "function"
    },
    {
      "inputs": [
        {
          "internalType": "uint256",
          "name": "tokens",
          "type": "uint256"
        }
      ],
      "name": "uncommit",
      "outputs": [],
      "stateMutability": "nonpayable",
      "type": "function"
    },
    {
      "inputs": [
        {
          "internalType": "uint256",
          "name": "oip",
          "type": "uint256"
        },
        {
          "internalType": "bool",
          "name": "voteFor",
          "type": "bool"
        }
      ],
      "name": "vote",
      "outputs": [],
      "stateMutability": "nonpayable",
      "type": "function"
    },
    {
      "inputs": [
        {
          "internalType": "bytes32[]",
          "name": "signatures",
          "type": "bytes32[]"
        }
      ],
      "name": "voteWithSignatures",
      "outputs": [],
      "stateMutability": "nonpayable",
      "type": "function"
    },
    {
      "inputs": [],
      "name": "votingDuration",
      "outputs": [
        {
          "internalType": "uint256",
          "name": "",
          "type": "uint256"
        }
      ],
      "stateMutability": "view",
      "type": "function"
    },
    {
      "stateMutability": "payable",
      "type": "receive"
    }
  ],
  "bytecode": "0x6080604052612710600255670214e8348c4f000060035566b1a2bc2ec50000600455600160055568056bc75e2d6310000060065566038d7ea4c680006007556702c68af0bb1400006008556402f40535f9600955600a808055600b5569d3c21bcecceda1000000600c553480156200007657600080fd5b5060405162005aae38038062005aae8339810160408190526200009991620000cb565b600080546001600160a01b039384166001600160a01b0319918216179091556001805492909316911617905562000122565b60008060408385031215620000de578182fd5b8251620000eb8162000109565b6020840151909250620000fe8162000109565b809150509250929050565b6001600160a01b03811681146200011f57600080fd5b50565b61597c80620001326000396000f3fe60806040526004361061024a5760003560e01c80636db5c8fd11610139578063c64485bb116100b6578063df7d5d101161007a578063df7d5d1014610677578063e664f3b214610697578063e8fcf723146106ac578063eacdaabc146106e1578063ec7d0383146106f6578063fe0d94c11461071657610251565b8063c64485bb146105da578063c9d27afe1461060d578063cc3fd20b1461062d578063da35c66414610642578063dc2cabc61461065757610251565b806397309ce0116100fd57806397309ce014610550578063ad72ed7814610570578063b58131b014610590578063b69b2a65146105a5578063c0db96dd146105ba57610251565b80636db5c8fd146104cf57806373502e31146104e457806385c5cbef14610504578063876cdb2f14610526578063966f2df11461053b57610251565b80633e8f5b90116101c75780635c19a95c1161018b5780635c19a95c146104505780635f0a08a71461047057806360293e491461048557806366666aa91461049a57806368d7cc6a146104af57610251565b80633e8f5b90146103b057806347bccd1e146103d057806354120be6146103f0578063555b1791146104105780635bf56bc41461043057610251565b80631703a0181161020e5780631703a0181461030a578063233e72ca1461031f578063290e67351461033f5780632c6e2fa31461035f5780632d8279f81461039057610251565b8063013cf08b146102565780630871ff6c146102915780630d15fd77146102b35780631010937c146102d5578063132002fc146102f557610251565b3661025157005b600080fd5b34801561026257600080fd5b506102766102713660046146a3565b610736565b60405161028896959493929190615574565b60405180910390f35b34801561029d57600080fd5b506102b16102ac36600461462b565b610803565b005b3480156102bf57600080fd5b506102c8610807565b6040516102889190614e3d565b3480156102e157600080fd5b506102b16102f0366004614686565b61080d565b34801561030157600080fd5b506102c8610818565b34801561031657600080fd5b506102c861081e565b34801561032b57600080fd5b506102b161033a3660046149ca565b610824565b34801561034b57600080fd5b506102b161035a3660046148ae565b61087d565b34801561036b57600080fd5b5061037f61037a3660046146a3565b6108c3565b6040516102889594939291906156fa565b34801561039c57600080fd5b506102b16103ab3660046149ca565b610b1b565b3480156103bc57600080fd5b506102b16103cb3660046147bf565b610ff5565b3480156103dc57600080fd5b506102b16103eb3660046146a3565b6112f0565b3480156103fc57600080fd5b506102b161040b3660046148ae565b611847565b34801561041c57600080fd5b506102b161042b36600461491d565b611e04565b34801561043c57600080fd5b506102b161044b3660046149a9565b611e5a565b34801561045c57600080fd5b506102b161046b366004614591565b61231f565b34801561047c57600080fd5b506102c86124b7565b34801561049157600080fd5b506102c86124bd565b3480156104a657600080fd5b506102c86124c3565b3480156104bb57600080fd5b506102b16104ca3660046145dd565b6124c9565b3480156104db57600080fd5b506102c8612530565b3480156104f057600080fd5b506102b16104ff366004614801565b612536565b34801561051057600080fd5b5061051961254d565b6040516102889190614fe6565b34801561053257600080fd5b506102c861255c565b34801561054757600080fd5b506102c8612562565b34801561055c57600080fd5b506102b161056b366004614859565b612568565b34801561057c57600080fd5b506102c861058b3660046146bb565b612a9a565b34801561059c57600080fd5b506102c8612b9a565b3480156105b157600080fd5b50610519612ba0565b3480156105c657600080fd5b506102c86105d53660046145b3565b612baf565b3480156105e657600080fd5b506105fa6105f53660046146a3565b612bc6565b60405161028897969594939291906155be565b34801561061957600080fd5b506102b161062836600461497a565b612f14565b34801561063957600080fd5b506102c861310b565b34801561064e57600080fd5b506102c8613111565b34801561066357600080fd5b506102c86106723660046146a3565b613117565b34801561068357600080fd5b506102b1610692366004614591565b613135565b3480156106a357600080fd5b506102c8613144565b3480156106b857600080fd5b506106cc6106c7366004614591565b61314a565b60405161028899989796959493929190615814565b3480156106ed57600080fd5b506102c86131b0565b34801561070257600080fd5b506102b161071136600461491d565b6131b6565b34801561072257600080fd5b506102b16107313660046146a3565b613690565b60136020908152600091825260409182902080546001808301546002808501805488516101009582161595909502600019011691909104601f810187900487028401870190975286835292956001600160a01b03909116949192918301828280156107e25780601f106107b7576101008083540402835291602001916107e2565b820191906000526020600020905b8154815290600101906020018083116107c557829003601f168201915b5050505060078301546008840154600a909401549293909290915060ff1686565b5050565b600d5481565b6108033383836137d7565b600a5481565b60085481565b805160208083015160408085015160608601519151600095610853958a958c958b959394919392909101614cd7565b6040516020818303038152906040528051906020012090506108758682613e0a565b505050505050565b60008585858585604051602001610898959493929190614c26565b6040516020818303038152906040528051906020012090506108ba8782613e0a565b50505050505050565b6010602090815260009182526040918290208054600b820180548551601f60026000196101006001861615020190931692909204918201869004860281018601909652808652919492939091908301828280156109615780601f1061093657610100808354040283529160200191610961565b820191906000526020600020905b81548152906001019060200180831161094457829003601f168201915b50505050600c8301805460408051602060026001851615610100026000190190941693909304601f81018490048402820184019092528181529495949350908301828280156109f15780601f106109c6576101008083540402835291602001916109f1565b820191906000526020600020905b8154815290600101906020018083116109d457829003601f168201915b50505050600d8301805460408051602060026001851615610100026000190190941693909304601f8101849004840282018401909252818152949594935090830182828015610a815780601f10610a5657610100808354040283529160200191610a81565b820191906000526020600020905b815481529060010190602001808311610a6457829003601f168201915b50505050600e8301805460408051602060026001851615610100026000190190941693909304601f8101849004840282018401909252818152949594935090830182828015610b115780601f10610ae657610100808354040283529160200191610b11565b820191906000526020600020905b815481529060010190602001808311610af457829003601f168201915b5050505050905085565b805160208083015160408085015160608601519151600095610b4a958a958c958b959394919392909101614cd7565b604051602081830303815290604052805190602001209050610b6a613fc7565b600082815260106020908152604091829020825160e081018452815481528351608081019485905290939192840191600184019060049082845b81546001600160a01b03168152600190910190602001808311610ba45750505091835250506040805160c081019182905260209092019190600584019060069082845b815481526020019060010190808311610be7575050509183525050600b8201805460408051602060026001851615610100026000190190941693909304601f8101849004840282018401909252818152938201939291830182828015610c8e5780601f10610c6357610100808354040283529160200191610c8e565b820191906000526020600020905b815481529060010190602001808311610c7157829003601f168201915b5050509183525050600c8201805460408051602060026001851615610100026000190190941693909304601f8101849004840282018401909252818152938201939291830182828015610d225780601f10610cf757610100808354040283529160200191610d22565b820191906000526020600020905b815481529060010190602001808311610d0557829003601f168201915b5050509183525050600d8201805460408051602060026001851615610100026000190190941693909304601f8101849004840282018401909252818152938201939291830182828015610db65780601f10610d8b57610100808354040283529160200191610db6565b820191906000526020600020905b815481529060010190602001808311610d9957829003601f168201915b5050509183525050600e8201805460408051602060026001851615610100026000190190941693909304601f8101849004840282018401909252818152938201939291830182828015610e4a5780601f10610e1f57610100808354040283529160200191610e4a565b820191906000526020600020905b815481529060010190602001808311610e2d57829003601f168201915b505050919092525050815191925050610feb576040518060e0016040528087815260200186815260200185815260200184600060048110610e8757fe5b6020020151815260200184600160048110610e9e57fe5b6020020151815260200184600260048110610eb557fe5b6020020151815260200184600360048110610ecc57fe5b60209081029190910151909152600084815260108252604090208251815590820151610efe9060018301906004614010565b506040820151610f149060058301906006614068565b5060608201518051610f3091600b8401916020909101906140a2565b5060808201518051610f4c91600c8401916020909101906140a2565b5060a08201518051610f6891600d8401916020909101906140a2565b5060c08201518051610f8491600e8401916020909101906140a2565b5050601180546001810182556000919091526000805160206159078339815191520183905550825160208401516040808601516060870151915160008051602061592783398151915294610fe29488948d948d948d94939290614f5d565b60405180910390a15b6108ba8783613e53565b33301461101d5760405162461bcd60e51b8152600401611014906153a4565b60405180910390fd5b61104a826040518060400160405280600b81526020016a36b0bc223ab930ba34b7b760a91b815250613ebc565b156110595760028190556112b3565b61108e8260405180604001604052806013815260200172636f6c6c656374526577617264466f7246656560681b815250613ebc565b1561109d5760048190556112b3565b6110d48260405180604001604052806015815260200174636f6c6c656374526577617264466f7244656c617960581b815250613ebc565b156110e35760058190556112b3565b611115826040518060400160405280601081526020016f1c995dd85c991cd4195c94d958dbdb9960821b815250613ebc565b156111245760038190556112b3565b611152826040518060400160405280600c81526020016b1c1c9bdc1bdcd85b10dbdcdd60a21b815250613ebc565b156111615760068190556112b3565b61119482604051806040016040528060118152602001701c1c9bdc1bdcd85b151a1c995cda1bdb19607a1b815250613ebc565b156111a35760078190556112b3565b6111cb826040518060400160405280600681526020016571756f72756d60d01b815250613ebc565b156111da5760088190556112b3565b61121082604051806040016040528060148152602001731c5d5bdc9d5b511958d85e54195c94d958dbdb9960621b815250613ebc565b1561121f5760098190556112b3565b61124f826040518060400160405280600e81526020016d3b37ba34b733a23ab930ba34b7b760911b815250613ebc565b1561125e57600a8190556112b3565b61128c826040518060400160405280600c81526020016b6578656375746544656c617960a01b815250613ebc565b1561129b57600b8190556112b3565b60405162461bcd60e51b815260040161101490615048565b7f12c9dccd129ff783f1c8228eacdfa8e334ddecb7ec5c9a79ec662a4aed3d012a82826040516112e4929190614ffa565b60405180910390a15050565b336000908152600e6020526040902060018101548211156113235760405162461bcd60e51b8152600401611014906154e2565b8054600160401b90046001600160401b031642116113535760405162461bcd60e51b8152600401611014906152e2565b805460009061137f90611378906001600160401b03600160401b820481169116613f16565b4290613f16565b905060006113b2600d546113ac85600301546113a660035487613f3e90919063ffffffff16565b90613f3e565b90613f72565b9050600c548111156113c35750600c545b80156113da57600c546113d69082613f16565b600c555b6003830154600d546113eb91613f16565b600d5560058301546001600160a01b03161561145057600383015460058401546001600160a01b03166000908152600e602052604090206004015461142f91613f16565b60058401546001600160a01b03166000908152600e60205260409020600401555b600183015461145f9085613f16565b6001840181905561148d5782546fffffffffffffffffffffffffffffffff1916835560006003840155611558565b82546114a39042906001600160401b0316613fa4565b835467ffffffffffffffff60401b1916600160401b6001600160401b03928316021780855560018501546114e092612710926113ac929116613f3e565b60038401819055600d546114f391613fa4565b600d5560058301546001600160a01b03161561155857600383015460058401546001600160a01b03166000908152600e602052604090206004015461153791613fa4565b60058401546001600160a01b03166000908152600e60205260409020600401555b60015460405163f094190d60e01b81526001600160a01b039091169063f094190d9061158a9033908190600401614de6565b602060405180830381600087803b1580156115a457600080fd5b505af11580156115b8573d6000803e3d6000fd5b505050506040513d601f19601f820116820180604052508101906115dc919061466a565b6115f85760405162461bcd60e51b815260040161101490615310565b6001546040516323b872dd60e01b81526001600160a01b03909116906323b872dd9061162d9033906000908990600401614e00565b602060405180830381600087803b15801561164757600080fd5b505af115801561165b573d6000803e3d6000fd5b505050506040513d601f19601f8201168201806040525081019061167f919061466a565b61169b5760405162461bcd60e51b8152600401611014906151f0565b60005460405163a9059cbb60e01b81526001600160a01b039091169063a9059cbb906116cd9033908890600401614e24565b602060405180830381600087803b1580156116e757600080fd5b505af11580156116fb573d6000803e3d6000fd5b505050506040513d601f19601f8201168201806040525081019061171f919061466a565b61173b5760405162461bcd60e51b81526004016110149061501c565b6000546040516340c10f1960e01b81526001600160a01b03909116906340c10f199061176d9033908590600401614e24565b602060405180830381600087803b15801561178757600080fd5b505af115801561179b573d6000803e3d6000fd5b505050506040513d601f19601f820116820180604052508101906117bf919061466a565b6117db5760405162461bcd60e51b8152600401611014906154ba565b600183015483546003850154600c54600d5460405133957f4d5640d05655b64a4c178e81bc2bf4c70b0cc986c09f224dfb08d81f31a7228e95611839958c9592946001600160401b0380841695600160401b909404169391926157d8565b60405180910390a250505050565b60008585858585604051602001611862959493929190614c26565b604051602081830303815290604052805190602001209050611882613fc7565b600082815260106020908152604091829020825160e081018452815481528351608081019485905290939192840191600184019060049082845b81546001600160a01b031681526001909101906020018083116118bc5750505091835250506040805160c081019182905260209092019190600584019060069082845b8154815260200190600101908083116118ff575050509183525050600b8201805460408051602060026001851615610100026000190190941693909304601f81018490048402820184019092528181529382019392918301828280156119a65780601f1061197b576101008083540402835291602001916119a6565b820191906000526020600020905b81548152906001019060200180831161198957829003601f168201915b5050509183525050600c8201805460408051602060026001851615610100026000190190941693909304601f8101849004840282018401909252818152938201939291830182828015611a3a5780601f10611a0f57610100808354040283529160200191611a3a565b820191906000526020600020905b815481529060010190602001808311611a1d57829003601f168201915b5050509183525050600d8201805460408051602060026001851615610100026000190190941693909304601f8101849004840282018401909252818152938201939291830182828015611ace5780601f10611aa357610100808354040283529160200191611ace565b820191906000526020600020905b815481529060010190602001808311611ab157829003601f168201915b5050509183525050600e8201805460408051602060026001851615610100026000190190941693909304601f8101849004840282018401909252818152938201939291830182828015611b625780601f10611b3757610100808354040283529160200191611b62565b820191906000526020600020905b815481529060010190602001808311611b4557829003601f168201915b505050919092525050815191925050611df0576040518060e001604052806002815260200160405180608001604052808a6001600160a01b03166001600160a01b0316815260200160006001600160a01b03166001600160a01b0316815260200160006001600160a01b03166001600160a01b0316815260200160006001600160a01b03166001600160a01b031681525081526020016040518060c001604052808981526020018881526020016000815260200160008152602001600081526020016000815250815260200185858080601f01602080910402602001604051908101604052809392919081815260200183838082843760009201829052509385525050604080516020818101835284825280860191909152815180820183528481528286015281518082018352848152606090950194909452868352601084529091208351815591830151611cbe915060018301906004614010565b506040820151611cd49060058301906006614068565b5060608201518051611cf091600b8401916020909101906140a2565b5060808201518051611d0c91600c8401916020909101906140a2565b5060a08201518051611d2891600d8401916020909101906140a2565b5060c08201518051611d4491600e8401916020909101906140a2565b50506011805460018101825560009182526000805160206159078339815191520184905560408051608080820183526001600160a01b038c16825260208281018590528284018590526060808401869052845160c0810186528d81529182018c9052818501869052810185905290810184905260a081019390935290516000805160206159278339815191529350611de79286926002929091908a908a90614ec2565b60405180910390a15b611dfa8883613e53565b5050505050505050565b805160208083015160408085015160608601519151600095611e31958a958a959294909390929101614c5b565b604051602081830303815290604052805190602001209050611e538582613e0a565b5050505050565b600254811115611e7c5760405162461bcd60e51b81526004016110149061548f565b336000908152600e602052604081206003810154600182015491929115611fb1578254600160401b90046001600160401b03164285011015611ed05760405162461bcd60e51b81526004016110149061506d565b8254600090611ef590611378906001600160401b03600160401b820481169116613f16565b9050611f1a600d546113ac86600301546113a660035486613f3e90919063ffffffff16565b9250600c54831115611f2c57600c5492505b8215611f5757600c54611f3f9084613f16565b600c556001840154611f519084613fa4565b60018501555b600c54845460405133927f4f2f44b0dc1dff77d9cb13d49111cf708a0f4655a4f561b4062fb6ca74ddbae492611fa792869289926000926001600160401b03600160401b83048116921690615759565b60405180910390a2505b6000546040516323b872dd60e01b81526001600160a01b03909116906323b872dd90611fe590339030908a90600401614e00565b602060405180830381600087803b158015611fff57600080fd5b505af1158015612013573d6000803e3d6000fd5b505050506040513d601f19601f82011682018060405250810190612037919061466a565b6120535760405162461bcd60e51b81526004016110149061550f565b60018301546120629086613fa4565b6001840155825467ffffffffffffffff19166001600160401b03851617835561208b4285613fa4565b83546001600160401b0391909116600160401b0267ffffffffffffffff60401b1990911617835560018301546120c990612710906113ac9087613f3e565b60038401819055600d546120e891906120e29084613f16565b90613fa4565b600d5560058301546001600160a01b03161561215357600383015460058401546001600160a01b03166000908152600e602052604090206004015461213291906120e29084613f16565b60058401546001600160a01b03166000908152600e60205260409020600401555b81156121f9576000546040516340c10f1960e01b81526001600160a01b03909116906340c10f199061218b9030908690600401614e24565b602060405180830381600087803b1580156121a557600080fd5b505af11580156121b9573d6000803e3d6000fd5b505050506040513d601f19601f820116820180604052508101906121dd919061466a565b6121f95760405162461bcd60e51b81526004016110149061521d565b6001546001600160a01b03166340c10f19336122158886613fa4565b6040518363ffffffff1660e01b8152600401612232929190614e24565b602060405180830381600087803b15801561224c57600080fd5b505af1158015612260573d6000803e3d6000fd5b505050506040513d601f19601f82011682018060405250810190612284919061466a565b6122a05760405162461bcd60e51b8152600401611014906150cd565b6001830154835460058501546003860154600c54600d5460405133967fd9d33ad13048a93ae5ea549a63792a10cde0b555cdf204e3671c007308cbdbc996612310968e9692956001600160401b0380841696600160401b90940416946001600160a01b039092169392909161578d565b60405180910390a25050505050565b336000908152600e60205260409020600a54815442600160c01b9091046001600160401b0316909101106123655760405162461bcd60e51b815260040161101490615188565b60058101546001600160a01b031680156123c857600382015460058301546001600160a01b03166000908152600e60205260409020600401546123a791613f16565b60058301546001600160a01b03166000908152600e60205260409020600401555b6005820180546001600160a01b0319166001600160a01b038581169190911791829055835467ffffffffffffffff60801b1916600160801b426001600160401b031602178455161561246357600382015460058301546001600160a01b03166000908152600e602052604090206004015461244291613fa4565b60058301546001600160a01b03166000908152600e60205260409020600401555b826001600160a01b0316816001600160a01b03167fe46208ae3c8157621e96e03a67b3fc7b61b734022b04cf097b94dd994dd95b4384600301546040516124aa9190614e3d565b60405180910390a3505050565b60095481565b60045481565b600c5481565b3330146124e85760405162461bcd60e51b8152600401611014906153a4565b60005b83811015611e5357600085858381811061250157fe5b90506020020160208101906125169190614591565b6001600160a01b031660005250600e6020526001016124eb565b60025481565b6000838383604051602001611e3193929190614bcc565b6001546001600160a01b031681565b600b5481565b60115490565b6000828260405160200161257d929190614bf3565b60405160208183030381529060405280519060200120905061259d613fc7565b600082815260106020908152604091829020825160e081018452815481528351608081019485905290939192840191600184019060049082845b81546001600160a01b031681526001909101906020018083116125d75750505091835250506040805160c081019182905260209092019190600584019060069082845b81548152602001906001019080831161261a575050509183525050600b8201805460408051602060026001851615610100026000190190941693909304601f81018490048402820184019092528181529382019392918301828280156126c15780601f10612696576101008083540402835291602001916126c1565b820191906000526020600020905b8154815290600101906020018083116126a457829003601f168201915b5050509183525050600c8201805460408051602060026001851615610100026000190190941693909304601f81018490048402820184019092528181529382019392918301828280156127555780601f1061272a57610100808354040283529160200191612755565b820191906000526020600020905b81548152906001019060200180831161273857829003601f168201915b5050509183525050600d8201805460408051602060026001851615610100026000190190941693909304601f81018490048402820184019092528181529382019392918301828280156127e95780601f106127be576101008083540402835291602001916127e9565b820191906000526020600020905b8154815290600101906020018083116127cc57829003601f168201915b5050509183525050600e8201805460408051602060026001851615610100026000190190941693909304601f810184900484028201840190925281815293820193929183018282801561287d5780601f106128525761010080835404028352916020019161287d565b820191906000526020600020905b81548152906001019060200180831161286057829003601f168201915b505050919092525050815191925050612a90576040805160e08101825260018082528251608080820185526001600160a01b0389168252600060208381018290528387018290526060808501839052818701948552875160c08082018a52848252818401859052818a0185905281830185905281860185905260a0808301869052898b01929092529188018c905288518084018a528481529488019490945287518083018952838152938701939093528651808201885282815292860192909252878152601090915293909320825181559251919291612961918301906004614010565b5060408201516129779060058301906006614068565b506060820151805161299391600b8401916020909101906140a2565b50608082015180516129af91600c8401916020909101906140a2565b5060a082015180516129cb91600d8401916020909101906140a2565b5060c082015180516129e791600e8401916020909101906140a2565b50506011805460018181018355600092835260008051602061590783398151915290910185905560408051608080820183526001600160a01b038a16825260208281018690528284018690526060808401879052845160c081018652878152918201879052818501879052810186905290810185905260a081019490945290516000805160206159278339815191529450612a8793879392918990614e46565b60405180910390a15b611e538583613e53565b601280546001908101918290556000918252601360209081526040832042815591820180546001600160a01b031916331790558651612ae1916002840191908901906140a2565b508451612af7906003830190602088019061410f565b508351612b0d9060048301906020870190614163565b508251612b23906006830190602086019061419d565b506000600782018190556008820155600a8101805460ff1916905560125460405133917f04faf5b3ca7bcc5ec586570e57897bb702ddec5bbe89dac520370b1a2713e61091612b8591908a90600387019060048801906006890190429061565b565b60405180910390a25050601254949350505050565b60075481565b6000546001600160a01b031681565b506001600160a01b03166000908152600e60205290565b6000612bd06141f6565b612bd8614214565b606080606080612be6613fc7565b600089815260106020908152604091829020825160e081018452815481528351608081019485905290939192840191600184019060049082845b81546001600160a01b03168152600190910190602001808311612c205750505091835250506040805160c081019182905260209092019190600584019060069082845b815481526020019060010190808311612c63575050509183525050600b8201805460408051602060026001851615610100026000190190941693909304601f8101849004840282018401909252818152938201939291830182828015612d0a5780601f10612cdf57610100808354040283529160200191612d0a565b820191906000526020600020905b815481529060010190602001808311612ced57829003601f168201915b5050509183525050600c8201805460408051602060026001851615610100026000190190941693909304601f8101849004840282018401909252818152938201939291830182828015612d9e5780601f10612d7357610100808354040283529160200191612d9e565b820191906000526020600020905b815481529060010190602001808311612d8157829003601f168201915b5050509183525050600d8201805460408051602060026001851615610100026000190190941693909304601f8101849004840282018401909252818152938201939291830182828015612e325780601f10612e0757610100808354040283529160200191612e32565b820191906000526020600020905b815481529060010190602001808311612e1557829003601f168201915b5050509183525050600e8201805460408051602060026001851615610100026000190190941693909304601f8101849004840282018401909252818152938201939291830182828015612ec65780601f10612e9b57610100808354040283529160200191612ec6565b820191906000526020600020905b815481529060010190602001808311612ea957829003601f168201915b5050505050815250509050806000015181602001518260400151809850819950829a5050505080606001519450806080015193508060a0015192508060c00151915050919395979092949650565b6000828152601360205260409020548015801590612f3e5750600a54612f3b908290613fa4565b42105b612f5a5760405162461bcd60e51b8152600401611014906151c9565b600a54336000908152600e602052604090205442600160801b9091046001600160401b031690910110612f9f5760405162461bcd60e51b81526004016110149061524c565b600083815260136020908152604080832033845260090190915290205460ff1615612fdc5760405162461bcd60e51b815260040161101490615161565b811561302757336000908152600e602090815260408083206003015486845260139092529091206007015461301091613fa4565b600084815260136020526040902060070155613068565b336000908152600e602090815260408083206003015486845260139092529091206007015461305591613fa4565b6000848152601360205260409020600801555b600083815260136020818152604080842033808652600982018452828620805460ff19166001179055600e845282862080546001600160401b034216600160c01b026001600160c01b039091161790559488905292909152600782015460089092015490517ffb5e6530ad35593dae2428d2c9931d35a61042367a12ca10742a80fcbb272f73926130fe92889288929190615640565b60405180910390a2505050565b60055481565b60125481565b6011818154811061312457fe5b600091825260209091200154905081565b613141816000806137d7565b50565b60065481565b600e602052600090815260409020805460018201546002830154600384015460048501546005909501546001600160401b0380861696600160401b8704821696600160801b8104831696600160c01b90910490921694919391926001600160a01b031689565b60035481565b8051602080830151604080850151606086015191516000956131e3958a958a959294909390929101614c5b565b604051602081830303815290604052805190602001209050613203613fc7565b600082815260106020908152604091829020825160e081018452815481528351608081019485905290939192840191600184019060049082845b81546001600160a01b0316815260019091019060200180831161323d5750505091835250506040805160c081019182905260209092019190600584019060069082845b815481526020019060010190808311613280575050509183525050600b8201805460408051602060026001851615610100026000190190941693909304601f81018490048402820184019092528181529382019392918301828280156133275780601f106132fc57610100808354040283529160200191613327565b820191906000526020600020905b81548152906001019060200180831161330a57829003601f168201915b5050509183525050600c8201805460408051602060026001851615610100026000190190941693909304601f81018490048402820184019092528181529382019392918301828280156133bb5780601f10613390576101008083540402835291602001916133bb565b820191906000526020600020905b81548152906001019060200180831161339e57829003601f168201915b5050509183525050600d8201805460408051602060026001851615610100026000190190941693909304601f810184900484028201840190925281815293820193929183018282801561344f5780601f106134245761010080835404028352916020019161344f565b820191906000526020600020905b81548152906001019060200180831161343257829003601f168201915b5050509183525050600e8201805460408051602060026001851615610100026000190190941693909304601f81018490048402820184019092528181529382019392918301828280156134e35780601f106134b8576101008083540402835291602001916134e3565b820191906000526020600020905b8154815290600101906020018083116134c657829003601f168201915b505050919092525050815191925050613686576040518060e00160405280600381526020018681526020018581526020018460006004811061352157fe5b602002015181526020018460016004811061353857fe5b602002015181526020018460026004811061354f57fe5b602002015181526020018460036004811061356657fe5b602090810291909101519091526000848152601082526040902082518155908201516135989060018301906004614010565b5060408201516135ae9060058301906006614068565b50606082015180516135ca91600b8401916020909101906140a2565b50608082015180516135e691600c8401916020909101906140a2565b5060a0820151805161360291600d8401916020909101906140a2565b5060c0820151805161361e91600e8401916020909101906140a2565b505060118054600181018255600091909152600080516020615907833981519152018390555082516020840151604080860151606087015191516000805160206159278339815191529461367d9488946003948d948d94939290614f5d565b60405180910390a15b6108758683613e53565b6000818152601360205260408120600a8101805460ff19166001179055905b60038201548110156137915760008260030182815481106136cc57fe5b6000918252602090912001546004840180546001600160a01b0390921691849081106136f457fe5b906000526020600020015484600601848154811061370e57fe5b906000526020600020016040516137259190614d5a565b60006040518083038185875af1925050503d8060008114613762576040519150601f19603f3d011682016040523d82523d6000602084013e613767565b606091505b50509050806137885760405162461bcd60e51b815260040161101490615110565b506001016136af565b50336001600160a01b03167f6f6c6d78a4851d4c222c8404fc92372ee84b7b81054305ae8ea3c83c2dabd42e836040516137cb9190614e3d565b60405180910390a25050565b6001600160a01b0383166000908152600e6020526040902060018101546137fd57600080fd5b805460009061382290611378906001600160401b03600160401b820481169116613f16565b90506000613849600d546113ac85600301546113a660035487613f3e90919063ffffffff16565b90506000600c5482111561385d57600c5491505b8115613daa57600c546138709083613f16565b600c55336001600160a01b038816146138ea57600554845442600160401b9091046001600160401b0316909101106138ba5760405162461bcd60e51b815260040161101490615458565b6138db670de0b6b3a76400006113ac60045485613f3e90919063ffffffff16565b90506138e78282613f16565b91505b60038401548615613b635760018501546139049084613fa4565b6001860155845442600160401b9091046001600160401b0316101561394757845467ffffffffffffffff60401b1916600160401b426001600160401b0316021785555b85156139bf5760025486111561396f5760405162461bcd60e51b81526004016110149061548f565b845467ffffffffffffffff19166001600160401b0387161785556139934287613fa4565b85546001600160401b0391909116600160401b0267ffffffffffffffff60401b199091161785556139f8565b84546139db90600160401b90046001600160401b031642613f16565b855467ffffffffffffffff19166001600160401b03919091161785555b84546001860154613a1991612710916113ac916001600160401b0316613f3e565b60038601556000546040516340c10f1960e01b81526001600160a01b03909116906340c10f1990613a509030908790600401614e24565b602060405180830381600087803b158015613a6a57600080fd5b505af1158015613a7e573d6000803e3d6000fd5b505050506040513d601f19601f82011682018060405250810190613aa2919061466a565b613abe5760405162461bcd60e51b8152600401611014906154ba565b6001546040516340c10f1960e01b81526001600160a01b03909116906340c10f1990613af09033908790600401614e24565b602060405180830381600087803b158015613b0a57600080fd5b505af1158015613b1e573d6000803e3d6000fd5b505050506040513d601f19601f82011682018060405250810190613b42919061466a565b613b5e5760405162461bcd60e51b8152600401611014906150a4565b613c7a565b845442600160401b9091046001600160401b03161115613b9e578454613b9990600160401b90046001600160401b031642613f16565b613ba1565b60005b855467ffffffffffffffff19166001600160401b03918216178087556001870154613bd592612710926113ac929116613f3e565b60038601556000546040516340c10f1960e01b81526001600160a01b03909116906340c10f1990613c0c908b908790600401614e24565b602060405180830381600087803b158015613c2657600080fd5b505af1158015613c3a573d6000803e3d6000fd5b505050506040513d601f19601f82011682018060405250810190613c5e919061466a565b613c7a5760405162461bcd60e51b8152600401611014906154ba565b613c9785600301546120e283600d54613f1690919063ffffffff16565b600d5560058501546001600160a01b031615613d0257600385015460058601546001600160a01b03166000908152600e6020526040902060040154613ce191906120e29084613f16565b60058601546001600160a01b03166000908152600e60205260409020600401555b8115613da8576000546040516340c10f1960e01b81526001600160a01b03909116906340c10f1990613d3a9033908690600401614e24565b602060405180830381600087803b158015613d5457600080fd5b505af1158015613d68573d6000803e3d6000fd5b505050506040513d601f19601f82011682018060405250810190613d8c919061466a565b613da85760405162461bcd60e51b81526004016110149061536d565b505b600c54845460405133927f4f2f44b0dc1dff77d9cb13d49111cf708a0f4655a4f561b4062fb6ca74ddbae492613df9928892889288926001600160401b03600160401b83048116921690615759565b60405180910390a250505050505050565b336000908152600e602052604090206001810154613e3a5760405162461bcd60e51b81526004016110149061528f565b6002810154613e499084613f16565b6002909101555050565b336000908152600e602052604090206001810154613e835760405162461bcd60e51b81526004016110149061553f565b8281600201540181600101541015613ead5760405162461bcd60e51b8152600401611014906153c6565b6002810154613e499084613fa4565b600081604051602001613ecf9190614dca565b6040516020818303038152906040528051906020012083604051602001613ef69190614dca565b604051602081830303815290604052805190602001201490505b92915050565b600082821115613f385760405162461bcd60e51b81526004016110149061513a565b50900390565b818102821580613f56575081838281613f5357fe5b04145b613f105760405162461bcd60e51b815260040161101490615432565b6000808211613f935760405162461bcd60e51b81526004016110149061540d565b818381613f9c57fe5b049392505050565b81810182811015613f105760405162461bcd60e51b815260040161101490615347565b6040518060e0016040528060008152602001613fe16141f6565b8152602001613fee614214565b8152602001606081526020016060815260200160608152602001606081525090565b8260048101928215614058579160200282015b8281111561405857825182546001600160a01b0319166001600160a01b03909116178255602090920191600190910190614023565b50614064929150614232565b5090565b8260068101928215614096579160200282015b8281111561409657825182559160200191906001019061407b565b50614064929150614251565b828054600181600116156101000203166002900490600052602060002090601f016020900481019282601f106140e357805160ff1916838001178555614096565b82800160010185558215614096579182018281111561409657825182559160200191906001019061407b565b828054828255906000526020600020908101928215614058579160200282018281111561405857825182546001600160a01b0319166001600160a01b03909116178255602090920191600190910190614023565b828054828255906000526020600020908101928215614096579160200282018281111561409657825182559160200191906001019061407b565b8280548282559060005260206000209081019282156141ea579160200282015b828111156141ea57825180516141da9184916020909101906140a2565b50916020019190600101906141bd565b50614064929150614266565b60405180608001604052806004906020820280368337509192915050565b6040518060c001604052806006906020820280368337509192915050565b5b808211156140645780546001600160a01b0319168155600101614233565b5b808211156140645760008155600101614252565b8082111561406457600061427a8282614283565b50600101614266565b50805460018160011615610100020316600290046000825580601f106142a95750613141565b601f0160209004906000526020600020908101906131419190614251565b80356001600160a01b0381168114613f1057600080fd5b600082601f8301126142ee578081fd5b6142f8608061586f565b905080828460808501111561430c57600080fd5b60005b60048110156143375761432286836142c7565b8352602092830192919091019060010161430f565b50505092915050565b60008083601f840112614351578081fd5b5081356001600160401b03811115614367578182fd5b602083019150836020808302850101111561438157600080fd5b9250929050565b600082601f830112614398578081fd5b81356143ab6143a682615895565b61586f565b818152915060208083019084810160005b848110156143e5576143d3888484358a01016144ea565b845292820192908201906001016143bc565b505050505092915050565b600082601f830112614400578081fd5b61440a608061586f565b9050808260005b60048110156143375761442786833587016144ea565b83526020928301929190910190600101614411565b600082601f83011261444c578081fd5b61445660c061586f565b905080828460c08501111561446a57600080fd5b60005b600681101561433757813583526020928301929091019060010161446d565b600082601f83011261449c578081fd5b81356144aa6143a682615895565b8181529150602080830190848101818402860182018710156144cb57600080fd5b60005b848110156143e5578135845292820192908201906001016144ce565b600082601f8301126144fa578081fd5b81356001600160401b0381111561450f578182fd5b614522601f8201601f191660200161586f565b915080825283602082850101111561453957600080fd5b8060208401602084013760009082016020015292915050565b60008083601f840112614563578182fd5b5081356001600160401b03811115614579578182fd5b60208301915083602082850101111561438157600080fd5b6000602082840312156145a2578081fd5b6145ac83836142c7565b9392505050565b600080604083850312156145c5578081fd5b6145cf84846142c7565b946020939093013593505050565b600080600080606085870312156145f2578182fd5b84356001600160401b03811115614607578283fd5b61461387828801614340565b90989097506020870135966040013595509350505050565b6000806020838503121561463d578182fd5b82356001600160401b03811115614652578283fd5b61465e85828601614340565b90969095509350505050565b60006020828403121561467b578081fd5b81516145ac816158f8565b60008060408385031215614698578182fd5b82356145cf816158f8565b6000602082840312156146b4578081fd5b5035919050565b600080600080608085870312156146d0578182fd5b84356001600160401b03808211156146e6578384fd5b6146f2888389016144ea565b9550602091508187013581811115614708578485fd5b8701601f81018913614718578485fd5b80356147266143a682615895565b81815284810190838601868402850187018d1015614742578889fd5b8894505b8385101561476c576147588d826142c7565b835260019490940193918601918601614746565b5097505050506040870135915080821115614785578384fd5b6147918883890161448c565b935060608701359150808211156147a6578283fd5b506147b387828801614388565b91505092959194509250565b600080604083850312156147d1578182fd5b82356001600160401b038111156147e6578283fd5b6147f2858286016144ea565b95602094909401359450505050565b60008060008060608587031215614816578182fd5b8435935061482786602087016142c7565b925060408501356001600160401b03811115614841578283fd5b61484d87828801614552565b95989497509550505050565b60008060006060848603121561486d578081fd5b8335925061487e85602086016142c7565b915060408401356001600160401b03811115614898578182fd5b6148a4868287016144ea565b9150509250925092565b60008060008060008060a087890312156148c6578384fd5b863595506148d788602089016142c7565b9450604087013593506060870135925060808701356001600160401b038111156148ff578283fd5b61490b89828a01614552565b979a9699509497509295939492505050565b6000806000806101808587031215614933578182fd5b8435935061494486602087016142de565b92506149538660a0870161443c565b91506101608501356001600160401b0381111561496e578182fd5b6147b3878288016143f0565b6000806040838503121561498c578182fd5b82359150602083013561499e816158f8565b809150509250929050565b600080604083850312156149bb578182fd5b50508035926020909101359150565b60008060008060006101a086880312156149e2578283fd5b85359450602086013593506149fa87604088016142de565b9250614a098760c0880161443c565b91506101808601356001600160401b03811115614a24578182fd5b614a30888289016143f0565b9150509295509295909350565b8060005b6004811015614a695781516001600160a01b0316845260209384019390910190600101614a41565b50505050565b6000815480845260208085018081965082840281019150858552828520855b85811015614b29578284038952868254600180821660008114614ab85760018114614ad857614b13565b614ac8607f600285041689614e3d565b60ff198416815289019350614b13565b60028304614ae6818a614e3d565b614aef886158b4565b8d5b83811015614b0a57815483820152908501908c01614af1565b91909101955050505b509a87019a919550509190910190600101614a8e565b5091979650505050505050565b8060005b6006811015614a69578151845260209384019390910190600101614b3a565b6000815480845260208085019450838352808320835b83811015614b8b57815487529582019560019182019101614b6f565b509495945050505050565b60008151808452614bae8160208601602086016158cc565b601f01601f19169290920160200192915050565b6000815260200190565b60006001600160601b03198560601b16825282846014840137910160140190815292915050565b60006001600160601b03198460601b1682528251614c188160148501602087016158cc565b919091016014019392505050565b60006001600160601b03198760601b168252856014830152846034830152828460548401379101605401908152949350505050565b6000614c678289614a3d565b614c746080830188614b36565b6101408651614c898183860160208b016158cc565b865190840190614c9f8184840160208b016158cc565b8651910190614cb48184840160208a016158cc565b8551910190614cc981848401602089016158cc565b010198975050505050505050565b6000614ce3828a614a3d565b876080830152614cf660a0830188614b36565b6101608651614d0b8183860160208b016158cc565b865190840190614d218184840160208b016158cc565b8651910190614d368184840160208a016158cc565b8551910190614d4b81848401602089016158cc565b01019998505050505050505050565b6000808354600180821660008114614d795760018114614d9057614dbf565b60ff198316865260028304607f1686019350614dbf565b600283048786526020808720875b83811015614db75781548a820152908501908201614d9e565b505050860193505b509195945050505050565b60008251614ddc8184602087016158cc565b9190910192915050565b6001600160a01b0392831681529116602082015260400190565b6001600160a01b039384168152919092166020820152604081019190915260600190565b6001600160a01b03929092168252602082015260400190565b90815260200190565b6000610200878352866020840152614e616040840187614a3d565b614e6e60c0840186614b36565b80610180840152614e8181840185614b96565b9050828103806101a0850152828252602081016101c0850152826020830152604081016101e085015250816040820152606081019150509695505050505050565b6000610200888352876020840152614edd6040840188614a3d565b614eea60c0840187614b36565b806101808401528381840152506102208385828501378284018101829052601f8401601f191683018381038083016101a08601529181018390526102409182016101c0850152614f3b828201614bc2565b9150508281036101e0840152614f5081614bc2565b9998505050505050505050565b60006102008a8352896020840152614f78604084018a614a3d565b614f8560c0840189614b36565b80610180840152614f9881840188614b96565b90508281036101a0840152614fad8187614b96565b90508281036101c0840152614fc28186614b96565b90508281036101e0840152614fd78185614b96565b9b9a5050505050505050505050565b6001600160a01b0391909116815260200190565b60006040825261500d6040830185614b96565b90508260208301529392505050565b60208082526012908201527113d1c81d1c985b9cd9995c8819985a5b195960721b604082015260600190565b6020808252600b908201526a496e76616c6964206b657960a81b604082015260600190565b60208082526017908201527f43616e6e6f742073686f7274656e206475726174696f6e000000000000000000604082015260600190565b6020808252600f908201526e13d1d1081b5a5b9d0819985a5b1959608a1b604082015260600190565b60208082526023908201527f636f6d6d69746d656e74202b20726577617264204f4744206d696e74206661696040820152621b195960ea1b606082015260800190565b60208082526010908201526f115e1958dd5d1a5bdb8819985a5b195960821b604082015260600190565b6020808252600d908201526c53756220756e646572666c6f7760981b604082015260600190565b6020808252600d908201526c105b1c9958591e481d9bdd1959609a1b604082015260600190565b60208082526021908201527f43616e6e6f742064656c656761746520616674657220726563656e7420766f746040820152606560f81b606082015260800190565b6020808252600d908201526c159bdd1a5b99c818db1bdcd959609a1b604082015260600190565b60208082526013908201527213d1d1081d1c985b9cd9995c8819985a5b1959606a1b604082015260600190565b6020808252601590820152741c995dd85c990813d1c81b5a5b9d0819985a5b1959605a1b604082015260600190565b60208082526023908201527f43616e6e6f7420766f746520616674657220726563656e742064656c6567617460408201526234b7b760e91b606082015260800190565b60208082526033908201527f4f7074696e6f476f763a20436f6d6d697420616e64207374616b6520746f6b656040820152726e73206265666f726520756e7374616b696e6760681b606082015260800190565b60208082526014908201527310dbdb5b5a5d1b595b9d081b9bdd08195b99195960621b604082015260600190565b6020808252601f908201527f4f47442077697468647261774469766964656e6473466f72206661696c656400604082015260600190565b6020808252600c908201526b416464206f766572666c6f7760a01b604082015260600190565b6020808252601b908201527f63616c6c6572526577617264204f47206d696e74206661696c65640000000000604082015260600190565b6020808252600890820152672737ba1039b2b63360c11b604082015260600190565b60208082526027908201527f4f7074696e6f476f763a20496e73756666696369656e7420746f6b656e7320746040820152666f207374616b6560c81b606082015260800190565b6020808252600b908201526a044697669646520627920360ac1b604082015260600190565b6020808252600c908201526b4d756c206f766572666c6f7760a01b604082015260600190565b6020808252601f908201527f436f6d6d69746d656e7420776974682064656c6179206e6f7420656e64656400604082015260600190565b6020808252601190820152706475726174696f6e20746f6f206c6f6e6760781b604082015260600190565b6020808252600e908201526d13d1c81b5a5b9d0819985a5b195960921b604082015260600190565b602080825260139082015272496e73756666696369656e7420746f6b656e7360681b604082015260600190565b60208082526016908201527513d1c81d1c985b9cd9995c919c9bdb4819985a5b195960521b604082015260600190565b6020808252818101527f4f7074696e6f476f763a20436f6d6d6974206265666f7265207374616b696e67604082015260600190565b8681526001600160a01b038616602082015260c06040820181905260009061559e90830187614b96565b6060830195909552506080810192909252151560a0909101529392505050565b60006101e08983526155d3602084018a614a3d565b6155e060a0840189614b36565b806101608401526155f381840188614b96565b90508281036101808401526156088187614b96565b90508281036101a084015261561d8186614b96565b90508281036101c08401526156328185614b96565b9a9950505050505050505050565b93845291151560208401526040830152606082015260800190565b6000878252602060c08184015261567560c0840189614b96565b8381036040850152875480825288845282842091830190845b818110156156bc5783546156aa906001600160a01b03166158c0565b8352600193840193928501920161568e565b505084810360608601526156d08189614b59565b9250505082810360808401526156e68186614a6f565b9150508260a0830152979650505050505050565b600086825260a0602083015261571360a0830187614b96565b82810360408401526157258187614b96565b905082810360608401526157398186614b96565b9050828103608084015261574d8185614b96565b98975050505050505050565b9586526020860194909452604085019290925260608401526001600160401b0390811660808401521660a082015260c00190565b97885260208801969096526001600160401b0394851660408801529290931660608601526001600160a01b0316608085015260a084019190915260c083015260e08201526101000190565b96875260208701959095526001600160401b039384166040870152919092166060850152608084019190915260a083015260c082015260e00190565b6001600160401b03998a16815297891660208901529588166040880152939096166060860152608085019190915260a084015260c083019390935260e08201929092526001600160a01b039091166101008201526101200190565b6040518181016001600160401b038111828210171561588d57600080fd5b604052919050565b60006001600160401b038211156158aa578081fd5b5060209081020190565b60009081526020902090565b6001600160a01b031690565b60005b838110156158e75781810151838201526020016158cf565b83811115614a695750506000910152565b801515811461314157600080fdfe31ecc21a745e3968a04e9570e4425bc18fa8019c68028196b546d1669c200c68f24cbdc684dc21516b5240bd7ae597aaa3aa8df591d22442926b3fd088ee2a59a264697066735822122077a2b4922f367db2cbc4224a0328ce4bf24422ac69d377e2ff213495bd79181764736f6c63430007010033",
  "linkReferences": {},
  "deployedLinkReferences": {}
}