{
  "_format": "hh-sol-artifact-1",
  "contractName": "OptinoGov",
  "sourceName": "contracts/OptinoGov.sol",
  "abi": [
    {
      "inputs": [
        {
          "internalType": "contract OGTokenInterface",
          "name": "ogToken",
          "type": "address"
        },
        {
          "internalType": "contract OGDTokenInterface",
          "name": "ogdToken",
          "type": "address"
        }
      ],
      "stateMutability": "nonpayable",
      "type": "constructor"
    },
    {
      "anonymous": false,
      "inputs": [
        {
          "indexed": true,
          "internalType": "address",
          "name": "user",
          "type": "address"
        },
        {
          "indexed": false,
          "internalType": "uint256",
          "name": "elapsed",
          "type": "uint256"
        },
        {
          "indexed": false,
          "internalType": "uint256",
          "name": "reward",
          "type": "uint256"
        },
        {
          "indexed": false,
          "internalType": "uint256",
          "name": "callerReward",
          "type": "uint256"
        },
        {
          "indexed": false,
          "internalType": "uint256",
          "name": "rewardPool",
          "type": "uint256"
        },
        {
          "indexed": false,
          "internalType": "uint256",
          "name": "end",
          "type": "uint256"
        },
        {
          "indexed": false,
          "internalType": "uint256",
          "name": "duration",
          "type": "uint256"
        }
      ],
      "name": "Collected",
      "type": "event"
    },
    {
      "anonymous": false,
      "inputs": [
        {
          "indexed": true,
          "internalType": "address",
          "name": "user",
          "type": "address"
        },
        {
          "indexed": false,
          "internalType": "uint256",
          "name": "tokens",
          "type": "uint256"
        },
        {
          "indexed": false,
          "internalType": "uint256",
          "name": "balance",
          "type": "uint256"
        },
        {
          "indexed": false,
          "internalType": "uint256",
          "name": "duration",
          "type": "uint256"
        },
        {
          "indexed": false,
          "internalType": "uint256",
          "name": "end",
          "type": "uint256"
        },
        {
          "indexed": false,
          "internalType": "address",
          "name": "delegatee",
          "type": "address"
        },
        {
          "indexed": false,
          "internalType": "uint256",
          "name": "votes",
          "type": "uint256"
        },
        {
          "indexed": false,
          "internalType": "uint256",
          "name": "rewardPool",
          "type": "uint256"
        },
        {
          "indexed": false,
          "internalType": "uint256",
          "name": "totalVotes",
          "type": "uint256"
        }
      ],
      "name": "Committed",
      "type": "event"
    },
    {
      "anonymous": false,
      "inputs": [
        {
          "indexed": false,
          "internalType": "string",
          "name": "key",
          "type": "string"
        },
        {
          "indexed": false,
          "internalType": "uint256",
          "name": "value",
          "type": "uint256"
        }
      ],
      "name": "ConfigUpdated",
      "type": "event"
    },
    {
      "anonymous": false,
      "inputs": [
        {
          "indexed": true,
          "internalType": "address",
          "name": "oldDelegatee",
          "type": "address"
        },
        {
          "indexed": true,
          "internalType": "address",
          "name": "delegatee",
          "type": "address"
        },
        {
          "indexed": false,
          "internalType": "uint256",
          "name": "votes",
          "type": "uint256"
        }
      ],
      "name": "DelegateUpdated",
      "type": "event"
    },
    {
      "anonymous": false,
      "inputs": [
        {
          "indexed": true,
          "internalType": "address",
          "name": "user",
          "type": "address"
        },
        {
          "indexed": false,
          "internalType": "uint256",
          "name": "oip",
          "type": "uint256"
        }
      ],
      "name": "Executed",
      "type": "event"
    },
    {
      "anonymous": false,
      "inputs": [
        {
          "indexed": true,
          "internalType": "address",
          "name": "proposer",
          "type": "address"
        },
        {
          "indexed": false,
          "internalType": "uint256",
          "name": "oip",
          "type": "uint256"
        },
        {
          "indexed": false,
          "internalType": "string",
          "name": "description",
          "type": "string"
        },
        {
          "indexed": false,
          "internalType": "address[]",
          "name": "targets",
          "type": "address[]"
        },
        {
          "indexed": false,
          "internalType": "uint256[]",
          "name": "value",
          "type": "uint256[]"
        },
        {
          "indexed": false,
          "internalType": "bytes[]",
          "name": "data",
          "type": "bytes[]"
        },
        {
          "indexed": false,
          "internalType": "uint256",
          "name": "start",
          "type": "uint256"
        }
      ],
      "name": "Proposed",
      "type": "event"
    },
    {
      "anonymous": false,
      "inputs": [
        {
          "indexed": false,
          "internalType": "address",
          "name": "tokenOwner",
          "type": "address"
        },
        {
          "indexed": false,
          "internalType": "uint256",
          "name": "tokens",
          "type": "uint256"
        },
        {
          "indexed": false,
          "internalType": "uint256",
          "name": "balance",
          "type": "uint256"
        },
        {
          "indexed": false,
          "internalType": "bytes32",
          "name": "stakingKey",
          "type": "bytes32"
        }
      ],
      "name": "StakeBurnt",
      "type": "event"
    },
    {
      "anonymous": false,
      "inputs": [
        {
          "indexed": false,
          "internalType": "bytes32",
          "name": "stakingKey",
          "type": "bytes32"
        },
        {
          "indexed": false,
          "internalType": "uint256",
          "name": "dataType",
          "type": "uint256"
        },
        {
          "indexed": false,
          "internalType": "address[4]",
          "name": "addresses",
          "type": "address[4]"
        },
        {
          "indexed": false,
          "internalType": "uint256[6]",
          "name": "uints",
          "type": "uint256[6]"
        },
        {
          "indexed": false,
          "internalType": "string",
          "name": "string0",
          "type": "string"
        },
        {
          "indexed": false,
          "internalType": "string",
          "name": "string1",
          "type": "string"
        },
        {
          "indexed": false,
          "internalType": "string",
          "name": "string2",
          "type": "string"
        },
        {
          "indexed": false,
          "internalType": "string",
          "name": "string3",
          "type": "string"
        }
      ],
      "name": "StakeInfoAdded",
      "type": "event"
    },
    {
      "anonymous": false,
      "inputs": [
        {
          "indexed": false,
          "internalType": "address",
          "name": "tokenOwner",
          "type": "address"
        },
        {
          "indexed": false,
          "internalType": "uint256",
          "name": "tokens",
          "type": "uint256"
        },
        {
          "indexed": false,
          "internalType": "uint256",
          "name": "balance",
          "type": "uint256"
        },
        {
          "indexed": false,
          "internalType": "bytes32",
          "name": "stakingKey",
          "type": "bytes32"
        }
      ],
      "name": "Staked",
      "type": "event"
    },
    {
      "anonymous": false,
      "inputs": [
        {
          "indexed": true,
          "internalType": "address",
          "name": "user",
          "type": "address"
        },
        {
          "indexed": false,
          "internalType": "uint256",
          "name": "amount",
          "type": "uint256"
        },
        {
          "indexed": false,
          "internalType": "uint256",
          "name": "balance",
          "type": "uint256"
        },
        {
          "indexed": false,
          "internalType": "uint256",
          "name": "duration",
          "type": "uint256"
        },
        {
          "indexed": false,
          "internalType": "uint256",
          "name": "end",
          "type": "uint256"
        },
        {
          "indexed": false,
          "internalType": "uint256",
          "name": "votes",
          "type": "uint256"
        },
        {
          "indexed": false,
          "internalType": "uint256",
          "name": "rewardPool",
          "type": "uint256"
        },
        {
          "indexed": false,
          "internalType": "uint256",
          "name": "totalVotes",
          "type": "uint256"
        }
      ],
      "name": "Uncommitted",
      "type": "event"
    },
    {
      "anonymous": false,
      "inputs": [
        {
          "indexed": false,
          "internalType": "address",
          "name": "tokenOwner",
          "type": "address"
        },
        {
          "indexed": false,
          "internalType": "uint256",
          "name": "tokens",
          "type": "uint256"
        },
        {
          "indexed": false,
          "internalType": "uint256",
          "name": "balance",
          "type": "uint256"
        },
        {
          "indexed": false,
          "internalType": "bytes32",
          "name": "stakingKey",
          "type": "bytes32"
        }
      ],
      "name": "Unstaked",
      "type": "event"
    },
    {
      "anonymous": false,
      "inputs": [
        {
          "indexed": true,
          "internalType": "address",
          "name": "user",
          "type": "address"
        },
        {
          "indexed": false,
          "internalType": "uint256",
          "name": "oip",
          "type": "uint256"
        },
        {
          "indexed": false,
          "internalType": "bool",
          "name": "voteFor",
          "type": "bool"
        },
        {
          "indexed": false,
          "internalType": "uint256",
          "name": "forVotes",
          "type": "uint256"
        },
        {
          "indexed": false,
          "internalType": "uint256",
          "name": "againstVotes",
          "type": "uint256"
        }
      ],
      "name": "Voted",
      "type": "event"
    },
    {
      "inputs": [
        {
          "internalType": "uint256",
          "name": "tokens",
          "type": "uint256"
        },
        {
          "internalType": "address[4]",
          "name": "addresses",
          "type": "address[4]"
        },
        {
          "internalType": "uint256[6]",
          "name": "uints",
          "type": "uint256[6]"
        },
        {
          "internalType": "string[4]",
          "name": "strings",
          "type": "string[4]"
        }
      ],
      "name": "addStakeForConvention",
      "outputs": [],
      "stateMutability": "nonpayable",
      "type": "function"
    },
    {
      "inputs": [
        {
          "internalType": "uint256",
          "name": "tokens",
          "type": "uint256"
        },
        {
          "internalType": "address",
          "name": "feedAddress",
          "type": "address"
        },
        {
          "internalType": "uint256",
          "name": "feedType",
          "type": "uint256"
        },
        {
          "internalType": "uint256",
          "name": "feedDecimals",
          "type": "uint256"
        },
        {
          "internalType": "string",
          "name": "name",
          "type": "string"
        }
      ],
      "name": "addStakeForFeed",
      "outputs": [],
      "stateMutability": "nonpayable",
      "type": "function"
    },
    {
      "inputs": [
        {
          "internalType": "uint256",
          "name": "tokens",
          "type": "uint256"
        },
        {
          "internalType": "uint256",
          "name": "dataType",
          "type": "uint256"
        },
        {
          "internalType": "address[4]",
          "name": "addresses",
          "type": "address[4]"
        },
        {
          "internalType": "uint256[6]",
          "name": "uints",
          "type": "uint256[6]"
        },
        {
          "internalType": "string[4]",
          "name": "strings",
          "type": "string[4]"
        }
      ],
      "name": "addStakeForGeneral",
      "outputs": [],
      "stateMutability": "nonpayable",
      "type": "function"
    },
    {
      "inputs": [
        {
          "internalType": "uint256",
          "name": "tokens",
          "type": "uint256"
        },
        {
          "internalType": "address",
          "name": "tokenAddress",
          "type": "address"
        },
        {
          "internalType": "string",
          "name": "name",
          "type": "string"
        }
      ],
      "name": "addStakeForToken",
      "outputs": [],
      "stateMutability": "nonpayable",
      "type": "function"
    },
    {
      "inputs": [
        {
          "internalType": "address[]",
          "name": "tokenOwners",
          "type": "address[]"
        },
        {
          "internalType": "bytes32",
          "name": "stakingKey",
          "type": "bytes32"
        },
        {
          "internalType": "uint256",
          "name": "percent",
          "type": "uint256"
        }
      ],
      "name": "burnStake",
      "outputs": [],
      "stateMutability": "nonpayable",
      "type": "function"
    },
    {
      "inputs": [
        {
          "internalType": "bool",
          "name": "commitRewards",
          "type": "bool"
        },
        {
          "internalType": "uint256",
          "name": "duration",
          "type": "uint256"
        }
      ],
      "name": "collectReward",
      "outputs": [],
      "stateMutability": "nonpayable",
      "type": "function"
    },
    {
      "inputs": [
        {
          "internalType": "address",
          "name": "tokenOwner",
          "type": "address"
        }
      ],
      "name": "collectRewardFor",
      "outputs": [],
      "stateMutability": "nonpayable",
      "type": "function"
    },
    {
      "inputs": [],
      "name": "collectRewardForDelay",
      "outputs": [
        {
          "internalType": "uint256",
          "name": "",
          "type": "uint256"
        }
      ],
      "stateMutability": "view",
      "type": "function"
    },
    {
      "inputs": [],
      "name": "collectRewardForFee",
      "outputs": [
        {
          "internalType": "uint256",
          "name": "",
          "type": "uint256"
        }
      ],
      "stateMutability": "view",
      "type": "function"
    },
    {
      "inputs": [
        {
          "internalType": "uint256",
          "name": "tokens",
          "type": "uint256"
        },
        {
          "internalType": "uint256",
          "name": "duration",
          "type": "uint256"
        }
      ],
      "name": "commit",
      "outputs": [],
      "stateMutability": "nonpayable",
      "type": "function"
    },
    {
      "inputs": [
        {
          "internalType": "address",
          "name": "",
          "type": "address"
        }
      ],
      "name": "commitments",
      "outputs": [
        {
          "internalType": "uint64",
          "name": "duration",
          "type": "uint64"
        },
        {
          "internalType": "uint64",
          "name": "end",
          "type": "uint64"
        },
        {
          "internalType": "uint64",
          "name": "lastDelegated",
          "type": "uint64"
        },
        {
          "internalType": "uint64",
          "name": "lastVoted",
          "type": "uint64"
        },
        {
          "internalType": "uint256",
          "name": "tokens",
          "type": "uint256"
        },
        {
          "internalType": "uint256",
          "name": "staked",
          "type": "uint256"
        },
        {
          "internalType": "uint256",
          "name": "votes",
          "type": "uint256"
        },
        {
          "internalType": "uint256",
          "name": "delegatedVotes",
          "type": "uint256"
        },
        {
          "internalType": "address",
          "name": "delegatee",
          "type": "address"
        }
      ],
      "stateMutability": "view",
      "type": "function"
    },
    {
      "inputs": [
        {
          "internalType": "address",
          "name": "delegatee",
          "type": "address"
        }
      ],
      "name": "delegate",
      "outputs": [],
      "stateMutability": "nonpayable",
      "type": "function"
    },
    {
      "inputs": [
        {
          "internalType": "uint256",
          "name": "oip",
          "type": "uint256"
        }
      ],
      "name": "execute",
      "outputs": [],
      "stateMutability": "nonpayable",
      "type": "function"
    },
    {
      "inputs": [],
      "name": "executeDelay",
      "outputs": [
        {
          "internalType": "uint256",
          "name": "",
          "type": "uint256"
        }
      ],
      "stateMutability": "view",
      "type": "function"
    },
    {
      "inputs": [
        {
          "internalType": "bytes32",
          "name": "stakingKey",
          "type": "bytes32"
        }
      ],
      "name": "getStakeInfoByKey",
      "outputs": [
        {
          "internalType": "uint256",
          "name": "dataType",
          "type": "uint256"
        },
        {
          "internalType": "address[4]",
          "name": "addresses",
          "type": "address[4]"
        },
        {
          "internalType": "uint256[6]",
          "name": "uints",
          "type": "uint256[6]"
        },
        {
          "internalType": "string",
          "name": "string0",
          "type": "string"
        },
        {
          "internalType": "string",
          "name": "string1",
          "type": "string"
        },
        {
          "internalType": "string",
          "name": "string2",
          "type": "string"
        },
        {
          "internalType": "string",
          "name": "string3",
          "type": "string"
        }
      ],
      "stateMutability": "view",
      "type": "function"
    },
    {
      "inputs": [
        {
          "internalType": "address",
          "name": "tokenOwner",
          "type": "address"
        },
        {
          "internalType": "bytes32",
          "name": "stakingKey",
          "type": "bytes32"
        }
      ],
      "name": "getStaked",
      "outputs": [
        {
          "internalType": "uint256",
          "name": "_staked",
          "type": "uint256"
        }
      ],
      "stateMutability": "view",
      "type": "function"
    },
    {
      "inputs": [],
      "name": "maxDuration",
      "outputs": [
        {
          "internalType": "uint256",
          "name": "",
          "type": "uint256"
        }
      ],
      "stateMutability": "view",
      "type": "function"
    },
    {
      "inputs": [],
      "name": "ogToken",
      "outputs": [
        {
          "internalType": "contract OGTokenInterface",
          "name": "",
          "type": "address"
        }
      ],
      "stateMutability": "view",
      "type": "function"
    },
    {
      "inputs": [],
      "name": "ogdToken",
      "outputs": [
        {
          "internalType": "contract OGDTokenInterface",
          "name": "",
          "type": "address"
        }
      ],
      "stateMutability": "view",
      "type": "function"
    },
    {
      "inputs": [],
      "name": "proposalCost",
      "outputs": [
        {
          "internalType": "uint256",
          "name": "",
          "type": "uint256"
        }
      ],
      "stateMutability": "view",
      "type": "function"
    },
    {
      "inputs": [],
      "name": "proposalCount",
      "outputs": [
        {
          "internalType": "uint256",
          "name": "",
          "type": "uint256"
        }
      ],
      "stateMutability": "view",
      "type": "function"
    },
    {
      "inputs": [],
      "name": "proposalThreshold",
      "outputs": [
        {
          "internalType": "uint256",
          "name": "",
          "type": "uint256"
        }
      ],
      "stateMutability": "view",
      "type": "function"
    },
    {
      "inputs": [
        {
          "internalType": "uint256",
          "name": "",
          "type": "uint256"
        }
      ],
      "name": "proposals",
      "outputs": [
        {
          "internalType": "uint256",
          "name": "start",
          "type": "uint256"
        },
        {
          "internalType": "address",
          "name": "proposer",
          "type": "address"
        },
        {
          "internalType": "string",
          "name": "description",
          "type": "string"
        },
        {
          "internalType": "uint256",
          "name": "forVotes",
          "type": "uint256"
        },
        {
          "internalType": "uint256",
          "name": "againstVotes",
          "type": "uint256"
        },
        {
          "internalType": "bool",
          "name": "executed",
          "type": "bool"
        }
      ],
      "stateMutability": "view",
      "type": "function"
    },
    {
      "inputs": [
        {
          "internalType": "string",
          "name": "description",
          "type": "string"
        },
        {
          "internalType": "address[]",
          "name": "targets",
          "type": "address[]"
        },
        {
          "internalType": "uint256[]",
          "name": "values",
          "type": "uint256[]"
        },
        {
          "internalType": "bytes[]",
          "name": "data",
          "type": "bytes[]"
        }
      ],
      "name": "propose",
      "outputs": [
        {
          "internalType": "uint256",
          "name": "",
          "type": "uint256"
        }
      ],
      "stateMutability": "nonpayable",
      "type": "function"
    },
    {
      "inputs": [],
      "name": "quorum",
      "outputs": [
        {
          "internalType": "uint256",
          "name": "",
          "type": "uint256"
        }
      ],
      "stateMutability": "view",
      "type": "function"
    },
    {
      "inputs": [],
      "name": "quorumDecayPerSecond",
      "outputs": [
        {
          "internalType": "uint256",
          "name": "",
          "type": "uint256"
        }
      ],
      "stateMutability": "view",
      "type": "function"
    },
    {
      "inputs": [],
      "name": "rewardPool",
      "outputs": [
        {
          "internalType": "uint256",
          "name": "",
          "type": "uint256"
        }
      ],
      "stateMutability": "view",
      "type": "function"
    },
    {
      "inputs": [],
      "name": "rewardsPerSecond",
      "outputs": [
        {
          "internalType": "uint256",
          "name": "",
          "type": "uint256"
        }
      ],
      "stateMutability": "view",
      "type": "function"
    },
    {
      "inputs": [
        {
          "internalType": "string",
          "name": "key",
          "type": "string"
        },
        {
          "internalType": "uint256",
          "name": "value",
          "type": "uint256"
        }
      ],
      "name": "setConfig",
      "outputs": [],
      "stateMutability": "nonpayable",
      "type": "function"
    },
    {
      "inputs": [
        {
          "internalType": "bytes32",
          "name": "",
          "type": "bytes32"
        }
      ],
      "name": "stakeInfoData",
      "outputs": [
        {
          "internalType": "uint256",
          "name": "dataType",
          "type": "uint256"
        },
        {
          "internalType": "string",
          "name": "string0",
          "type": "string"
        },
        {
          "internalType": "string",
          "name": "string1",
          "type": "string"
        },
        {
          "internalType": "string",
          "name": "string2",
          "type": "string"
        },
        {
          "internalType": "string",
          "name": "string3",
          "type": "string"
        }
      ],
      "stateMutability": "view",
      "type": "function"
    },
    {
      "inputs": [
        {
          "internalType": "uint256",
          "name": "",
          "type": "uint256"
        }
      ],
      "name": "stakeInfoIndex",
      "outputs": [
        {
          "internalType": "bytes32",
          "name": "",
          "type": "bytes32"
        }
      ],
      "stateMutability": "view",
      "type": "function"
    },
    {
      "inputs": [],
      "name": "stakeInfoLength",
      "outputs": [
        {
          "internalType": "uint256",
          "name": "_stakeInfoLength",
          "type": "uint256"
        }
      ],
      "stateMutability": "view",
      "type": "function"
    },
    {
      "inputs": [
        {
          "internalType": "uint256",
          "name": "tokens",
          "type": "uint256"
        },
        {
          "internalType": "address[4]",
          "name": "addresses",
          "type": "address[4]"
        },
        {
          "internalType": "uint256[6]",
          "name": "uints",
          "type": "uint256[6]"
        },
        {
          "internalType": "string[4]",
          "name": "strings",
          "type": "string[4]"
        }
      ],
      "name": "subStakeForConvention",
      "outputs": [],
      "stateMutability": "nonpayable",
      "type": "function"
    },
    {
      "inputs": [
        {
          "internalType": "uint256",
          "name": "tokens",
          "type": "uint256"
        },
        {
          "internalType": "address",
          "name": "feedAddress",
          "type": "address"
        },
        {
          "internalType": "uint256",
          "name": "feedType",
          "type": "uint256"
        },
        {
          "internalType": "uint256",
          "name": "feedDecimals",
          "type": "uint256"
        },
        {
          "internalType": "string",
          "name": "name",
          "type": "string"
        }
      ],
      "name": "subStakeForFeed",
      "outputs": [],
      "stateMutability": "nonpayable",
      "type": "function"
    },
    {
      "inputs": [
        {
          "internalType": "uint256",
          "name": "tokens",
          "type": "uint256"
        },
        {
          "internalType": "uint256",
          "name": "dataType",
          "type": "uint256"
        },
        {
          "internalType": "address[4]",
          "name": "addresses",
          "type": "address[4]"
        },
        {
          "internalType": "uint256[6]",
          "name": "uints",
          "type": "uint256[6]"
        },
        {
          "internalType": "string[4]",
          "name": "strings",
          "type": "string[4]"
        }
      ],
      "name": "subStakeForGeneral",
      "outputs": [],
      "stateMutability": "nonpayable",
      "type": "function"
    },
    {
      "inputs": [
        {
          "internalType": "uint256",
          "name": "tokens",
          "type": "uint256"
        },
        {
          "internalType": "address",
          "name": "tokenAddress",
          "type": "address"
        },
        {
          "internalType": "string",
          "name": "name",
          "type": "string"
        }
      ],
      "name": "subStakeForToken",
      "outputs": [],
      "stateMutability": "nonpayable",
      "type": "function"
    },
    {
      "inputs": [],
      "name": "totalVotes",
      "outputs": [
        {
          "internalType": "uint256",
          "name": "",
          "type": "uint256"
        }
      ],
      "stateMutability": "view",
      "type": "function"
    },
    {
      "inputs": [],
      "name": "uncommit",
      "outputs": [],
      "stateMutability": "nonpayable",
      "type": "function"
    },
    {
      "inputs": [
        {
          "internalType": "uint256",
          "name": "oip",
          "type": "uint256"
        },
        {
          "internalType": "bool",
          "name": "voteFor",
          "type": "bool"
        }
      ],
      "name": "vote",
      "outputs": [],
      "stateMutability": "nonpayable",
      "type": "function"
    },
    {
      "inputs": [
        {
          "internalType": "bytes32[]",
          "name": "signatures",
          "type": "bytes32[]"
        }
      ],
      "name": "voteWithSignatures",
      "outputs": [],
      "stateMutability": "nonpayable",
      "type": "function"
    },
    {
      "inputs": [],
      "name": "votingDuration",
      "outputs": [
        {
          "internalType": "uint256",
          "name": "",
          "type": "uint256"
        }
      ],
      "stateMutability": "view",
      "type": "function"
    },
    {
      "stateMutability": "payable",
      "type": "receive"
    }
  ],
  "bytecode": "0x6080604052612710600255670214e8348c4f000060035566b1a2bc2ec50000600455600160055568056bc75e2d6310000060065566038d7ea4c680006007556702c68af0bb1400006008556402f40535f9600955600a808055600b5569d3c21bcecceda1000000600c553480156200007657600080fd5b50604051620057ee380380620057ee8339810160408190526200009991620000cb565b600080546001600160a01b039384166001600160a01b0319918216179091556001805492909316911617905562000122565b60008060408385031215620000de578182fd5b8251620000eb8162000109565b6020840151909250620000fe8162000109565b809150509250929050565b6001600160a01b03811681146200011f57600080fd5b50565b6156bc80620001326000396000f3fe60806040526004361061024a5760003560e01c80636db5c8fd11610139578063c64485bb116100b6578063df7d5d101161007a578063df7d5d101461066c578063e664f3b21461068c578063e8fcf723146106a1578063eacdaabc146106d6578063ec7d0383146106eb578063fe0d94c11461070b57610251565b8063c64485bb146105cf578063c9d27afe14610602578063cc3fd20b14610622578063da35c66414610637578063dc2cabc61461064c57610251565b806397309ce0116100fd57806397309ce014610545578063ad72ed7814610565578063b58131b014610585578063b69b2a651461059a578063c0db96dd146105af57610251565b80636db5c8fd146104c457806373502e31146104d957806385c5cbef146104f9578063876cdb2f1461051b578063966f2df11461053057610251565b80633c85e451116101c75780635c19a95c1161018b5780635c19a95c146104455780635f0a08a71461046557806360293e491461047a57806366666aa91461048f57806368d7cc6a146104a457610251565b80633c85e451146103b05780633e8f5b90146103c557806354120be6146103e5578063555b1791146104055780635bf56bc41461042557610251565b80631703a0181161020e5780631703a0181461030a578063233e72ca1461031f578063290e67351461033f5780632c6e2fa31461035f5780632d8279f81461039057610251565b8063013cf08b146102565780630871ff6c146102915780630d15fd77146102b35780631010937c146102d5578063132002fc146102f557610251565b3661025157005b600080fd5b34801561026257600080fd5b5061027661027136600461444d565b61072b565b604051610288969594939291906152b4565b60405180910390f35b34801561029d57600080fd5b506102b16102ac3660046143d5565b6107f8565b005b3480156102bf57600080fd5b506102c86107fc565b6040516102889190614bcd565b3480156102e157600080fd5b506102b16102f0366004614430565b610802565b34801561030157600080fd5b506102c861080d565b34801561031657600080fd5b506102c8610813565b34801561032b57600080fd5b506102b161033a366004614774565b610819565b34801561034b57600080fd5b506102b161035a366004614658565b610872565b34801561036b57600080fd5b5061037f61037a36600461444d565b6108b8565b60405161028895949392919061543a565b34801561039c57600080fd5b506102b16103ab366004614774565b610b10565b3480156103bc57600080fd5b506102b1610fea565b3480156103d157600080fd5b506102b16103e0366004614569565b611310565b3480156103f157600080fd5b506102b1610400366004614658565b611602565b34801561041157600080fd5b506102b16104203660046146c7565b611bbf565b34801561043157600080fd5b506102b1610440366004614753565b611c15565b34801561045157600080fd5b506102b161046036600461433b565b6120c4565b34801561047157600080fd5b506102c861225c565b34801561048657600080fd5b506102c8612262565b34801561049b57600080fd5b506102c8612268565b3480156104b057600080fd5b506102b16104bf366004614387565b61226e565b3480156104d057600080fd5b506102c86122d5565b3480156104e557600080fd5b506102b16104f43660046145ab565b6122db565b34801561050557600080fd5b5061050e6122f2565b6040516102889190614d76565b34801561052757600080fd5b506102c8612301565b34801561053c57600080fd5b506102c8612307565b34801561055157600080fd5b506102b1610560366004614603565b61230d565b34801561057157600080fd5b506102c8610580366004614465565b61283f565b34801561059157600080fd5b506102c861293f565b3480156105a657600080fd5b5061050e612945565b3480156105bb57600080fd5b506102c86105ca36600461435d565b612954565b3480156105db57600080fd5b506105ef6105ea36600461444d565b61296b565b60405161028897969594939291906152fe565b34801561060e57600080fd5b506102b161061d366004614724565b612cb9565b34801561062e57600080fd5b506102c8612eb0565b34801561064357600080fd5b506102c8612eb6565b34801561065857600080fd5b506102c861066736600461444d565b612ebc565b34801561067857600080fd5b506102b161068736600461433b565b612eda565b34801561069857600080fd5b506102c8612ee9565b3480156106ad57600080fd5b506106c16106bc36600461433b565b612eef565b60405161028899989796959493929190615554565b3480156106e257600080fd5b506102c8612f55565b3480156106f757600080fd5b506102b16107063660046146c7565b612f5b565b34801561071757600080fd5b506102b161072636600461444d565b613435565b60136020908152600091825260409182902080546001808301546002808501805488516101009582161595909502600019011691909104601f810187900487028401870190975286835292956001600160a01b03909116949192918301828280156107d75780601f106107ac576101008083540402835291602001916107d7565b820191906000526020600020905b8154815290600101906020018083116107ba57829003601f168201915b5050505060078301546008840154600a909401549293909290915060ff1686565b5050565b600d5481565b6107f833838361357c565b600a5481565b60085481565b805160208083015160408085015160608601519151600095610848958a958c958b959394919392909101614a81565b60405160208183030381529060405280519060200120905061086a8682613baf565b505050505050565b6000858585858560405160200161088d9594939291906149d0565b6040516020818303038152906040528051906020012090506108af8782613baf565b50505050505050565b6010602090815260009182526040918290208054600b820180548551601f60026000196101006001861615020190931692909204918201869004860281018601909652808652919492939091908301828280156109565780601f1061092b57610100808354040283529160200191610956565b820191906000526020600020905b81548152906001019060200180831161093957829003601f168201915b50505050600c8301805460408051602060026001851615610100026000190190941693909304601f81018490048402820184019092528181529495949350908301828280156109e65780601f106109bb576101008083540402835291602001916109e6565b820191906000526020600020905b8154815290600101906020018083116109c957829003601f168201915b50505050600d8301805460408051602060026001851615610100026000190190941693909304601f8101849004840282018401909252818152949594935090830182828015610a765780601f10610a4b57610100808354040283529160200191610a76565b820191906000526020600020905b815481529060010190602001808311610a5957829003601f168201915b50505050600e8301805460408051602060026001851615610100026000190190941693909304601f8101849004840282018401909252818152949594935090830182828015610b065780601f10610adb57610100808354040283529160200191610b06565b820191906000526020600020905b815481529060010190602001808311610ae957829003601f168201915b5050505050905085565b805160208083015160408085015160608601519151600095610b3f958a958c958b959394919392909101614a81565b604051602081830303815290604052805190602001209050610b5f613d71565b600082815260106020908152604091829020825160e081018452815481528351608081019485905290939192840191600184019060049082845b81546001600160a01b03168152600190910190602001808311610b995750505091835250506040805160c081019182905260209092019190600584019060069082845b815481526020019060010190808311610bdc575050509183525050600b8201805460408051602060026001851615610100026000190190941693909304601f8101849004840282018401909252818152938201939291830182828015610c835780601f10610c5857610100808354040283529160200191610c83565b820191906000526020600020905b815481529060010190602001808311610c6657829003601f168201915b5050509183525050600c8201805460408051602060026001851615610100026000190190941693909304601f8101849004840282018401909252818152938201939291830182828015610d175780601f10610cec57610100808354040283529160200191610d17565b820191906000526020600020905b815481529060010190602001808311610cfa57829003601f168201915b5050509183525050600d8201805460408051602060026001851615610100026000190190941693909304601f8101849004840282018401909252818152938201939291830182828015610dab5780601f10610d8057610100808354040283529160200191610dab565b820191906000526020600020905b815481529060010190602001808311610d8e57829003601f168201915b5050509183525050600e8201805460408051602060026001851615610100026000190190941693909304601f8101849004840282018401909252818152938201939291830182828015610e3f5780601f10610e1457610100808354040283529160200191610e3f565b820191906000526020600020905b815481529060010190602001808311610e2257829003601f168201915b505050919092525050815191925050610fe0576040518060e0016040528087815260200186815260200185815260200184600060048110610e7c57fe5b6020020151815260200184600160048110610e9357fe5b6020020151815260200184600260048110610eaa57fe5b6020020151815260200184600360048110610ec157fe5b60209081029190910151909152600084815260108252604090208251815590820151610ef39060018301906004613dba565b506040820151610f099060058301906006613e12565b5060608201518051610f2591600b840191602090910190613e4c565b5060808201518051610f4191600c840191602090910190613e4c565b5060a08201518051610f5d91600d840191602090910190613e4c565b5060c08201518051610f7991600e840191602090910190613e4c565b5050601180546001810182556000919091526000805160206156478339815191520183905550825160208401516040808601516060870151915160008051602061566783398151915294610fd79488948d948d948d94939290614ced565b60405180910390a15b6108af8783613bf8565b336000908152600e6020526040902060018101548061100857600080fd5b8154600160401b90046001600160401b031642116110415760405162461bcd60e51b815260040161103890615046565b60405180910390fd5b815460009061106d90611066906001600160401b03600160401b820481169116613c61565b4290613c61565b905060006110a0600d5461109a866003015461109460035487613c8990919063ffffffff16565b90613c89565b90613cc3565b9050600c548111156110b15750600c545b80156110c857600c546110c49082613c61565b600c555b6003840154600d546110d991613c61565b600d5560058401546001600160a01b03161561113e57600384015460058501546001600160a01b03166000908152600e602052604090206004015461111d91613c61565b60058501546001600160a01b03166000908152600e60205260409020600401555b6000600385018190556001808601805492905585546fffffffffffffffffffffffffffffffff19168655546040516323b872dd60e01b81526001600160a01b03909116906323b872dd9061119a90339030908690600401614b90565b602060405180830381600087803b1580156111b457600080fd5b505af11580156111c8573d6000803e3d6000fd5b505050506040513d601f19601f820116820180604052508101906111ec9190614414565b6112085760405162461bcd60e51b815260040161103890614f54565b600154604051633f34d4cf60e21b81526001600160a01b039091169063fcd3533c9061123a908490339060040161529d565b602060405180830381600087803b15801561125457600080fd5b505af1158015611268573d6000803e3d6000fd5b505050506040513d601f19601f8201168201806040525081019061128c9190614414565b6112a85760405162461bcd60e51b81526004016110389061523f565b84546003860154600c54600d5460405133947f4d5640d05655b64a4c178e81bc2bf4c70b0cc986c09f224dfb08d81f31a7228e946113019488948c946001600160401b0380861695600160401b90041693929190615518565b60405180910390a25050505050565b33301461132f5760405162461bcd60e51b8152600401611038906150d1565b61135c826040518060400160405280600b81526020016a36b0bc223ab930ba34b7b760a91b815250613cf5565b1561136b5760028190556115c5565b6113a08260405180604001604052806013815260200172636f6c6c656374526577617264466f7246656560681b815250613cf5565b156113af5760048190556115c5565b6113e68260405180604001604052806015815260200174636f6c6c656374526577617264466f7244656c617960581b815250613cf5565b156113f55760058190556115c5565b611427826040518060400160405280601081526020016f1c995dd85c991cd4195c94d958dbdb9960821b815250613cf5565b156114365760038190556115c5565b611464826040518060400160405280600c81526020016b1c1c9bdc1bdcd85b10dbdcdd60a21b815250613cf5565b156114735760068190556115c5565b6114a682604051806040016040528060118152602001701c1c9bdc1bdcd85b151a1c995cda1bdb19607a1b815250613cf5565b156114b55760078190556115c5565b6114dd826040518060400160405280600681526020016571756f72756d60d01b815250613cf5565b156114ec5760088190556115c5565b61152282604051806040016040528060148152602001731c5d5bdc9d5b511958d85e54195c94d958dbdb9960621b815250613cf5565b156115315760098190556115c5565b611561826040518060400160405280600e81526020016d3b37ba34b733a23ab930ba34b7b760911b815250613cf5565b1561157057600a8190556115c5565b61159e826040518060400160405280600c81526020016b6578656375746544656c617960a01b815250613cf5565b156115ad57600b8190556115c5565b60405162461bcd60e51b815260040161103890614dac565b7f12c9dccd129ff783f1c8228eacdfa8e334ddecb7ec5c9a79ec662a4aed3d012a82826040516115f6929190614d8a565b60405180910390a15050565b6000858585858560405160200161161d9594939291906149d0565b60405160208183030381529060405280519060200120905061163d613d71565b600082815260106020908152604091829020825160e081018452815481528351608081019485905290939192840191600184019060049082845b81546001600160a01b031681526001909101906020018083116116775750505091835250506040805160c081019182905260209092019190600584019060069082845b8154815260200190600101908083116116ba575050509183525050600b8201805460408051602060026001851615610100026000190190941693909304601f81018490048402820184019092528181529382019392918301828280156117615780601f1061173657610100808354040283529160200191611761565b820191906000526020600020905b81548152906001019060200180831161174457829003601f168201915b5050509183525050600c8201805460408051602060026001851615610100026000190190941693909304601f81018490048402820184019092528181529382019392918301828280156117f55780601f106117ca576101008083540402835291602001916117f5565b820191906000526020600020905b8154815290600101906020018083116117d857829003601f168201915b5050509183525050600d8201805460408051602060026001851615610100026000190190941693909304601f81018490048402820184019092528181529382019392918301828280156118895780601f1061185e57610100808354040283529160200191611889565b820191906000526020600020905b81548152906001019060200180831161186c57829003601f168201915b5050509183525050600e8201805460408051602060026001851615610100026000190190941693909304601f810184900484028201840190925281815293820193929183018282801561191d5780601f106118f25761010080835404028352916020019161191d565b820191906000526020600020905b81548152906001019060200180831161190057829003601f168201915b505050919092525050815191925050611bab576040518060e001604052806002815260200160405180608001604052808a6001600160a01b03166001600160a01b0316815260200160006001600160a01b03166001600160a01b0316815260200160006001600160a01b03166001600160a01b0316815260200160006001600160a01b03166001600160a01b031681525081526020016040518060c001604052808981526020018881526020016000815260200160008152602001600081526020016000815250815260200185858080601f01602080910402602001604051908101604052809392919081815260200183838082843760009201829052509385525050604080516020818101835284825280860191909152815180820183528481528286015281518082018352848152606090950194909452868352601084529091208351815591830151611a79915060018301906004613dba565b506040820151611a8f9060058301906006613e12565b5060608201518051611aab91600b840191602090910190613e4c565b5060808201518051611ac791600c840191602090910190613e4c565b5060a08201518051611ae391600d840191602090910190613e4c565b5060c08201518051611aff91600e840191602090910190613e4c565b50506011805460018101825560009182526000805160206156478339815191520184905560408051608080820183526001600160a01b038c16825260208281018590528284018590526060808401869052845160c0810186528d81529182018c9052818501869052810185905290810184905260a081019390935290516000805160206156678339815191529350611ba29286926002929091908a908a90614c52565b60405180910390a15b611bb58883613bf8565b5050505050505050565b805160208083015160408085015160608601519151600095611bec958a958a959294909390929101614a05565b604051602081830303815290604052805190602001209050611c0e8582613baf565b5050505050565b600254811115611c375760405162461bcd60e51b8152600401611038906151bc565b336000908152600e602052604081206003810154600182015491929115611d65578254600160401b90046001600160401b03164285011015611c8b5760405162461bcd60e51b815260040161103890614dd1565b8254600090611cb090611066906001600160401b03600160401b820481169116613c61565b9050611cd5600d5461109a866003015461109460035486613c8990919063ffffffff16565b9250600c54831115611ce757600c5492505b600c54611cf49084613c61565b600c556001840154611d069084613d4e565b6001850155600c54845460405133927f4f2f44b0dc1dff77d9cb13d49111cf708a0f4655a4f561b4062fb6ca74ddbae492611d5b92869289926000926001600160401b03600160401b83048116921690615499565b60405180910390a2505b6000546040516323b872dd60e01b81526001600160a01b03909116906323b872dd90611d9990339030908a90600401614b90565b602060405180830381600087803b158015611db357600080fd5b505af1158015611dc7573d6000803e3d6000fd5b505050506040513d601f19601f82011682018060405250810190611deb9190614414565b611e075760405162461bcd60e51b81526004016110389061520f565b6001830154611e169086613d4e565b6001840155825467ffffffffffffffff19166001600160401b038516178355611e3f4285613d4e565b83546001600160401b0391909116600160401b0267ffffffffffffffff60401b199091161783556001830154611e7d906127109061109a9087613c89565b60038401819055600d54611e9c9190611e969084613c61565b90613d4e565b600d5560058301546001600160a01b031615611f0757600383015460058401546001600160a01b03166000908152600e6020526040902060040154611ee69190611e969084613c61565b60058401546001600160a01b03166000908152600e60205260409020600401555b8115611fad576000546040516340c10f1960e01b81526001600160a01b03909116906340c10f1990611f3f9030908690600401614bb4565b602060405180830381600087803b158015611f5957600080fd5b505af1158015611f6d573d6000803e3d6000fd5b505050506040513d601f19601f82011682018060405250810190611f919190614414565b611fad5760405162461bcd60e51b815260040161103890614f81565b6001546001600160a01b03166340c10f1933611fc98886613d4e565b6040518363ffffffff1660e01b8152600401611fe6929190614bb4565b602060405180830381600087803b15801561200057600080fd5b505af1158015612014573d6000803e3d6000fd5b505050506040513d601f19601f820116820180604052508101906120389190614414565b6120545760405162461bcd60e51b815260040161103890614e31565b6001830154835460058501546003860154600c54600d5460405133967fd9d33ad13048a93ae5ea549a63792a10cde0b555cdf204e3671c007308cbdbc996611301968e9692956001600160401b0380841696600160401b90940416946001600160a01b03909216939290916154cd565b336000908152600e60205260409020600a54815442600160c01b9091046001600160401b03169091011061210a5760405162461bcd60e51b815260040161103890614eec565b60058101546001600160a01b0316801561216d57600382015460058301546001600160a01b03166000908152600e602052604090206004015461214c91613c61565b60058301546001600160a01b03166000908152600e60205260409020600401555b6005820180546001600160a01b0319166001600160a01b038581169190911791829055835467ffffffffffffffff60801b1916600160801b426001600160401b031602178455161561220857600382015460058301546001600160a01b03166000908152600e60205260409020600401546121e791613d4e565b60058301546001600160a01b03166000908152600e60205260409020600401555b826001600160a01b0316816001600160a01b03167fe46208ae3c8157621e96e03a67b3fc7b61b734022b04cf097b94dd994dd95b43846003015460405161224f9190614bcd565b60405180910390a3505050565b60095481565b60045481565b600c5481565b33301461228d5760405162461bcd60e51b8152600401611038906150d1565b60005b83811015611c0e5760008585838181106122a657fe5b90506020020160208101906122bb919061433b565b6001600160a01b031660005250600e602052600101612290565b60025481565b6000838383604051602001611bec93929190614976565b6001546001600160a01b031681565b600b5481565b60115490565b6000828260405160200161232292919061499d565b604051602081830303815290604052805190602001209050612342613d71565b600082815260106020908152604091829020825160e081018452815481528351608081019485905290939192840191600184019060049082845b81546001600160a01b0316815260019091019060200180831161237c5750505091835250506040805160c081019182905260209092019190600584019060069082845b8154815260200190600101908083116123bf575050509183525050600b8201805460408051602060026001851615610100026000190190941693909304601f81018490048402820184019092528181529382019392918301828280156124665780601f1061243b57610100808354040283529160200191612466565b820191906000526020600020905b81548152906001019060200180831161244957829003601f168201915b5050509183525050600c8201805460408051602060026001851615610100026000190190941693909304601f81018490048402820184019092528181529382019392918301828280156124fa5780601f106124cf576101008083540402835291602001916124fa565b820191906000526020600020905b8154815290600101906020018083116124dd57829003601f168201915b5050509183525050600d8201805460408051602060026001851615610100026000190190941693909304601f810184900484028201840190925281815293820193929183018282801561258e5780601f106125635761010080835404028352916020019161258e565b820191906000526020600020905b81548152906001019060200180831161257157829003601f168201915b5050509183525050600e8201805460408051602060026001851615610100026000190190941693909304601f81018490048402820184019092528181529382019392918301828280156126225780601f106125f757610100808354040283529160200191612622565b820191906000526020600020905b81548152906001019060200180831161260557829003601f168201915b505050919092525050815191925050612835576040805160e08101825260018082528251608080820185526001600160a01b0389168252600060208381018290528387018290526060808501839052818701948552875160c08082018a52848252818401859052818a0185905281830185905281860185905260a0808301869052898b01929092529188018c905288518084018a528481529488019490945287518083018952838152938701939093528651808201885282815292860192909252878152601090915293909320825181559251919291612706918301906004613dba565b50604082015161271c9060058301906006613e12565b506060820151805161273891600b840191602090910190613e4c565b506080820151805161275491600c840191602090910190613e4c565b5060a0820151805161277091600d840191602090910190613e4c565b5060c0820151805161278c91600e840191602090910190613e4c565b50506011805460018181018355600092835260008051602061564783398151915290910185905560408051608080820183526001600160a01b038a16825260208281018690528284018690526060808401879052845160c081018652878152918201879052818501879052810186905290810185905260a08101949094529051600080516020615667833981519152945061282c93879392918990614bd6565b60405180910390a15b611c0e8583613bf8565b601280546001908101918290556000918252601360209081526040832042815591820180546001600160a01b03191633179055865161288691600284019190890190613e4c565b50845161289c9060038301906020880190613eb9565b5083516128b29060048301906020870190613f0d565b5082516128c89060068301906020860190613f47565b506000600782018190556008820155600a8101805460ff1916905560125460405133917f04faf5b3ca7bcc5ec586570e57897bb702ddec5bbe89dac520370b1a2713e6109161292a91908a90600387019060048801906006890190429061539b565b60405180910390a25050601254949350505050565b60075481565b6000546001600160a01b031681565b506001600160a01b03166000908152600e60205290565b6000612975613fa0565b61297d613fbe565b60608060608061298b613d71565b600089815260106020908152604091829020825160e081018452815481528351608081019485905290939192840191600184019060049082845b81546001600160a01b031681526001909101906020018083116129c55750505091835250506040805160c081019182905260209092019190600584019060069082845b815481526020019060010190808311612a08575050509183525050600b8201805460408051602060026001851615610100026000190190941693909304601f8101849004840282018401909252818152938201939291830182828015612aaf5780601f10612a8457610100808354040283529160200191612aaf565b820191906000526020600020905b815481529060010190602001808311612a9257829003601f168201915b5050509183525050600c8201805460408051602060026001851615610100026000190190941693909304601f8101849004840282018401909252818152938201939291830182828015612b435780601f10612b1857610100808354040283529160200191612b43565b820191906000526020600020905b815481529060010190602001808311612b2657829003601f168201915b5050509183525050600d8201805460408051602060026001851615610100026000190190941693909304601f8101849004840282018401909252818152938201939291830182828015612bd75780601f10612bac57610100808354040283529160200191612bd7565b820191906000526020600020905b815481529060010190602001808311612bba57829003601f168201915b5050509183525050600e8201805460408051602060026001851615610100026000190190941693909304601f8101849004840282018401909252818152938201939291830182828015612c6b5780601f10612c4057610100808354040283529160200191612c6b565b820191906000526020600020905b815481529060010190602001808311612c4e57829003601f168201915b5050505050815250509050806000015181602001518260400151809850819950829a5050505080606001519450806080015193508060a0015192508060c00151915050919395979092949650565b6000828152601360205260409020548015801590612ce35750600a54612ce0908290613d4e565b42105b612cff5760405162461bcd60e51b815260040161103890614f2d565b600a54336000908152600e602052604090205442600160801b9091046001600160401b031690910110612d445760405162461bcd60e51b815260040161103890614fb0565b600083815260136020908152604080832033845260090190915290205460ff1615612d815760405162461bcd60e51b815260040161103890614ec5565b8115612dcc57336000908152600e6020908152604080832060030154868452601390925290912060070154612db591613d4e565b600084815260136020526040902060070155612e0d565b336000908152600e6020908152604080832060030154868452601390925290912060070154612dfa91613d4e565b6000848152601360205260409020600801555b600083815260136020818152604080842033808652600982018452828620805460ff19166001179055600e845282862080546001600160401b034216600160c01b026001600160c01b039091161790559488905292909152600782015460089092015490517ffb5e6530ad35593dae2428d2c9931d35a61042367a12ca10742a80fcbb272f7392612ea392889288929190615380565b60405180910390a2505050565b60055481565b60125481565b60118181548110612ec957fe5b600091825260209091200154905081565b612ee68160008061357c565b50565b60065481565b600e602052600090815260409020805460018201546002830154600384015460048501546005909501546001600160401b0380861696600160401b8704821696600160801b8104831696600160c01b90910490921694919391926001600160a01b031689565b60035481565b805160208083015160408085015160608601519151600095612f88958a958a959294909390929101614a05565b604051602081830303815290604052805190602001209050612fa8613d71565b600082815260106020908152604091829020825160e081018452815481528351608081019485905290939192840191600184019060049082845b81546001600160a01b03168152600190910190602001808311612fe25750505091835250506040805160c081019182905260209092019190600584019060069082845b815481526020019060010190808311613025575050509183525050600b8201805460408051602060026001851615610100026000190190941693909304601f81018490048402820184019092528181529382019392918301828280156130cc5780601f106130a1576101008083540402835291602001916130cc565b820191906000526020600020905b8154815290600101906020018083116130af57829003601f168201915b5050509183525050600c8201805460408051602060026001851615610100026000190190941693909304601f81018490048402820184019092528181529382019392918301828280156131605780601f1061313557610100808354040283529160200191613160565b820191906000526020600020905b81548152906001019060200180831161314357829003601f168201915b5050509183525050600d8201805460408051602060026001851615610100026000190190941693909304601f81018490048402820184019092528181529382019392918301828280156131f45780601f106131c9576101008083540402835291602001916131f4565b820191906000526020600020905b8154815290600101906020018083116131d757829003601f168201915b5050509183525050600e8201805460408051602060026001851615610100026000190190941693909304601f81018490048402820184019092528181529382019392918301828280156132885780601f1061325d57610100808354040283529160200191613288565b820191906000526020600020905b81548152906001019060200180831161326b57829003601f168201915b50505091909252505081519192505061342b576040518060e0016040528060038152602001868152602001858152602001846000600481106132c657fe5b60200201518152602001846001600481106132dd57fe5b60200201518152602001846002600481106132f457fe5b602002015181526020018460036004811061330b57fe5b6020908102919091015190915260008481526010825260409020825181559082015161333d9060018301906004613dba565b5060408201516133539060058301906006613e12565b506060820151805161336f91600b840191602090910190613e4c565b506080820151805161338b91600c840191602090910190613e4c565b5060a082015180516133a791600d840191602090910190613e4c565b5060c082015180516133c391600e840191602090910190613e4c565b50506011805460018101825560009190915260008051602061564783398151915201839055508251602084015160408086015160608701519151600080516020615667833981519152946134229488946003948d948d94939290614ced565b60405180910390a15b61086a8683613bf8565b6000818152601360205260408120600a8101805460ff19166001179055905b600382015481101561353657600082600301828154811061347157fe5b6000918252602090912001546004840180546001600160a01b03909216918490811061349957fe5b90600052602060002001548460060184815481106134b357fe5b906000526020600020016040516134ca9190614b04565b60006040518083038185875af1925050503d8060008114613507576040519150601f19603f3d011682016040523d82523d6000602084013e61350c565b606091505b505090508061352d5760405162461bcd60e51b815260040161103890614e74565b50600101613454565b50336001600160a01b03167f6f6c6d78a4851d4c222c8404fc92372ee84b7b81054305ae8ea3c83c2dabd42e836040516135709190614bcd565b60405180910390a25050565b6001600160a01b0383166000908152600e6020526040902060018101546135a257600080fd5b80546000906135c790611066906001600160401b03600160401b820481169116613c61565b905060006135ee600d5461109a856003015461109460035487613c8990919063ffffffff16565b90506000600c5482111561360257600c5491505b8115613b4f57600c546136159083613c61565b600c55336001600160a01b0388161461368f57600554845442600160401b9091046001600160401b03169091011061365f5760405162461bcd60e51b815260040161103890615185565b613680670de0b6b3a764000061109a60045485613c8990919063ffffffff16565b905061368c8282613c61565b91505b600384015486156139085760018501546136a99084613d4e565b6001860155845442600160401b9091046001600160401b031610156136ec57845467ffffffffffffffff60401b1916600160401b426001600160401b0316021785555b8515613764576002548611156137145760405162461bcd60e51b8152600401611038906151bc565b845467ffffffffffffffff19166001600160401b0387161785556137384287613d4e565b85546001600160401b0391909116600160401b0267ffffffffffffffff60401b1990911617855561379d565b845461378090600160401b90046001600160401b031642613c61565b855467ffffffffffffffff19166001600160401b03919091161785555b845460018601546137be916127109161109a916001600160401b0316613c89565b60038601556000546040516340c10f1960e01b81526001600160a01b03909116906340c10f19906137f59030908790600401614bb4565b602060405180830381600087803b15801561380f57600080fd5b505af1158015613823573d6000803e3d6000fd5b505050506040513d601f19601f820116820180604052508101906138479190614414565b6138635760405162461bcd60e51b8152600401611038906151e7565b6001546040516340c10f1960e01b81526001600160a01b03909116906340c10f19906138959033908790600401614bb4565b602060405180830381600087803b1580156138af57600080fd5b505af11580156138c3573d6000803e3d6000fd5b505050506040513d601f19601f820116820180604052508101906138e79190614414565b6139035760405162461bcd60e51b815260040161103890614e08565b613a1f565b845442600160401b9091046001600160401b0316111561394357845461393e90600160401b90046001600160401b031642613c61565b613946565b60005b855467ffffffffffffffff19166001600160401b0391821617808755600187015461397a926127109261109a929116613c89565b60038601556000546040516340c10f1960e01b81526001600160a01b03909116906340c10f19906139b1908b908790600401614bb4565b602060405180830381600087803b1580156139cb57600080fd5b505af11580156139df573d6000803e3d6000fd5b505050506040513d601f19601f82011682018060405250810190613a039190614414565b613a1f5760405162461bcd60e51b8152600401611038906151e7565b613a3c8560030154611e9683600d54613c6190919063ffffffff16565b600d5560058501546001600160a01b031615613aa757600385015460058601546001600160a01b03166000908152600e6020526040902060040154613a869190611e969084613c61565b60058601546001600160a01b03166000908152600e60205260409020600401555b8115613b4d576000546040516340c10f1960e01b81526001600160a01b03909116906340c10f1990613adf9033908690600401614bb4565b602060405180830381600087803b158015613af957600080fd5b505af1158015613b0d573d6000803e3d6000fd5b505050506040513d601f19601f82011682018060405250810190613b319190614414565b613b4d5760405162461bcd60e51b81526004016110389061509a565b505b600c54845460405133927f4f2f44b0dc1dff77d9cb13d49111cf708a0f4655a4f561b4062fb6ca74ddbae492613b9e928892889288926001600160401b03600160401b83048116921690615499565b60405180910390a250505050505050565b336000908152600e602052604090206001810154613bdf5760405162461bcd60e51b815260040161103890614ff3565b6002810154613bee9084613c61565b6002909101555050565b336000908152600e602052604090206001810154613c285760405162461bcd60e51b815260040161103890615268565b8281600201540181600101541015613c525760405162461bcd60e51b8152600401611038906150f3565b6002810154613bee9084613d4e565b600082821115613c835760405162461bcd60e51b815260040161103890614e9e565b50900390565b818102821580613ca1575081838281613c9e57fe5b04145b613cbd5760405162461bcd60e51b81526004016110389061515f565b92915050565b6000808211613ce45760405162461bcd60e51b81526004016110389061513a565b818381613ced57fe5b049392505050565b600081604051602001613d089190614b74565b6040516020818303038152906040528051906020012083604051602001613d2f9190614b74565b6040516020818303038152906040528051906020012014905092915050565b81810182811015613cbd5760405162461bcd60e51b815260040161103890615074565b6040518060e0016040528060008152602001613d8b613fa0565b8152602001613d98613fbe565b8152602001606081526020016060815260200160608152602001606081525090565b8260048101928215613e02579160200282015b82811115613e0257825182546001600160a01b0319166001600160a01b03909116178255602090920191600190910190613dcd565b50613e0e929150613fdc565b5090565b8260068101928215613e40579160200282015b82811115613e40578251825591602001919060010190613e25565b50613e0e929150613ffb565b828054600181600116156101000203166002900490600052602060002090601f016020900481019282601f10613e8d57805160ff1916838001178555613e40565b82800160010185558215613e405791820182811115613e40578251825591602001919060010190613e25565b828054828255906000526020600020908101928215613e025791602002820182811115613e0257825182546001600160a01b0319166001600160a01b03909116178255602090920191600190910190613dcd565b828054828255906000526020600020908101928215613e405791602002820182811115613e40578251825591602001919060010190613e25565b828054828255906000526020600020908101928215613f94579160200282015b82811115613f945782518051613f84918491602090910190613e4c565b5091602001919060010190613f67565b50613e0e929150614010565b60405180608001604052806004906020820280368337509192915050565b6040518060c001604052806006906020820280368337509192915050565b5b80821115613e0e5780546001600160a01b0319168155600101613fdd565b5b80821115613e0e5760008155600101613ffc565b80821115613e0e576000614024828261402d565b50600101614010565b50805460018160011615610100020316600290046000825580601f106140535750612ee6565b601f016020900490600052602060002090810190612ee69190613ffb565b80356001600160a01b0381168114613cbd57600080fd5b600082601f830112614098578081fd5b6140a260806155af565b90508082846080850111156140b657600080fd5b60005b60048110156140e1576140cc8683614071565b835260209283019291909101906001016140b9565b50505092915050565b60008083601f8401126140fb578081fd5b5081356001600160401b03811115614111578182fd5b602083019150836020808302850101111561412b57600080fd5b9250929050565b600082601f830112614142578081fd5b8135614155614150826155d5565b6155af565b818152915060208083019084810160005b8481101561418f5761417d888484358a0101614294565b84529282019290820190600101614166565b505050505092915050565b600082601f8301126141aa578081fd5b6141b460806155af565b9050808260005b60048110156140e1576141d18683358701614294565b835260209283019291909101906001016141bb565b600082601f8301126141f6578081fd5b61420060c06155af565b905080828460c08501111561421457600080fd5b60005b60068110156140e1578135835260209283019290910190600101614217565b600082601f830112614246578081fd5b8135614254614150826155d5565b81815291506020808301908481018184028601820187101561427557600080fd5b60005b8481101561418f57813584529282019290820190600101614278565b600082601f8301126142a4578081fd5b81356001600160401b038111156142b9578182fd5b6142cc601f8201601f19166020016155af565b91508082528360208285010111156142e357600080fd5b8060208401602084013760009082016020015292915050565b60008083601f84011261430d578182fd5b5081356001600160401b03811115614323578182fd5b60208301915083602082850101111561412b57600080fd5b60006020828403121561434c578081fd5b6143568383614071565b9392505050565b6000806040838503121561436f578081fd5b6143798484614071565b946020939093013593505050565b6000806000806060858703121561439c578182fd5b84356001600160401b038111156143b1578283fd5b6143bd878288016140ea565b90989097506020870135966040013595509350505050565b600080602083850312156143e7578182fd5b82356001600160401b038111156143fc578283fd5b614408858286016140ea565b90969095509350505050565b600060208284031215614425578081fd5b815161435681615638565b60008060408385031215614442578182fd5b823561437981615638565b60006020828403121561445e578081fd5b5035919050565b6000806000806080858703121561447a578182fd5b84356001600160401b0380821115614490578384fd5b61449c88838901614294565b95506020915081870135818111156144b2578485fd5b8701601f810189136144c2578485fd5b80356144d0614150826155d5565b81815284810190838601868402850187018d10156144ec578889fd5b8894505b83851015614516576145028d82614071565b8352600194909401939186019186016144f0565b509750505050604087013591508082111561452f578384fd5b61453b88838901614236565b93506060870135915080821115614550578283fd5b5061455d87828801614132565b91505092959194509250565b6000806040838503121561457b578182fd5b82356001600160401b03811115614590578283fd5b61459c85828601614294565b95602094909401359450505050565b600080600080606085870312156145c0578182fd5b843593506145d18660208701614071565b925060408501356001600160401b038111156145eb578283fd5b6145f7878288016142fc565b95989497509550505050565b600080600060608486031215614617578081fd5b833592506146288560208601614071565b915060408401356001600160401b03811115614642578182fd5b61464e86828701614294565b9150509250925092565b60008060008060008060a08789031215614670578384fd5b863595506146818860208901614071565b9450604087013593506060870135925060808701356001600160401b038111156146a9578283fd5b6146b589828a016142fc565b979a9699509497509295939492505050565b60008060008061018085870312156146dd578182fd5b843593506146ee8660208701614088565b92506146fd8660a087016141e6565b91506101608501356001600160401b03811115614718578182fd5b61455d8782880161419a565b60008060408385031215614736578182fd5b82359150602083013561474881615638565b809150509250929050565b60008060408385031215614765578182fd5b50508035926020909101359150565b60008060008060006101a0868803121561478c578283fd5b85359450602086013593506147a48760408801614088565b92506147b38760c088016141e6565b91506101808601356001600160401b038111156147ce578182fd5b6147da8882890161419a565b9150509295509295909350565b8060005b60048110156148135781516001600160a01b03168452602093840193909101906001016147eb565b50505050565b6000815480845260208085018081965082840281019150858552828520855b858110156148d35782840389528682546001808216600081146148625760018114614882576148bd565b614872607f600285041689614bcd565b60ff1984168152890193506148bd565b60028304614890818a614bcd565b614899886155f4565b8d5b838110156148b457815483820152908501908c0161489b565b91909101955050505b509a87019a919550509190910190600101614838565b5091979650505050505050565b8060005b60068110156148135781518452602093840193909101906001016148e4565b6000815480845260208085019450838352808320835b8381101561493557815487529582019560019182019101614919565b509495945050505050565b6000815180845261495881602086016020860161560c565b601f01601f19169290920160200192915050565b6000815260200190565b60006001600160601b03198560601b16825282846014840137910160140190815292915050565b60006001600160601b03198460601b16825282516149c281601485016020870161560c565b919091016014019392505050565b60006001600160601b03198760601b168252856014830152846034830152828460548401379101605401908152949350505050565b6000614a1182896147e7565b614a1e60808301886148e0565b6101408651614a338183860160208b0161560c565b865190840190614a498184840160208b0161560c565b8651910190614a5e8184840160208a0161560c565b8551910190614a73818484016020890161560c565b010198975050505050505050565b6000614a8d828a6147e7565b876080830152614aa060a08301886148e0565b6101608651614ab58183860160208b0161560c565b865190840190614acb8184840160208b0161560c565b8651910190614ae08184840160208a0161560c565b8551910190614af5818484016020890161560c565b01019998505050505050505050565b6000808354600180821660008114614b235760018114614b3a57614b69565b60ff198316865260028304607f1686019350614b69565b600283048786526020808720875b83811015614b615781548a820152908501908201614b48565b505050860193505b509195945050505050565b60008251614b8681846020870161560c565b9190910192915050565b6001600160a01b039384168152919092166020820152604081019190915260600190565b6001600160a01b03929092168252602082015260400190565b90815260200190565b6000610200878352866020840152614bf160408401876147e7565b614bfe60c08401866148e0565b80610180840152614c1181840185614940565b9050828103806101a0850152828252602081016101c0850152826020830152604081016101e085015250816040820152606081019150509695505050505050565b6000610200888352876020840152614c6d60408401886147e7565b614c7a60c08401876148e0565b806101808401528381840152506102208385828501378284018101829052601f8401601f191683018381038083016101a08601529181018390526102409182016101c0850152614ccb82820161496c565b9150508281036101e0840152614ce08161496c565b9998505050505050505050565b60006102008a8352896020840152614d08604084018a6147e7565b614d1560c08401896148e0565b80610180840152614d2881840188614940565b90508281036101a0840152614d3d8187614940565b90508281036101c0840152614d528186614940565b90508281036101e0840152614d678185614940565b9b9a5050505050505050505050565b6001600160a01b0391909116815260200190565b600060408252614d9d6040830185614940565b90508260208301529392505050565b6020808252600b908201526a496e76616c6964206b657960a81b604082015260600190565b60208082526017908201527f43616e6e6f742073686f7274656e206475726174696f6e000000000000000000604082015260600190565b6020808252600f908201526e13d1d1081b5a5b9d0819985a5b1959608a1b604082015260600190565b60208082526023908201527f636f6d6d69746d656e74202b20726577617264204f4744206d696e74206661696040820152621b195960ea1b606082015260800190565b60208082526010908201526f115e1958dd5d1a5bdb8819985a5b195960821b604082015260600190565b6020808252600d908201526c53756220756e646572666c6f7760981b604082015260600190565b6020808252600d908201526c105b1c9958591e481d9bdd1959609a1b604082015260600190565b60208082526021908201527f43616e6e6f742064656c656761746520616674657220726563656e7420766f746040820152606560f81b606082015260800190565b6020808252600d908201526c159bdd1a5b99c818db1bdcd959609a1b604082015260600190565b60208082526013908201527213d1d1081d1c985b9cd9995c8819985a5b1959606a1b604082015260600190565b6020808252601590820152741c995dd85c990813d1c81b5a5b9d0819985a5b1959605a1b604082015260600190565b60208082526023908201527f43616e6e6f7420766f746520616674657220726563656e742064656c6567617460408201526234b7b760e91b606082015260800190565b60208082526033908201527f4f7074696e6f476f763a20436f6d6d697420616e64207374616b6520746f6b656040820152726e73206265666f726520756e7374616b696e6760681b606082015260800190565b60208082526014908201527310dbdb5b5a5d1b595b9d081b9bdd08195b99195960621b604082015260600190565b6020808252600c908201526b416464206f766572666c6f7760a01b604082015260600190565b6020808252601b908201527f63616c6c6572526577617264204f47206d696e74206661696c65640000000000604082015260600190565b6020808252600890820152672737ba1039b2b63360c11b604082015260600190565b60208082526027908201527f4f7074696e6f476f763a20496e73756666696369656e7420746f6b656e7320746040820152666f207374616b6560c81b606082015260800190565b6020808252600b908201526a044697669646520627920360ac1b604082015260600190565b6020808252600c908201526b4d756c206f766572666c6f7760a01b604082015260600190565b6020808252601f908201527f436f6d6d69746d656e7420776974682064656c6179206e6f7420656e64656400604082015260600190565b6020808252601190820152706475726174696f6e20746f6f206c6f6e6760781b604082015260600190565b6020808252600e908201526d13d1c81b5a5b9d0819985a5b195960921b604082015260600190565b60208082526016908201527513d1c81d1c985b9cd9995c919c9bdb4819985a5b195960521b604082015260600190565b6020808252600f908201526e13d1d108189d5c9b8819985a5b1959608a1b604082015260600190565b6020808252818101527f4f7074696e6f476f763a20436f6d6d6974206265666f7265207374616b696e67604082015260600190565b9182526001600160a01b0316602082015260400190565b8681526001600160a01b038616602082015260c0604082018190526000906152de90830187614940565b6060830195909552506080810192909252151560a0909101529392505050565b60006101e0898352615313602084018a6147e7565b61532060a08401896148e0565b8061016084015261533381840188614940565b90508281036101808401526153488187614940565b90508281036101a084015261535d8186614940565b90508281036101c08401526153728185614940565b9a9950505050505050505050565b93845291151560208401526040830152606082015260800190565b6000878252602060c0818401526153b560c0840189614940565b8381036040850152875480825288845282842091830190845b818110156153fc5783546153ea906001600160a01b0316615600565b835260019384019392850192016153ce565b505084810360608601526154108189614903565b9250505082810360808401526154268186614819565b9150508260a0830152979650505050505050565b600086825260a0602083015261545360a0830187614940565b82810360408401526154658187614940565b905082810360608401526154798186614940565b9050828103608084015261548d8185614940565b98975050505050505050565b9586526020860194909452604085019290925260608401526001600160401b0390811660808401521660a082015260c00190565b97885260208801969096526001600160401b0394851660408801529290931660608601526001600160a01b0316608085015260a084019190915260c083015260e08201526101000190565b96875260208701959095526001600160401b039384166040870152919092166060850152608084019190915260a083015260c082015260e00190565b6001600160401b03998a16815297891660208901529588166040880152939096166060860152608085019190915260a084015260c083019390935260e08201929092526001600160a01b039091166101008201526101200190565b6040518181016001600160401b03811182821017156155cd57600080fd5b604052919050565b60006001600160401b038211156155ea578081fd5b5060209081020190565b60009081526020902090565b6001600160a01b031690565b60005b8381101561562757818101518382015260200161560f565b838111156148135750506000910152565b8015158114612ee657600080fdfe31ecc21a745e3968a04e9570e4425bc18fa8019c68028196b546d1669c200c68f24cbdc684dc21516b5240bd7ae597aaa3aa8df591d22442926b3fd088ee2a59a2646970667358221220a1c54b7715d3c3109f529f432d9804ccac51d9195f39c83efe70d14016649e3164736f6c63430007010033",
  "linkReferences": {},
  "deployedLinkReferences": {}
}