{
  "_format": "hh-sol-artifact-1",
  "contractName": "Permissioned",
  "sourceName": "contracts/Permissioned.sol",
  "abi": [
    {
      "anonymous": false,
      "inputs": [
        {
          "indexed": true,
          "internalType": "address",
          "name": "from",
          "type": "address"
        },
        {
          "indexed": true,
          "internalType": "address",
          "name": "to",
          "type": "address"
        }
      ],
      "name": "OwnershipTransferred",
      "type": "event"
    },
    {
      "anonymous": false,
      "inputs": [
        {
          "indexed": true,
          "internalType": "address",
          "name": "account",
          "type": "address"
        },
        {
          "indexed": false,
          "internalType": "uint256",
          "name": "role",
          "type": "uint256"
        },
        {
          "indexed": false,
          "internalType": "bool",
          "name": "active",
          "type": "bool"
        },
        {
          "indexed": false,
          "internalType": "uint256",
          "name": "maximum",
          "type": "uint256"
        },
        {
          "indexed": false,
          "internalType": "uint256",
          "name": "processed",
          "type": "uint256"
        }
      ],
      "name": "PermissionUpdated",
      "type": "event"
    },
    {
      "inputs": [],
      "name": "ROLE_MINTER",
      "outputs": [
        {
          "internalType": "uint256",
          "name": "",
          "type": "uint256"
        }
      ],
      "stateMutability": "view",
      "type": "function"
    },
    {
      "inputs": [],
      "name": "owner",
      "outputs": [
        {
          "internalType": "address",
          "name": "",
          "type": "address"
        }
      ],
      "stateMutability": "view",
      "type": "function"
    },
    {
      "inputs": [
        {
          "internalType": "address",
          "name": "",
          "type": "address"
        },
        {
          "internalType": "uint256",
          "name": "",
          "type": "uint256"
        }
      ],
      "name": "permissions",
      "outputs": [
        {
          "internalType": "bool",
          "name": "active",
          "type": "bool"
        },
        {
          "internalType": "uint256",
          "name": "maximum",
          "type": "uint256"
        },
        {
          "internalType": "uint256",
          "name": "processed",
          "type": "uint256"
        }
      ],
      "stateMutability": "view",
      "type": "function"
    },
    {
      "inputs": [
        {
          "internalType": "address",
          "name": "account",
          "type": "address"
        },
        {
          "internalType": "uint256",
          "name": "role",
          "type": "uint256"
        },
        {
          "internalType": "bool",
          "name": "active",
          "type": "bool"
        },
        {
          "internalType": "uint256",
          "name": "maximum",
          "type": "uint256"
        }
      ],
      "name": "setPermission",
      "outputs": [],
      "stateMutability": "nonpayable",
      "type": "function"
    },
    {
      "inputs": [
        {
          "internalType": "address",
          "name": "_newOwner",
          "type": "address"
        }
      ],
      "name": "transferOwnership",
      "outputs": [],
      "stateMutability": "nonpayable",
      "type": "function"
    }
  ],
  "bytecode": "0x608060405234801561001057600080fd5b506103f5806100206000396000f3fe608060405234801561001057600080fd5b50600436106100575760003560e01c8063458a474c1461005c5780638da5cb5b1461009857806392afc33a146100bc578063e9d79b0e146100d6578063f2fde38b14610122575b600080fd5b6100966004803603608081101561007257600080fd5b506001600160a01b0381351690602081013590604081013515159060600135610148565b005b6100a06102c2565b604080516001600160a01b039092168252519081900360200190f35b6100c46102d6565b60408051918252519081900360200190f35b610102600480360360408110156100ec57600080fd5b506001600160a01b0381351690602001356102db565b604080519315158452602084019290925282820152519081900360600190f35b6100966004803603602081101561013857600080fd5b50356001600160a01b0316610309565b60005461010090046001600160a01b03163314610198576040805162461bcd60e51b81526020600482015260096024820152682737ba1037bbb732b960b91b604482015290519081900360640190fd5b600060016000866001600160a01b03166001600160a01b031681526020019081526020016000206000858152602001908152602001600020600201549050604051806060016040528084151581526020018381526020018281525060016000876001600160a01b03166001600160a01b03168152602001908152602001600020600086815260200190815260200160002060008201518160000160006101000a81548160ff0219169083151502179055506020820151816001015560408201518160020155905050846001600160a01b03167fe67a76df6139aaa58a2a1331d7961dfefaa82e4290f2410f14e582fcc6e3bd628585858560405180858152602001841515815260200183815260200182815260200194505050505060405180910390a25050505050565b60005461010090046001600160a01b031681565b600181565b6001602081815260009384526040808520909152918352912080549181015460029091015460ff9092169183565b60005461010090046001600160a01b03163314610359576040805162461bcd60e51b81526020600482015260096024820152682737ba1037bbb732b960b91b604482015290519081900360640190fd5b600080546040516001600160a01b038085169361010090930416917f8be0079c531659141344cd1fd0a4f28419497f9722a3daafe3b4186f6b6457e091a3600080546001600160a01b0390921661010002610100600160a81b031990921691909117905556fea26469706673582212206fc5888a9625789998109e71a6d184a2cbfc9712ff37780614953dd9c2a3320c64736f6c63430007010033",
  "linkReferences": {},
  "deployedLinkReferences": {}
}