{
  "_format": "hh-sol-artifact-1",
  "contractName": "OGDToken",
  "sourceName": "contracts/OGDToken.sol",
  "abi": [
    {
      "inputs": [
        {
          "internalType": "string",
          "name": "symbol",
          "type": "string"
        },
        {
          "internalType": "string",
          "name": "name",
          "type": "string"
        },
        {
          "internalType": "uint8",
          "name": "decimals",
          "type": "uint8"
        },
        {
          "internalType": "address",
          "name": "tokenOwner",
          "type": "address"
        },
        {
          "internalType": "uint256",
          "name": "initialSupply",
          "type": "uint256"
        }
      ],
      "stateMutability": "nonpayable",
      "type": "constructor"
    },
    {
      "anonymous": false,
      "inputs": [
        {
          "indexed": true,
          "internalType": "address",
          "name": "tokenOwner",
          "type": "address"
        },
        {
          "indexed": true,
          "internalType": "address",
          "name": "spender",
          "type": "address"
        },
        {
          "indexed": false,
          "internalType": "uint256",
          "name": "tokens",
          "type": "uint256"
        }
      ],
      "name": "Approval",
      "type": "event"
    },
    {
      "anonymous": false,
      "inputs": [
        {
          "indexed": true,
          "internalType": "address",
          "name": "token",
          "type": "address"
        },
        {
          "indexed": false,
          "internalType": "uint256",
          "name": "tokens",
          "type": "uint256"
        }
      ],
      "name": "DividendDeposited",
      "type": "event"
    },
    {
      "anonymous": false,
      "inputs": [
        {
          "indexed": true,
          "internalType": "address",
          "name": "token",
          "type": "address"
        },
        {
          "indexed": false,
          "internalType": "bool",
          "name": "enabled",
          "type": "bool"
        }
      ],
      "name": "DividendTokenAdded",
      "type": "event"
    },
    {
      "anonymous": false,
      "inputs": [
        {
          "indexed": true,
          "internalType": "address",
          "name": "token",
          "type": "address"
        }
      ],
      "name": "DividendTokenRemoved",
      "type": "event"
    },
    {
      "anonymous": false,
      "inputs": [
        {
          "indexed": true,
          "internalType": "address",
          "name": "token",
          "type": "address"
        },
        {
          "indexed": false,
          "internalType": "bool",
          "name": "enabled",
          "type": "bool"
        }
      ],
      "name": "DividendTokenUpdated",
      "type": "event"
    },
    {
      "anonymous": false,
      "inputs": [
        {
          "indexed": true,
          "internalType": "address",
          "name": "account",
          "type": "address"
        },
        {
          "indexed": true,
          "internalType": "address",
          "name": "destination",
          "type": "address"
        },
        {
          "indexed": true,
          "internalType": "address",
          "name": "token",
          "type": "address"
        },
        {
          "indexed": false,
          "internalType": "uint256",
          "name": "tokens",
          "type": "uint256"
        }
      ],
      "name": "DividendWithdrawn",
      "type": "event"
    },
    {
      "anonymous": false,
      "inputs": [
        {
          "indexed": true,
          "internalType": "address",
          "name": "from",
          "type": "address"
        },
        {
          "indexed": true,
          "internalType": "address",
          "name": "to",
          "type": "address"
        }
      ],
      "name": "OwnershipTransferred",
      "type": "event"
    },
    {
      "anonymous": false,
      "inputs": [
        {
          "indexed": true,
          "internalType": "address",
          "name": "account",
          "type": "address"
        },
        {
          "indexed": false,
          "internalType": "uint256",
          "name": "role",
          "type": "uint256"
        },
        {
          "indexed": false,
          "internalType": "bool",
          "name": "active",
          "type": "bool"
        },
        {
          "indexed": false,
          "internalType": "uint256",
          "name": "maximum",
          "type": "uint256"
        },
        {
          "indexed": false,
          "internalType": "uint256",
          "name": "processed",
          "type": "uint256"
        }
      ],
      "name": "PermissionUpdated",
      "type": "event"
    },
    {
      "anonymous": false,
      "inputs": [
        {
          "indexed": true,
          "internalType": "address",
          "name": "from",
          "type": "address"
        },
        {
          "indexed": true,
          "internalType": "address",
          "name": "to",
          "type": "address"
        },
        {
          "indexed": false,
          "internalType": "uint256",
          "name": "tokens",
          "type": "uint256"
        }
      ],
      "name": "Transfer",
      "type": "event"
    },
    {
      "anonymous": false,
      "inputs": [
        {
          "indexed": false,
          "internalType": "address",
          "name": "dividendToken",
          "type": "address"
        },
        {
          "indexed": false,
          "internalType": "address",
          "name": "account",
          "type": "address"
        },
        {
          "indexed": false,
          "internalType": "uint256",
          "name": "owing",
          "type": "uint256"
        },
        {
          "indexed": false,
          "internalType": "uint256",
          "name": "totalOwing",
          "type": "uint256"
        },
        {
          "indexed": false,
          "internalType": "uint256",
          "name": "lastDividendPoints",
          "type": "uint256"
        },
        {
          "indexed": false,
          "internalType": "uint256",
          "name": "totalDividendPoints",
          "type": "uint256"
        },
        {
          "indexed": false,
          "internalType": "uint256",
          "name": "unclaimedDividends",
          "type": "uint256"
        }
      ],
      "name": "UpdateAccountInfo",
      "type": "event"
    },
    {
      "inputs": [],
      "name": "ROLE_MINTER",
      "outputs": [
        {
          "internalType": "uint256",
          "name": "",
          "type": "uint256"
        }
      ],
      "stateMutability": "view",
      "type": "function"
    },
    {
      "inputs": [
        {
          "internalType": "address",
          "name": "_dividendToken",
          "type": "address"
        }
      ],
      "name": "addDividendToken",
      "outputs": [],
      "stateMutability": "nonpayable",
      "type": "function"
    },
    {
      "inputs": [
        {
          "internalType": "address",
          "name": "tokenOwner",
          "type": "address"
        },
        {
          "internalType": "address",
          "name": "spender",
          "type": "address"
        }
      ],
      "name": "allowance",
      "outputs": [
        {
          "internalType": "uint256",
          "name": "remaining",
          "type": "uint256"
        }
      ],
      "stateMutability": "view",
      "type": "function"
    },
    {
      "inputs": [
        {
          "internalType": "address",
          "name": "spender",
          "type": "address"
        },
        {
          "internalType": "uint256",
          "name": "tokens",
          "type": "uint256"
        }
      ],
      "name": "approve",
      "outputs": [
        {
          "internalType": "bool",
          "name": "success",
          "type": "bool"
        }
      ],
      "stateMutability": "nonpayable",
      "type": "function"
    },
    {
      "inputs": [
        {
          "internalType": "address",
          "name": "tokenOwner",
          "type": "address"
        }
      ],
      "name": "balanceOf",
      "outputs": [
        {
          "internalType": "uint256",
          "name": "balance",
          "type": "uint256"
        }
      ],
      "stateMutability": "view",
      "type": "function"
    },
    {
      "inputs": [
        {
          "internalType": "uint256",
          "name": "tokens",
          "type": "uint256"
        },
        {
          "internalType": "address",
          "name": "payDividendsTo",
          "type": "address"
        }
      ],
      "name": "burn",
      "outputs": [
        {
          "internalType": "bool",
          "name": "success",
          "type": "bool"
        }
      ],
      "stateMutability": "nonpayable",
      "type": "function"
    },
    {
      "inputs": [],
      "name": "decimals",
      "outputs": [
        {
          "internalType": "uint8",
          "name": "",
          "type": "uint8"
        }
      ],
      "stateMutability": "view",
      "type": "function"
    },
    {
      "inputs": [
        {
          "internalType": "address",
          "name": "token",
          "type": "address"
        },
        {
          "internalType": "uint256",
          "name": "tokens",
          "type": "uint256"
        }
      ],
      "name": "depositDividend",
      "outputs": [],
      "stateMutability": "payable",
      "type": "function"
    },
    {
      "inputs": [],
      "name": "dividendTokensLength",
      "outputs": [
        {
          "internalType": "uint256",
          "name": "",
          "type": "uint256"
        }
      ],
      "stateMutability": "view",
      "type": "function"
    },
    {
      "inputs": [
        {
          "internalType": "address",
          "name": "account",
          "type": "address"
        }
      ],
      "name": "dividendsOwing",
      "outputs": [
        {
          "internalType": "address[]",
          "name": "tokenList",
          "type": "address[]"
        },
        {
          "internalType": "uint256[]",
          "name": "owingList",
          "type": "uint256[]"
        },
        {
          "internalType": "uint256[]",
          "name": "newOwingList",
          "type": "uint256[]"
        }
      ],
      "stateMutability": "view",
      "type": "function"
    },
    {
      "inputs": [
        {
          "internalType": "uint256",
          "name": "i",
          "type": "uint256"
        }
      ],
      "name": "getDividendTokenByIndex",
      "outputs": [
        {
          "internalType": "address",
          "name": "",
          "type": "address"
        },
        {
          "internalType": "bool",
          "name": "",
          "type": "bool"
        }
      ],
      "stateMutability": "view",
      "type": "function"
    },
    {
      "inputs": [
        {
          "internalType": "address",
          "name": "tokenOwner",
          "type": "address"
        },
        {
          "internalType": "uint256",
          "name": "tokens",
          "type": "uint256"
        }
      ],
      "name": "mint",
      "outputs": [
        {
          "internalType": "bool",
          "name": "success",
          "type": "bool"
        }
      ],
      "stateMutability": "nonpayable",
      "type": "function"
    },
    {
      "inputs": [],
      "name": "name",
      "outputs": [
        {
          "internalType": "string",
          "name": "",
          "type": "string"
        }
      ],
      "stateMutability": "view",
      "type": "function"
    },
    {
      "inputs": [],
      "name": "owner",
      "outputs": [
        {
          "internalType": "address",
          "name": "",
          "type": "address"
        }
      ],
      "stateMutability": "view",
      "type": "function"
    },
    {
      "inputs": [
        {
          "internalType": "address",
          "name": "",
          "type": "address"
        },
        {
          "internalType": "uint256",
          "name": "",
          "type": "uint256"
        }
      ],
      "name": "permissions",
      "outputs": [
        {
          "internalType": "bool",
          "name": "active",
          "type": "bool"
        },
        {
          "internalType": "uint256",
          "name": "maximum",
          "type": "uint256"
        },
        {
          "internalType": "uint256",
          "name": "processed",
          "type": "uint256"
        }
      ],
      "stateMutability": "view",
      "type": "function"
    },
    {
      "inputs": [],
      "name": "pointMultiplier",
      "outputs": [
        {
          "internalType": "uint256",
          "name": "",
          "type": "uint256"
        }
      ],
      "stateMutability": "view",
      "type": "function"
    },
    {
      "inputs": [
        {
          "internalType": "address",
          "name": "token",
          "type": "address"
        },
        {
          "internalType": "uint256",
          "name": "tokens",
          "type": "uint256"
        }
      ],
      "name": "recoverTokens",
      "outputs": [],
      "stateMutability": "nonpayable",
      "type": "function"
    },
    {
      "inputs": [
        {
          "internalType": "address",
          "name": "token",
          "type": "address"
        }
      ],
      "name": "removeDividendToken",
      "outputs": [],
      "stateMutability": "nonpayable",
      "type": "function"
    },
    {
      "inputs": [
        {
          "internalType": "address",
          "name": "account",
          "type": "address"
        },
        {
          "internalType": "uint256",
          "name": "role",
          "type": "uint256"
        },
        {
          "internalType": "bool",
          "name": "active",
          "type": "bool"
        },
        {
          "internalType": "uint256",
          "name": "maximum",
          "type": "uint256"
        }
      ],
      "name": "setPermission",
      "outputs": [],
      "stateMutability": "nonpayable",
      "type": "function"
    },
    {
      "inputs": [],
      "name": "symbol",
      "outputs": [
        {
          "internalType": "string",
          "name": "",
          "type": "string"
        }
      ],
      "stateMutability": "view",
      "type": "function"
    },
    {
      "inputs": [
        {
          "internalType": "address",
          "name": "",
          "type": "address"
        }
      ],
      "name": "totalDividendPoints",
      "outputs": [
        {
          "internalType": "uint256",
          "name": "",
          "type": "uint256"
        }
      ],
      "stateMutability": "view",
      "type": "function"
    },
    {
      "inputs": [],
      "name": "totalSupply",
      "outputs": [
        {
          "internalType": "uint256",
          "name": "",
          "type": "uint256"
        }
      ],
      "stateMutability": "view",
      "type": "function"
    },
    {
      "inputs": [
        {
          "internalType": "address",
          "name": "to",
          "type": "address"
        },
        {
          "internalType": "uint256",
          "name": "tokens",
          "type": "uint256"
        }
      ],
      "name": "transfer",
      "outputs": [
        {
          "internalType": "bool",
          "name": "success",
          "type": "bool"
        }
      ],
      "stateMutability": "nonpayable",
      "type": "function"
    },
    {
      "inputs": [
        {
          "internalType": "address",
          "name": "from",
          "type": "address"
        },
        {
          "internalType": "address",
          "name": "to",
          "type": "address"
        },
        {
          "internalType": "uint256",
          "name": "tokens",
          "type": "uint256"
        }
      ],
      "name": "transferFrom",
      "outputs": [
        {
          "internalType": "bool",
          "name": "success",
          "type": "bool"
        }
      ],
      "stateMutability": "nonpayable",
      "type": "function"
    },
    {
      "inputs": [
        {
          "internalType": "address",
          "name": "_newOwner",
          "type": "address"
        }
      ],
      "name": "transferOwnership",
      "outputs": [],
      "stateMutability": "nonpayable",
      "type": "function"
    },
    {
      "inputs": [
        {
          "internalType": "address",
          "name": "",
          "type": "address"
        }
      ],
      "name": "unclaimedDividends",
      "outputs": [
        {
          "internalType": "uint256",
          "name": "",
          "type": "uint256"
        }
      ],
      "stateMutability": "view",
      "type": "function"
    },
    {
      "inputs": [
        {
          "internalType": "address",
          "name": "token",
          "type": "address"
        },
        {
          "internalType": "bool",
          "name": "enabled",
          "type": "bool"
        }
      ],
      "name": "updateDividendToken",
      "outputs": [],
      "stateMutability": "nonpayable",
      "type": "function"
    },
    {
      "inputs": [
        {
          "internalType": "address",
          "name": "token",
          "type": "address"
        }
      ],
      "name": "withdrawDividend",
      "outputs": [],
      "stateMutability": "nonpayable",
      "type": "function"
    },
    {
      "inputs": [],
      "name": "withdrawDividends",
      "outputs": [],
      "stateMutability": "nonpayable",
      "type": "function"
    },
    {
      "stateMutability": "payable",
      "type": "receive"
    }
  ],
  "bytecode": "0x60806040523480156200001157600080fd5b5060405162002bd138038062002bd1833981810160405260a08110156200003757600080fd5b81019080805160405193929190846401000000008211156200005857600080fd5b9083019060208201858111156200006e57600080fd5b82516401000000008111828201881017156200008957600080fd5b82525081516020918201929091019080838360005b83811015620000b85781810151838201526020016200009e565b50505050905090810190601f168015620000e65780820380516001836020036101000a031916815260200191505b50604052602001805160405193929190846401000000008211156200010a57600080fd5b9083019060208201858111156200012057600080fd5b82516401000000008111828201881017156200013b57600080fd5b82525081516020918201929091019080838360005b838110156200016a57818101518382015260200162000150565b50505050905090810190601f168015620001985780820380516001836020036101000a031916815260200191505b506040908152602082015190820151606090920151909350909150620001be3362000259565b8451620001d3906002906020880190620002ef565b508351620001e9906003906020870190620002ef565b506004805460ff191660ff85161790556001600160a01b03821660008181526006602090815260408083208590556005859055805185815290517fddf252ad1be2c89b69c2b068fc378daa952ba7f163c4a11628f55a4df523b3ef929181900390910190a350505050506200038b565b620002648162000267565b50565b60005460ff1615620002c0576040805162461bcd60e51b815260206004820152601360248201527f416c726561647920696e697469616c6973656400000000000000000000000000604482015290519081900360640190fd5b6000805460ff196001600160a01b0390931661010002610100600160a81b031990911617919091166001179055565b828054600181600116156101000203166002900490600052602060002090601f016020900481019282601f106200033257805160ff191683800117855562000362565b8280016001018555821562000362579182015b828111156200036257825182559160200191906001019062000345565b506200037092915062000374565b5090565b5b8082111562000370576000815560010162000375565b612836806200039b6000396000f3fe6080604052600436106101c65760003560e01c80635f78d6bd116100f757806395d89b4111610095578063dd62ed3e11610064578063dd62ed3e146107cc578063e9d79b0e14610807578063f2fde38b14610860578063fcd3533c14610893576101d8565b806395d89b41146107185780639c53c0ca1461072d578063a9059cbb14610760578063db847b4e14610799576101d8565b80638391e45c116100d15780638391e45c1461058e5780638681a3741461069f5780638da5cb5b146106d257806392afc33a14610703576101d8565b80635f78d6bd1461051a578063658b98a91461054657806370a082311461055b576101d8565b80631e4261a911610164578063313ce5671161013e578063313ce5671461043457806337eef8341461045f57806340c10f191461049a578063458a474c146104d3576101d8565b80631e4261a9146103a957806323b872dd146103dc5780632e92abdd1461041f576101d8565b8063095ea7b3116101a0578063095ea7b3146102e557806318160ddd146103325780631cc5b306146103475780631ccbf73b1461035c576101d8565b80630490c71c146101dd578063069c9fae1461022257806306fdde031461025b576101d8565b366101d8576101d66000346108cc565b005b600080fd5b3480156101e957600080fd5b506102106004803603602081101561020057600080fd5b50356001600160a01b0316610bf1565b60408051918252519081900360200190f35b34801561022e57600080fd5b506101d66004803603604081101561024557600080fd5b506001600160a01b038135169060200135610c03565b34801561026757600080fd5b50610270610eea565b6040805160208082528351818301528351919283929083019185019080838360005b838110156102aa578181015183820152602001610292565b50505050905090810190601f1680156102d75780820380516001836020036101000a031916815260200191505b509250505060405180910390f35b3480156102f157600080fd5b5061031e6004803603604081101561030857600080fd5b506001600160a01b038135169060200135610f80565b604080519115158252519081900360200190f35b34801561033e57600080fd5b50610210610fe7565b34801561035357600080fd5b50610210611024565b34801561036857600080fd5b506103866004803603602081101561037f57600080fd5b5035611030565b604080516001600160a01b03909316835290151560208301528051918290030190f35b3480156103b557600080fd5b506101d6600480360360208110156103cc57600080fd5b50356001600160a01b031661111b565b3480156103e857600080fd5b5061031e600480360360608110156103ff57600080fd5b506001600160a01b03813581169160208101359091169060400135611188565b34801561042b57600080fd5b506101d6611283565b34801561044057600080fd5b5061044961128f565b6040805160ff9092168252519081900360200190f35b34801561046b57600080fd5b506101d66004803603604081101561048257600080fd5b506001600160a01b0381351690602001351515611298565b3480156104a657600080fd5b5061031e600480360360408110156104bd57600080fd5b506001600160a01b038135169060200135611307565b3480156104df57600080fd5b506101d6600480360360808110156104f657600080fd5b506001600160a01b038135169060208101359060408101351515906060013561143d565b6101d66004803603604081101561053057600080fd5b506001600160a01b0381351690602001356108cc565b34801561055257600080fd5b506102106115b7565b34801561056757600080fd5b506102106004803603602081101561057e57600080fd5b50356001600160a01b03166115c7565b34801561059a57600080fd5b506105c1600480360360208110156105b157600080fd5b50356001600160a01b03166115e2565b60405180806020018060200180602001848103845287818151815260200191508051906020019060200280838360005b838110156106095781810151838201526020016105f1565b50505050905001848103835286818151815260200191508051906020019060200280838360005b83811015610648578181015183820152602001610630565b50505050905001848103825285818151815260200191508051906020019060200280838360005b8381101561068757818101518382015260200161066f565b50505050905001965050505050505060405180910390f35b3480156106ab57600080fd5b50610210600480360360208110156106c257600080fd5b50356001600160a01b03166117e8565b3480156106de57600080fd5b506106e76117fa565b604080516001600160a01b039092168252519081900360200190f35b34801561070f57600080fd5b5061021061180e565b34801561072457600080fd5b50610270611813565b34801561073957600080fd5b506101d66004803603602081101561075057600080fd5b50356001600160a01b0316611871565b34801561076c57600080fd5b5061031e6004803603604081101561078357600080fd5b506001600160a01b038135169060200135611a40565b3480156107a557600080fd5b506101d6600480360360208110156107bc57600080fd5b50356001600160a01b0316611ae6565b3480156107d857600080fd5b50610210600480360360408110156107ef57600080fd5b506001600160a01b0381358116916020013516611b57565b34801561081357600080fd5b506108406004803603604081101561082a57600080fd5b506001600160a01b038135169060200135611b82565b604080519315158452602084019290925282820152519081900360600190f35b34801561086c57600080fd5b506101d66004803603602081101561088357600080fd5b50356001600160a01b0316611bb0565b34801561089f57600080fd5b5061031e600480360360408110156108b657600080fd5b50803590602001356001600160a01b0316611c66565b6108d461272a565b506001600160a01b038281166000908152600960209081526040918290208251608081018452815481526001820154928101929092526002015492831691810191909152600160a01b90910460ff1615156060820181905261097d576040805162461bcd60e51b815260206004820152601d60248201527f4469766964656e6420746f6b656e206973206e6f7420656e61626c6564000000604482015290519081900360640190fd5b6005546109c3906109a49061099e856b204fce5e3e25026110000000611cdb565b90611d33565b6001600160a01b0385166000908152600b602052604090205490611d88565b6001600160a01b0384166000908152600b6020908152604080832093909355600c905220546109f29083611d88565b6001600160a01b0384166000818152600c6020526040902091909155610adb5781341015610a5f576040805162461bcd60e51b8152602060048201526015602482015274125b9cdd59999a58da595b9d08115512081cd95b9d605a1b604482015290519081900360640190fd5b6000610a6b3484611dcf565b90508015610ad557604051339082156108fc029083906000818181858888f19350505050610ad5576040805162461bcd60e51b815260206004820152601260248201527145544820726566756e64206661696c75726560701b604482015290519081900360640190fd5b50610bad565b604080516323b872dd60e01b81523360048201523060248201526044810184905290516001600160a01b038516916323b872dd9160648083019260209291908290030181600087803b158015610b3057600080fd5b505af1158015610b44573d6000803e3d6000fd5b505050506040513d6020811015610b5a57600080fd5b5051610bad576040805162461bcd60e51b815260206004820152601a60248201527f4552433230207472616e7366657246726f6d206661696c757265000000000000604482015290519081900360640190fd5b6040805183815290516001600160a01b038516917fbc6649fd5a3b1c469e2597719e34abed740a2e561754af459620a934587f5d04919081900360200190a2505050565b600c6020526000908152604090205481565b60005461010090046001600160a01b03163314610c53576040805162461bcd60e51b81526020600482015260096024820152682737ba1037bbb732b960b91b604482015290519081900360640190fd5b610c5b61272a565b506001600160a01b038281166000908152600960209081526040918290208251608081018452815480825260018301549382019390935260029091015493841692810192909252600160a01b90920460ff1615156060820152901580610cc357508060600151155b610cfe5760405162461bcd60e51b815260040180806020018281038252603081526020018061278a6030913960400191505060405180910390fd5b6001600160a01b038316610d8e5760005461010090046001600160a01b03166108fc8315610d2c5783610d2e565b475b6040518115909202916000818181858888f19350505050610d89576040805162461bcd60e51b815260206004820152601060248201526f4554482073656e64206661696c75726560801b604482015290519081900360640190fd5b610ee5565b6000546001600160a01b038085169163a9059cbb91610100909104168415610db65784610e29565b604080516370a0823160e01b815230600482015290516001600160a01b038816916370a08231916024808301926020929190829003018186803b158015610dfc57600080fd5b505afa158015610e10573d6000803e3d6000fd5b505050506040513d6020811015610e2657600080fd5b50515b6040518363ffffffff1660e01b815260040180836001600160a01b0316815260200182815260200192505050602060405180830381600087803b158015610e6f57600080fd5b505af1158015610e83573d6000803e3d6000fd5b505050506040513d6020811015610e9957600080fd5b5051610ee5576040805162461bcd60e51b81526020600482015260166024820152754552433230207472616e73666572206661696c75726560501b604482015290519081900360640190fd5b505050565b60038054604080516020601f6002600019610100600188161502019095169490940493840181900481028201810190925282815260609390929091830182828015610f765780601f10610f4b57610100808354040283529160200191610f76565b820191906000526020600020905b815481529060010190602001808311610f5957829003601f168201915b5050505050905090565b3360008181526007602090815260408083206001600160a01b038716808552908352818420869055815186815291519394909390927f8c5be1e5ebec7d5bd14f71427d1e84f3dd0314c0f7b2291e5b200ac8c7c3b925928290030190a35060015b92915050565b600080805260066020527f54cdd369e4e8a8515e52ca72ec816c2101831ad1f18bf44102ed171459c9b4f85460055461101f91611dcf565b905090565b600061101f6008611e1c565b60008061103d6008611e1c565b8310611090576040805162461bcd60e51b815260206004820152601c60248201527f496e76616c6964206469766964656e6420746f6b656e20696e64657800000000604482015290519081900360640190fd5b61109861272a565b600a8054600991600091879081106110ac57fe5b6000918252602080832091909101546001600160a01b03908116845283820194909452604092830190912082516080810184528154815260018201549281019290925260020154928316918101829052600160a01b90920460ff16151560609092018290529590945092505050565b60005461010090046001600160a01b0316331461116b576040805162461bcd60e51b81526020600482015260096024820152682737ba1037bbb732b960b91b604482015290519081900360640190fd5b60085460ff1661117a57600080fd5b611185600882611e23565b50565b600061119384611fa5565b61119c83611fa5565b6001600160a01b0384166000908152600660205260409020546111bf9083611dcf565b6001600160a01b03851660009081526006602090815260408083209390935560078152828220338352905220546111f69083611dcf565b6001600160a01b0380861660009081526007602090815260408083203384528252808320949094559186168152600690915220546112349083611d88565b6001600160a01b0380851660008181526006602090815260409182902094909455805186815290519193928816926000805160206127ba83398151915292918290030190a35060019392505050565b61128d3333612126565b565b60045460ff1690565b60005461010090046001600160a01b031633146112e8576040805162461bcd60e51b81526020600482015260096024820152682737ba1037bbb732b960b91b604482015290519081900360640190fd5b60085460ff166112f757600080fd5b611303600883836123d3565b5050565b3360009081526001602081815260408084208385529091528220805484919060ff16801561134a57506001810154158061134a5750806001015482826002015401105b61138e576040805162461bcd60e51b815260206004820152601060248201526f139bdd081c195c9b5a5cdcda5bdb995960821b604482015290519081900360640190fd5b600281015461139d9083611d88565b60028201556113ad600186612491565b6001600160a01b0386166000908152600660205260409020546113d09086611d88565b6001600160a01b0387166000908152600660205260409020556005546113f69086611d88565b6005556040805186815290516001600160a01b038816916000916000805160206127ba8339815191529181900360200190a361143186611fa5565b50600195945050505050565b60005461010090046001600160a01b0316331461148d576040805162461bcd60e51b81526020600482015260096024820152682737ba1037bbb732b960b91b604482015290519081900360640190fd5b600060016000866001600160a01b03166001600160a01b031681526020019081526020016000206000858152602001908152602001600020600201549050604051806060016040528084151581526020018381526020018281525060016000876001600160a01b03166001600160a01b03168152602001908152602001600020600086815260200190815260200160002060008201518160000160006101000a81548160ff0219169083151502179055506020820151816001015560408201518160020155905050846001600160a01b03167fe67a76df6139aaa58a2a1331d7961dfefaa82e4290f2410f14e582fcc6e3bd628585858560405180858152602001841515815260200183815260200182815260200194505050505060405180910390a25050505050565b6b204fce5e3e2502611000000081565b6001600160a01b031660009081526006602052604090205490565b600a546060908190819067ffffffffffffffff8111801561160257600080fd5b5060405190808252806020026020018201604052801561162c578160200160208202803683370190505b50600a5490935067ffffffffffffffff8111801561164957600080fd5b50604051908082528060200260200182016040528015611673578160200160208202803683370190505b50600a5490925067ffffffffffffffff8111801561169057600080fd5b506040519080825280602002602001820160405280156116ba578160200160208202803683370190505b50905060005b600a548110156117e0576116d261272a565b600a8054600991600091859081106116e657fe5b6000918252602080832091909101546001600160a01b03908116845283820194909452604092830190912082516080810184528154815260018201549281019290925260020154928316918101829052600160a01b90920460ff161515606083015286519192509086908490811061175a57fe5b6001600160a01b0392831660209182029290920181019190915287821660009081526006825260408082208582015190941682526002909301909152205484518590849081106117a657fe5b6020026020010181815250506117c08160400151876124df565b8383815181106117cc57fe5b6020908102919091010152506001016116c0565b509193909250565b600b6020526000908152604090205481565b60005461010090046001600160a01b031681565b600181565b60028054604080516020601f6000196101006001871615020190941685900493840181900481028201810190925282815260609390929091830182828015610f765780601f10610f4b57610100808354040283529160200191610f76565b3360009081526006602090815260408083206001600160a01b038516845260020190915290205480156119f9573360009081526006602090815260408083206001600160a01b038616808552600290910190925282209190915561193457604051339082156108fc029083906000818181858888f1935050505061192f576040805162461bcd60e51b815260206004820152601060248201526f4554482073656e64206661696c75726560801b604482015290519081900360640190fd5b6119f9565b6040805163a9059cbb60e01b81523360048201526024810183905290516001600160a01b0384169163a9059cbb9160448083019260209291908290030181600087803b15801561198357600080fd5b505af1158015611997573d6000803e3d6000fd5b505050506040513d60208110156119ad57600080fd5b50516119f9576040805162461bcd60e51b81526020600482015260166024820152754552433230207472616e73666572206661696c75726560501b604482015290519081900360640190fd5b6040805182815290516001600160a01b03841691339182917faf46461f0591cc59ce9ccb1354891c7ebf9f9f5490a6cf5e4276866bb1397bdc919081900360200190a45050565b6000611a4b33611fa5565b611a5483611fa5565b33600090815260066020526040902054611a6e9083611dcf565b33600090815260066020526040808220929092556001600160a01b03851681522054611a9a9083611d88565b6001600160a01b0384166000818152600660209081526040918290209390935580518581529051919233926000805160206127ba8339815191529281900390910190a350600192915050565b60005461010090046001600160a01b03163314611b36576040805162461bcd60e51b81526020600482015260096024820152682737ba1037bbb732b960b91b604482015290519081900360640190fd5b60085460ff16611b4a57611b4a6008612563565b611185600882600161257f565b6001600160a01b03918216600090815260076020908152604080832093909416825291909152205490565b6001602081815260009384526040808520909152918352912080549181015460029091015460ff9092169183565b60005461010090046001600160a01b03163314611c00576040805162461bcd60e51b81526020600482015260096024820152682737ba1037bbb732b960b91b604482015290519081900360640190fd5b600080546040516001600160a01b038085169361010090930416917f8be0079c531659141344cd1fd0a4f28419497f9722a3daafe3b4186f6b6457e091a3600080546001600160a01b0390921661010002610100600160a81b0319909216919091179055565b6000611c723383612126565b33600090815260066020526040902054611c8c9084611dcf565b33600090815260066020526040902055600554611ca99084611dcf565b60055560408051848152905160009133916000805160206127ba8339815191529181900360200190a350600192915050565b818102821580611cf3575081838281611cf057fe5b04145b610fe1576040805162461bcd60e51b815260206004820152600c60248201526b4d756c206f766572666c6f7760a01b604482015290519081900360640190fd5b6000808211611d77576040805162461bcd60e51b815260206004820152600b60248201526a044697669646520627920360ac1b604482015290519081900360640190fd5b818381611d8057fe5b049392505050565b81810182811015610fe1576040805162461bcd60e51b815260206004820152600c60248201526b416464206f766572666c6f7760a01b604482015290519081900360640190fd5b600082821115611e16576040805162461bcd60e51b815260206004820152600d60248201526c53756220756e646572666c6f7760981b604482015290519081900360640190fd5b50900390565b6002015490565b6001600160a01b0381166000908152600183016020526040902054611e795760405162461bcd60e51b815260040180806020018281038252602c81526020018061275e602c913960400191505060405180910390fd5b6001600160a01b0381166000818152600180850160205260408083209091015490519092917fb661ea3e6b1e6046d6862e5d73c56417aa72f1a2f9a46e0718a9733d6ece488291a260028301805460001981019160009183908110611eda57fe5b6000918252602090912001546002860180546001600160a01b039092169250829185908110611f0557fe5b600091825260208083209190910180546001600160a01b0319166001600160a01b039485161790558383168252600188810190915260408083208201879055928716825291812081815591820155600290810180546001600160a81b031916905585015415611f9e5784600201805480611f7b57fe5b600082815260209020810160001990810180546001600160a01b03191690550190555b5050505050565b60005b600a5481101561130357611fba61272a565b600a805460099160009185908110611fce57fe5b6000918252602080832091909101546001600160a01b0390811684528382019490945260409283019091208251608081018452815481526001820154928101929092526002015492831691810191909152600160a01b90910460ff16158015606083015290915061211d5760006120498260400151856124df565b9050801561211b576040808301516001600160a01b03166000908152600c60205220546120769082611dcf565b604080840180516001600160a01b039081166000908152600c6020908152848220959095558882168152600685528381209251909116815260029091019092529020546120c39082611d88565b6001600160a01b03808616600081815260066020818152604080842089820180518816865260028201845282862098909855875187168552600b83528185205495855292825295519094168252600101909252919020555b505b50600101611fa8565b61212f82611fa5565b60005b600a54811015610ee55761214461272a565b600a80546009916000918590811061215857fe5b6000918252602080832091909101546001600160a01b0390811684528382019490945260409283019091208251608081018452815481526001820154928101929092526002015492831691810191909152600160a01b90910460ff1615801560608301529091506123ca576001600160a01b038085166000908152600660209081526040808320858201519094168352600290930190522054801561236f576001600160a01b0380861660009081526006602090815260408083208682018051861685526002909101909252822091909155511661229e576040516001600160a01b0385169082156108fc029083906000818181858888f19350505050612299576040805162461bcd60e51b815260206004820152601060248201526f4554482073656e64206661696c75726560801b604482015290519081900360640190fd5b61236f565b81604001516001600160a01b031663a9059cbb85836040518363ffffffff1660e01b815260040180836001600160a01b0316815260200182815260200192505050602060405180830381600087803b1580156122f957600080fd5b505af115801561230d573d6000803e3d6000fd5b505050506040513d602081101561232357600080fd5b505161236f576040805162461bcd60e51b81526020600482015260166024820152754552433230207472616e73666572206661696c75726560501b604482015290519081900360640190fd5b81604001516001600160a01b0316846001600160a01b0316866001600160a01b03167faf46461f0591cc59ce9ccb1354891c7ebf9f9f5490a6cf5e4276866bb1397bdc846040518082815260200191505060405180910390a4505b50600101612132565b6001600160a01b03821660009081526001840160205260409020805461242a5760405162461bcd60e51b815260040180806020018281038252602c81526020018061275e602c913960400191505060405180910390fd5b428155600281018054831515600160a01b810260ff60a01b199092169190911790915560408051918252516001600160a01b038516917faff1d9fe56fe05c388371193a9a45b678ef42a350cb1e4193759c73f6b579093919081900360200190a250505050565b3360009081526001602090815260408083208584529091529020600201546124b99082611d88565b336000908152600160209081526040808320958352949052929092206002019190915550565b6001600160a01b03808216600090815260066020908152604080832093861683526001909301815282822054600b909152918120549091829161252191611dcf565b6001600160a01b0384166000908152600660205260408120549192509061255a906b204fce5e3e250261100000009061099e9085611cdb565b95945050505050565b805460ff161561257257600080fd5b805460ff19166001179055565b6001600160a01b0382166000908152600184016020526040902054156125d65760405162461bcd60e51b81526004018080602001828103825260278152602001806127da6027913960400191505060405180910390fd5b82600201829080600181540180825580915050600190039060005260206000200160009091909190916101000a8154816001600160a01b0302191690836001600160a01b03160217905550604051806080016040528042815260200160018560020180549050038152602001836001600160a01b03168152602001821515815250836001016000846001600160a01b03166001600160a01b03168152602001908152602001600020600082015181600001556020820151816001015560408201518160020160006101000a8154816001600160a01b0302191690836001600160a01b0316021790555060608201518160020160146101000a81548160ff021916908315150217905550905050816001600160a01b03167f1243eb13657d02b7ad57424440e4c1a04c1199e04e5b53fe2ea33f78d60ea4268260405180821515815260200191505060405180910390a2505050565b6040518060800160405280600081526020016000815260200160006001600160a01b03168152602001600015158152509056fe4469766964656e64546f6b656e2e7570646174653a2041646472657373206e6f74207265676973746572656443616e6e6f74207265636f76657220746f6b656e7320666f7220656e61626c6564206469766964656e6420746f6b656eddf252ad1be2c89b69c2b068fc378daa952ba7f163c4a11628f55a4df523b3ef4469766964656e64546f6b656e2e6164643a2043616e6e6f7420616464206475706c6963617465a264697066735822122030da8b0328534ce6b43eed6d23d37977cc1bfe6e9e12f4b3f8a8bb605d373f2264736f6c63430007010033",
  "linkReferences": {},
  "deployedLinkReferences": {}
}