{
  "_format": "hh-sol-artifact-1",
  "contractName": "OGDToken",
  "sourceName": "contracts/OGDToken.sol",
  "abi": [
    {
      "inputs": [
        {
          "internalType": "string",
          "name": "symbol",
          "type": "string"
        },
        {
          "internalType": "string",
          "name": "name",
          "type": "string"
        },
        {
          "internalType": "uint8",
          "name": "decimals",
          "type": "uint8"
        },
        {
          "internalType": "address",
          "name": "tokenOwner",
          "type": "address"
        },
        {
          "internalType": "uint256",
          "name": "initialSupply",
          "type": "uint256"
        }
      ],
      "stateMutability": "nonpayable",
      "type": "constructor"
    },
    {
      "anonymous": false,
      "inputs": [
        {
          "indexed": true,
          "internalType": "address",
          "name": "tokenOwner",
          "type": "address"
        },
        {
          "indexed": true,
          "internalType": "address",
          "name": "spender",
          "type": "address"
        },
        {
          "indexed": false,
          "internalType": "uint256",
          "name": "tokens",
          "type": "uint256"
        }
      ],
      "name": "Approval",
      "type": "event"
    },
    {
      "anonymous": false,
      "inputs": [
        {
          "indexed": true,
          "internalType": "address",
          "name": "token",
          "type": "address"
        },
        {
          "indexed": false,
          "internalType": "uint256",
          "name": "tokens",
          "type": "uint256"
        }
      ],
      "name": "DividendDeposited",
      "type": "event"
    },
    {
      "anonymous": false,
      "inputs": [
        {
          "indexed": true,
          "internalType": "address",
          "name": "token",
          "type": "address"
        },
        {
          "indexed": false,
          "internalType": "bool",
          "name": "enabled",
          "type": "bool"
        }
      ],
      "name": "DividendTokenAdded",
      "type": "event"
    },
    {
      "anonymous": false,
      "inputs": [
        {
          "indexed": true,
          "internalType": "address",
          "name": "token",
          "type": "address"
        }
      ],
      "name": "DividendTokenRemoved",
      "type": "event"
    },
    {
      "anonymous": false,
      "inputs": [
        {
          "indexed": true,
          "internalType": "address",
          "name": "token",
          "type": "address"
        },
        {
          "indexed": false,
          "internalType": "bool",
          "name": "enabled",
          "type": "bool"
        }
      ],
      "name": "DividendTokenUpdated",
      "type": "event"
    },
    {
      "anonymous": false,
      "inputs": [
        {
          "indexed": true,
          "internalType": "address",
          "name": "account",
          "type": "address"
        },
        {
          "indexed": true,
          "internalType": "address",
          "name": "destination",
          "type": "address"
        },
        {
          "indexed": true,
          "internalType": "address",
          "name": "token",
          "type": "address"
        },
        {
          "indexed": false,
          "internalType": "uint256",
          "name": "tokens",
          "type": "uint256"
        }
      ],
      "name": "DividendWithdrawn",
      "type": "event"
    },
    {
      "anonymous": false,
      "inputs": [
        {
          "indexed": true,
          "internalType": "address",
          "name": "from",
          "type": "address"
        },
        {
          "indexed": true,
          "internalType": "address",
          "name": "to",
          "type": "address"
        }
      ],
      "name": "OwnershipTransferred",
      "type": "event"
    },
    {
      "anonymous": false,
      "inputs": [
        {
          "indexed": true,
          "internalType": "address",
          "name": "account",
          "type": "address"
        },
        {
          "indexed": false,
          "internalType": "uint256",
          "name": "role",
          "type": "uint256"
        },
        {
          "indexed": false,
          "internalType": "bool",
          "name": "active",
          "type": "bool"
        },
        {
          "indexed": false,
          "internalType": "uint256",
          "name": "maximum",
          "type": "uint256"
        },
        {
          "indexed": false,
          "internalType": "uint256",
          "name": "processed",
          "type": "uint256"
        }
      ],
      "name": "PermissionUpdated",
      "type": "event"
    },
    {
      "anonymous": false,
      "inputs": [
        {
          "indexed": true,
          "internalType": "address",
          "name": "from",
          "type": "address"
        },
        {
          "indexed": true,
          "internalType": "address",
          "name": "to",
          "type": "address"
        },
        {
          "indexed": false,
          "internalType": "uint256",
          "name": "tokens",
          "type": "uint256"
        }
      ],
      "name": "Transfer",
      "type": "event"
    },
    {
      "anonymous": false,
      "inputs": [
        {
          "indexed": false,
          "internalType": "address",
          "name": "dividendToken",
          "type": "address"
        },
        {
          "indexed": false,
          "internalType": "address",
          "name": "account",
          "type": "address"
        },
        {
          "indexed": false,
          "internalType": "uint256",
          "name": "owing",
          "type": "uint256"
        },
        {
          "indexed": false,
          "internalType": "uint256",
          "name": "totalOwing",
          "type": "uint256"
        },
        {
          "indexed": false,
          "internalType": "uint256",
          "name": "lastDividendPoints",
          "type": "uint256"
        },
        {
          "indexed": false,
          "internalType": "uint256",
          "name": "totalDividendPoints",
          "type": "uint256"
        },
        {
          "indexed": false,
          "internalType": "uint256",
          "name": "unclaimedDividends",
          "type": "uint256"
        }
      ],
      "name": "UpdateAccountInfo",
      "type": "event"
    },
    {
      "inputs": [],
      "name": "ROLE_DIVIDENDWITHDRAWER",
      "outputs": [
        {
          "internalType": "uint256",
          "name": "",
          "type": "uint256"
        }
      ],
      "stateMutability": "view",
      "type": "function"
    },
    {
      "inputs": [],
      "name": "ROLE_MINTER",
      "outputs": [
        {
          "internalType": "uint256",
          "name": "",
          "type": "uint256"
        }
      ],
      "stateMutability": "view",
      "type": "function"
    },
    {
      "inputs": [
        {
          "internalType": "address",
          "name": "_dividendToken",
          "type": "address"
        }
      ],
      "name": "addDividendToken",
      "outputs": [],
      "stateMutability": "nonpayable",
      "type": "function"
    },
    {
      "inputs": [
        {
          "internalType": "address",
          "name": "tokenOwner",
          "type": "address"
        },
        {
          "internalType": "address",
          "name": "spender",
          "type": "address"
        }
      ],
      "name": "allowance",
      "outputs": [
        {
          "internalType": "uint256",
          "name": "remaining",
          "type": "uint256"
        }
      ],
      "stateMutability": "view",
      "type": "function"
    },
    {
      "inputs": [
        {
          "internalType": "address",
          "name": "spender",
          "type": "address"
        },
        {
          "internalType": "uint256",
          "name": "tokens",
          "type": "uint256"
        }
      ],
      "name": "approve",
      "outputs": [
        {
          "internalType": "bool",
          "name": "success",
          "type": "bool"
        }
      ],
      "stateMutability": "nonpayable",
      "type": "function"
    },
    {
      "inputs": [
        {
          "internalType": "address",
          "name": "tokenOwner",
          "type": "address"
        }
      ],
      "name": "balanceOf",
      "outputs": [
        {
          "internalType": "uint256",
          "name": "balance",
          "type": "uint256"
        }
      ],
      "stateMutability": "view",
      "type": "function"
    },
    {
      "inputs": [
        {
          "internalType": "uint256",
          "name": "tokens",
          "type": "uint256"
        },
        {
          "internalType": "address",
          "name": "payDividendsTo",
          "type": "address"
        }
      ],
      "name": "burn",
      "outputs": [
        {
          "internalType": "bool",
          "name": "success",
          "type": "bool"
        }
      ],
      "stateMutability": "nonpayable",
      "type": "function"
    },
    {
      "inputs": [],
      "name": "decimals",
      "outputs": [
        {
          "internalType": "uint8",
          "name": "",
          "type": "uint8"
        }
      ],
      "stateMutability": "view",
      "type": "function"
    },
    {
      "inputs": [
        {
          "internalType": "address",
          "name": "token",
          "type": "address"
        },
        {
          "internalType": "uint256",
          "name": "tokens",
          "type": "uint256"
        }
      ],
      "name": "depositDividend",
      "outputs": [],
      "stateMutability": "payable",
      "type": "function"
    },
    {
      "inputs": [],
      "name": "dividendTokensLength",
      "outputs": [
        {
          "internalType": "uint256",
          "name": "",
          "type": "uint256"
        }
      ],
      "stateMutability": "view",
      "type": "function"
    },
    {
      "inputs": [
        {
          "internalType": "address",
          "name": "account",
          "type": "address"
        }
      ],
      "name": "dividendsOwing",
      "outputs": [
        {
          "internalType": "address[]",
          "name": "tokenList",
          "type": "address[]"
        },
        {
          "internalType": "uint256[]",
          "name": "owingList",
          "type": "uint256[]"
        },
        {
          "internalType": "uint256[]",
          "name": "newOwingList",
          "type": "uint256[]"
        }
      ],
      "stateMutability": "view",
      "type": "function"
    },
    {
      "inputs": [
        {
          "internalType": "uint256",
          "name": "i",
          "type": "uint256"
        }
      ],
      "name": "getDividendTokenByIndex",
      "outputs": [
        {
          "internalType": "address",
          "name": "",
          "type": "address"
        },
        {
          "internalType": "bool",
          "name": "",
          "type": "bool"
        }
      ],
      "stateMutability": "view",
      "type": "function"
    },
    {
      "inputs": [
        {
          "internalType": "address",
          "name": "tokenOwner",
          "type": "address"
        },
        {
          "internalType": "uint256",
          "name": "tokens",
          "type": "uint256"
        }
      ],
      "name": "mint",
      "outputs": [
        {
          "internalType": "bool",
          "name": "success",
          "type": "bool"
        }
      ],
      "stateMutability": "nonpayable",
      "type": "function"
    },
    {
      "inputs": [],
      "name": "name",
      "outputs": [
        {
          "internalType": "string",
          "name": "",
          "type": "string"
        }
      ],
      "stateMutability": "view",
      "type": "function"
    },
    {
      "inputs": [],
      "name": "owner",
      "outputs": [
        {
          "internalType": "address",
          "name": "",
          "type": "address"
        }
      ],
      "stateMutability": "view",
      "type": "function"
    },
    {
      "inputs": [
        {
          "internalType": "address",
          "name": "",
          "type": "address"
        },
        {
          "internalType": "uint256",
          "name": "",
          "type": "uint256"
        }
      ],
      "name": "permissions",
      "outputs": [
        {
          "internalType": "bool",
          "name": "active",
          "type": "bool"
        },
        {
          "internalType": "uint256",
          "name": "maximum",
          "type": "uint256"
        },
        {
          "internalType": "uint256",
          "name": "processed",
          "type": "uint256"
        }
      ],
      "stateMutability": "view",
      "type": "function"
    },
    {
      "inputs": [],
      "name": "pointMultiplier",
      "outputs": [
        {
          "internalType": "uint256",
          "name": "",
          "type": "uint256"
        }
      ],
      "stateMutability": "view",
      "type": "function"
    },
    {
      "inputs": [
        {
          "internalType": "address",
          "name": "token",
          "type": "address"
        },
        {
          "internalType": "uint256",
          "name": "tokens",
          "type": "uint256"
        }
      ],
      "name": "recoverTokens",
      "outputs": [],
      "stateMutability": "nonpayable",
      "type": "function"
    },
    {
      "inputs": [
        {
          "internalType": "address",
          "name": "token",
          "type": "address"
        }
      ],
      "name": "removeDividendToken",
      "outputs": [],
      "stateMutability": "nonpayable",
      "type": "function"
    },
    {
      "inputs": [
        {
          "internalType": "address",
          "name": "account",
          "type": "address"
        },
        {
          "internalType": "uint256",
          "name": "role",
          "type": "uint256"
        },
        {
          "internalType": "bool",
          "name": "active",
          "type": "bool"
        },
        {
          "internalType": "uint256",
          "name": "maximum",
          "type": "uint256"
        }
      ],
      "name": "setPermission",
      "outputs": [],
      "stateMutability": "nonpayable",
      "type": "function"
    },
    {
      "inputs": [],
      "name": "symbol",
      "outputs": [
        {
          "internalType": "string",
          "name": "",
          "type": "string"
        }
      ],
      "stateMutability": "view",
      "type": "function"
    },
    {
      "inputs": [
        {
          "internalType": "address",
          "name": "",
          "type": "address"
        }
      ],
      "name": "totalDividendPoints",
      "outputs": [
        {
          "internalType": "uint256",
          "name": "",
          "type": "uint256"
        }
      ],
      "stateMutability": "view",
      "type": "function"
    },
    {
      "inputs": [],
      "name": "totalSupply",
      "outputs": [
        {
          "internalType": "uint256",
          "name": "",
          "type": "uint256"
        }
      ],
      "stateMutability": "view",
      "type": "function"
    },
    {
      "inputs": [
        {
          "internalType": "address",
          "name": "to",
          "type": "address"
        },
        {
          "internalType": "uint256",
          "name": "tokens",
          "type": "uint256"
        }
      ],
      "name": "transfer",
      "outputs": [
        {
          "internalType": "bool",
          "name": "success",
          "type": "bool"
        }
      ],
      "stateMutability": "nonpayable",
      "type": "function"
    },
    {
      "inputs": [
        {
          "internalType": "address",
          "name": "from",
          "type": "address"
        },
        {
          "internalType": "address",
          "name": "to",
          "type": "address"
        },
        {
          "internalType": "uint256",
          "name": "tokens",
          "type": "uint256"
        }
      ],
      "name": "transferFrom",
      "outputs": [
        {
          "internalType": "bool",
          "name": "success",
          "type": "bool"
        }
      ],
      "stateMutability": "nonpayable",
      "type": "function"
    },
    {
      "inputs": [
        {
          "internalType": "address",
          "name": "_newOwner",
          "type": "address"
        }
      ],
      "name": "transferOwnership",
      "outputs": [],
      "stateMutability": "nonpayable",
      "type": "function"
    },
    {
      "inputs": [
        {
          "internalType": "address",
          "name": "",
          "type": "address"
        }
      ],
      "name": "unclaimedDividends",
      "outputs": [
        {
          "internalType": "uint256",
          "name": "",
          "type": "uint256"
        }
      ],
      "stateMutability": "view",
      "type": "function"
    },
    {
      "inputs": [
        {
          "internalType": "address",
          "name": "token",
          "type": "address"
        },
        {
          "internalType": "bool",
          "name": "enabled",
          "type": "bool"
        }
      ],
      "name": "updateDividendToken",
      "outputs": [],
      "stateMutability": "nonpayable",
      "type": "function"
    },
    {
      "inputs": [
        {
          "internalType": "address",
          "name": "token",
          "type": "address"
        }
      ],
      "name": "withdrawDividendByToken",
      "outputs": [],
      "stateMutability": "nonpayable",
      "type": "function"
    },
    {
      "inputs": [],
      "name": "withdrawDividends",
      "outputs": [],
      "stateMutability": "nonpayable",
      "type": "function"
    },
    {
      "inputs": [
        {
          "internalType": "address",
          "name": "account",
          "type": "address"
        },
        {
          "internalType": "address",
          "name": "destination",
          "type": "address"
        }
      ],
      "name": "withdrawDividendsFor",
      "outputs": [
        {
          "internalType": "bool",
          "name": "success",
          "type": "bool"
        }
      ],
      "stateMutability": "nonpayable",
      "type": "function"
    },
    {
      "stateMutability": "payable",
      "type": "receive"
    }
  ],
  "bytecode": "0x60806040523480156200001157600080fd5b5060405162002fac38038062002fac833981810160405260a08110156200003757600080fd5b81019080805160405193929190846401000000008211156200005857600080fd5b9083019060208201858111156200006e57600080fd5b82516401000000008111828201881017156200008957600080fd5b82525081516020918201929091019080838360005b83811015620000b85781810151838201526020016200009e565b50505050905090810190601f168015620000e65780820380516001836020036101000a031916815260200191505b50604052602001805160405193929190846401000000008211156200010a57600080fd5b9083019060208201858111156200012057600080fd5b82516401000000008111828201881017156200013b57600080fd5b82525081516020918201929091019080838360005b838110156200016a57818101518382015260200162000150565b50505050905090810190601f168015620001985780820380516001836020036101000a031916815260200191505b506040908152602082015190820151606090920151909350909150620001be3362000259565b8451620001d3906002906020880190620002ef565b508351620001e9906003906020870190620002ef565b506004805460ff191660ff85161790556001600160a01b03821660008181526006602090815260408083208590556005859055805185815290517fddf252ad1be2c89b69c2b068fc378daa952ba7f163c4a11628f55a4df523b3ef929181900390910190a350505050506200038b565b620002648162000267565b50565b60005460ff1615620002c0576040805162461bcd60e51b815260206004820152601360248201527f416c726561647920696e697469616c6973656400000000000000000000000000604482015290519081900360640190fd5b6000805460ff196001600160a01b0390931661010002610100600160a81b031990911617919091166001179055565b828054600181600116156101000203166002900490600052602060002090601f016020900481019282601f106200033257805160ff191683800117855562000362565b8280016001018555821562000362579182015b828111156200036257825182559160200191906001019062000345565b506200037092915062000374565b5090565b5b8082111562000370576000815560010162000375565b612c11806200039b6000396000f3fe6080604052600436106101dc5760003560e01c8063458a474c1161010257806395d89b4111610095578063e9d79b0e11610064578063e9d79b0e14610832578063f094190d1461088b578063f2fde38b146108c6578063fcd3533c146108f9576101ee565b806395d89b4114610776578063a9059cbb1461078b578063db847b4e146107c4578063dd62ed3e146107f7576101ee565b80638391e45c116100d15780638391e45c146105ec5780638681a374146106fd5780638da5cb5b1461073057806392afc33a14610761576101ee565b8063458a474c146105315780635f78d6bd14610578578063658b98a9146105a457806370a08231146105b9576101ee565b80631cc5b3061161017a5780632e92abdd116101495780632e92abdd1461047d578063313ce5671461049257806337eef834146104bd57806340c10f19146104f8576101ee565b80631cc5b306146103a55780631ccbf73b146103ba5780631e4261a91461040757806323b872dd1461043a576101ee565b806306fdde03116101b657806306fdde0314610286578063095ea7b3146103105780631623b0811461035d57806318160ddd14610390576101ee565b80630150a4ce146101f35780630490c71c1461021a578063069c9fae1461024d576101ee565b366101ee576101ec600034610932565b005b600080fd5b3480156101ff57600080fd5b50610208610c57565b60408051918252519081900360200190f35b34801561022657600080fd5b506102086004803603602081101561023d57600080fd5b50356001600160a01b0316610c5c565b34801561025957600080fd5b506101ec6004803603604081101561027057600080fd5b506001600160a01b038135169060200135610c6e565b34801561029257600080fd5b5061029b610f55565b6040805160208082528351818301528351919283929083019185019080838360005b838110156102d55781810151838201526020016102bd565b50505050905090810190601f1680156103025780820380516001836020036101000a031916815260200191505b509250505060405180910390f35b34801561031c57600080fd5b506103496004803603604081101561033357600080fd5b506001600160a01b038135169060200135610feb565b604080519115158252519081900360200190f35b34801561036957600080fd5b506101ec6004803603602081101561038057600080fd5b50356001600160a01b0316611052565b34801561039c57600080fd5b5061020861122a565b3480156103b157600080fd5b50610208611267565b3480156103c657600080fd5b506103e4600480360360208110156103dd57600080fd5b5035611273565b604080516001600160a01b03909316835290151560208301528051918290030190f35b34801561041357600080fd5b506101ec6004803603602081101561042a57600080fd5b50356001600160a01b031661135e565b34801561044657600080fd5b506103496004803603606081101561045d57600080fd5b506001600160a01b038135811691602081013590911690604001356113cb565b34801561048957600080fd5b506101ec6114be565b34801561049e57600080fd5b506104a76114ca565b6040805160ff9092168252519081900360200190f35b3480156104c957600080fd5b506101ec600480360360408110156104e057600080fd5b506001600160a01b03813516906020013515156114d3565b34801561050457600080fd5b506103496004803603604081101561051b57600080fd5b506001600160a01b038135169060200135611542565b34801561053d57600080fd5b506101ec6004803603608081101561055457600080fd5b506001600160a01b0381351690602081013590604081013515159060600135611678565b6101ec6004803603604081101561058e57600080fd5b506001600160a01b038135169060200135610932565b3480156105b057600080fd5b506102086117f2565b3480156105c557600080fd5b50610208600480360360208110156105dc57600080fd5b50356001600160a01b0316611802565b3480156105f857600080fd5b5061061f6004803603602081101561060f57600080fd5b50356001600160a01b031661181d565b60405180806020018060200180602001848103845287818151815260200191508051906020019060200280838360005b8381101561066757818101518382015260200161064f565b50505050905001848103835286818151815260200191508051906020019060200280838360005b838110156106a657818101518382015260200161068e565b50505050905001848103825285818151815260200191508051906020019060200280838360005b838110156106e55781810151838201526020016106cd565b50505050905001965050505050505060405180910390f35b34801561070957600080fd5b506102086004803603602081101561072057600080fd5b50356001600160a01b0316611a23565b34801561073c57600080fd5b50610745611a35565b604080516001600160a01b039092168252519081900360200190f35b34801561076d57600080fd5b50610208611a49565b34801561078257600080fd5b5061029b611a4e565b34801561079757600080fd5b50610349600480360360408110156107ae57600080fd5b506001600160a01b038135169060200135611aac565b3480156107d057600080fd5b506101ec600480360360208110156107e757600080fd5b50356001600160a01b0316611b4a565b34801561080357600080fd5b506102086004803603604081101561081a57600080fd5b506001600160a01b0381358116916020013516611bbb565b34801561083e57600080fd5b5061086b6004803603604081101561085557600080fd5b506001600160a01b038135169060200135611be6565b604080519315158452602084019290925282820152519081900360600190f35b34801561089757600080fd5b50610349600480360360408110156108ae57600080fd5b506001600160a01b0381358116916020013516611c14565b3480156108d257600080fd5b506101ec600480360360208110156108e957600080fd5b50356001600160a01b0316611cd5565b34801561090557600080fd5b506103496004803603604081101561091c57600080fd5b50803590602001356001600160a01b0316611d8b565b61093a612b05565b506001600160a01b038281166000908152600960209081526040918290208251608081018452815481526001820154928101929092526002015492831691810191909152600160a01b90910460ff161515606082018190526109e3576040805162461bcd60e51b815260206004820152601d60248201527f4469766964656e6420746f6b656e206973206e6f7420656e61626c6564000000604482015290519081900360640190fd5b600554610a2990610a0a90610a04856b204fce5e3e25026110000000611dff565b90611e57565b6001600160a01b0385166000908152600b602052604090205490611eac565b6001600160a01b0384166000908152600b6020908152604080832093909355600c90522054610a589083611eac565b6001600160a01b0384166000818152600c6020526040902091909155610b415781341015610ac5576040805162461bcd60e51b8152602060048201526015602482015274125b9cdd59999a58da595b9d08115512081cd95b9d605a1b604482015290519081900360640190fd5b6000610ad13484611ef3565b90508015610b3b57604051339082156108fc029083906000818181858888f19350505050610b3b576040805162461bcd60e51b815260206004820152601260248201527145544820726566756e64206661696c75726560701b604482015290519081900360640190fd5b50610c13565b604080516323b872dd60e01b81523360048201523060248201526044810184905290516001600160a01b038516916323b872dd9160648083019260209291908290030181600087803b158015610b9657600080fd5b505af1158015610baa573d6000803e3d6000fd5b505050506040513d6020811015610bc057600080fd5b5051610c13576040805162461bcd60e51b815260206004820152601a60248201527f4552433230207472616e7366657246726f6d206661696c757265000000000000604482015290519081900360640190fd5b6040805183815290516001600160a01b038516917fbc6649fd5a3b1c469e2597719e34abed740a2e561754af459620a934587f5d04919081900360200190a2505050565b600281565b600c6020526000908152604090205481565b60005461010090046001600160a01b03163314610cbe576040805162461bcd60e51b81526020600482015260096024820152682737ba1037bbb732b960b91b604482015290519081900360640190fd5b610cc6612b05565b506001600160a01b038281166000908152600960209081526040918290208251608081018452815480825260018301549382019390935260029091015493841692810192909252600160a01b90920460ff1615156060820152901580610d2e57508060600151155b610d695760405162461bcd60e51b8152600401808060200182810382526030815260200180612b656030913960400191505060405180910390fd5b6001600160a01b038316610df95760005461010090046001600160a01b03166108fc8315610d975783610d99565b475b6040518115909202916000818181858888f19350505050610df4576040805162461bcd60e51b815260206004820152601060248201526f4554482073656e64206661696c75726560801b604482015290519081900360640190fd5b610f50565b6000546001600160a01b038085169163a9059cbb91610100909104168415610e215784610e94565b604080516370a0823160e01b815230600482015290516001600160a01b038816916370a08231916024808301926020929190829003018186803b158015610e6757600080fd5b505afa158015610e7b573d6000803e3d6000fd5b505050506040513d6020811015610e9157600080fd5b50515b6040518363ffffffff1660e01b815260040180836001600160a01b0316815260200182815260200192505050602060405180830381600087803b158015610eda57600080fd5b505af1158015610eee573d6000803e3d6000fd5b505050506040513d6020811015610f0457600080fd5b5051610f50576040805162461bcd60e51b81526020600482015260166024820152754552433230207472616e73666572206661696c75726560501b604482015290519081900360640190fd5b505050565b60038054604080516020601f6002600019610100600188161502019095169490940493840181900481028201810190925282815260609390929091830182828015610fe15780601f10610fb657610100808354040283529160200191610fe1565b820191906000526020600020905b815481529060010190602001808311610fc457829003601f168201915b5050505050905090565b3360008181526007602090815260408083206001600160a01b038716808552908352818420869055815186815291519394909390927f8c5be1e5ebec7d5bd14f71427d1e84f3dd0314c0f7b2291e5b200ac8c7c3b925928290030190a35060015b92915050565b61105b33611f40565b3360009081526006602090815260408083206001600160a01b038516845260020190915290205480156111e3573360009081526006602090815260408083206001600160a01b038616808552600290910190925282209190915561111e57604051339082156108fc029083906000818181858888f19350505050611119576040805162461bcd60e51b815260206004820152601060248201526f4554482073656e64206661696c75726560801b604482015290519081900360640190fd5b6111e3565b6040805163a9059cbb60e01b81523360048201526024810183905290516001600160a01b0384169163a9059cbb9160448083019260209291908290030181600087803b15801561116d57600080fd5b505af1158015611181573d6000803e3d6000fd5b505050506040513d602081101561119757600080fd5b50516111e3576040805162461bcd60e51b81526020600482015260166024820152754552433230207472616e73666572206661696c75726560501b604482015290519081900360640190fd5b6040805182815290516001600160a01b03841691339182917faf46461f0591cc59ce9ccb1354891c7ebf9f9f5490a6cf5e4276866bb1397bdc919081900360200190a45050565b600080805260066020527f54cdd369e4e8a8515e52ca72ec816c2101831ad1f18bf44102ed171459c9b4f85460055461126291611ef3565b905090565b600061126260086120d9565b60008061128060086120d9565b83106112d3576040805162461bcd60e51b815260206004820152601c60248201527f496e76616c6964206469766964656e6420746f6b656e20696e64657800000000604482015290519081900360640190fd5b6112db612b05565b600a8054600991600091879081106112ef57fe5b6000918252602080832091909101546001600160a01b03908116845283820194909452604092830190912082516080810184528154815260018201549281019290925260020154928316918101829052600160a01b90920460ff16151560609092018290529590945092505050565b60005461010090046001600160a01b031633146113ae576040805162461bcd60e51b81526020600482015260096024820152682737ba1037bbb732b960b91b604482015290519081900360640190fd5b60085460ff166113bd57600080fd5b6113c86008826120e0565b50565b60006113d78484612262565b6001600160a01b0384166000908152600660205260409020546113fa9083611ef3565b6001600160a01b03851660009081526006602090815260408083209390935560078152828220338352905220546114319083611ef3565b6001600160a01b03808616600090815260076020908152604080832033845282528083209490945591861681526006909152205461146f9083611eac565b6001600160a01b038085166000818152600660209081526040918290209490945580518681529051919392881692600080516020612b9583398151915292918290030190a35060019392505050565b6114c83333612502565b565b60045460ff1690565b60005461010090046001600160a01b03163314611523576040805162461bcd60e51b81526020600482015260096024820152682737ba1037bbb732b960b91b604482015290519081900360640190fd5b60085460ff1661153257600080fd5b61153e600883836127b0565b5050565b3360009081526001602081815260408084208385529091528220805484919060ff1680156115855750600181015415806115855750806001015482826002015401105b6115c9576040805162461bcd60e51b815260206004820152601060248201526f139bdd081c195c9b5a5cdcda5bdb995960821b604482015290519081900360640190fd5b60028101546115d89083611eac565b60028201556115e860018661286e565b6115f186611f40565b6001600160a01b0386166000908152600660205260409020546116149086611eac565b6001600160a01b03871660009081526006602052604090205560055461163a9086611eac565b6005556040805186815290516001600160a01b03881691600091600080516020612b958339815191529181900360200190a350600195945050505050565b60005461010090046001600160a01b031633146116c8576040805162461bcd60e51b81526020600482015260096024820152682737ba1037bbb732b960b91b604482015290519081900360640190fd5b600060016000866001600160a01b03166001600160a01b031681526020019081526020016000206000858152602001908152602001600020600201549050604051806060016040528084151581526020018381526020018281525060016000876001600160a01b03166001600160a01b03168152602001908152602001600020600086815260200190815260200160002060008201518160000160006101000a81548160ff0219169083151502179055506020820151816001015560408201518160020155905050846001600160a01b03167fe67a76df6139aaa58a2a1331d7961dfefaa82e4290f2410f14e582fcc6e3bd628585858560405180858152602001841515815260200183815260200182815260200194505050505060405180910390a25050505050565b6b204fce5e3e2502611000000081565b6001600160a01b031660009081526006602052604090205490565b600a546060908190819067ffffffffffffffff8111801561183d57600080fd5b50604051908082528060200260200182016040528015611867578160200160208202803683370190505b50600a5490935067ffffffffffffffff8111801561188457600080fd5b506040519080825280602002602001820160405280156118ae578160200160208202803683370190505b50600a5490925067ffffffffffffffff811180156118cb57600080fd5b506040519080825280602002602001820160405280156118f5578160200160208202803683370190505b50905060005b600a54811015611a1b5761190d612b05565b600a80546009916000918590811061192157fe5b6000918252602080832091909101546001600160a01b03908116845283820194909452604092830190912082516080810184528154815260018201549281019290925260020154928316918101829052600160a01b90920460ff161515606083015286519192509086908490811061199557fe5b6001600160a01b0392831660209182029290920181019190915287821660009081526006825260408082208582015190941682526002909301909152205484518590849081106119e157fe5b6020026020010181815250506119fb8160400151876128bc565b838381518110611a0757fe5b6020908102919091010152506001016118fb565b509193909250565b600b6020526000908152604090205481565b60005461010090046001600160a01b031681565b600181565b60028054604080516020601f6000196101006001871615020190941685900493840181900481028201810190925282815260609390929091830182828015610fe15780601f10610fb657610100808354040283529160200191610fe1565b6000611ab83384612262565b33600090815260066020526040902054611ad29083611ef3565b33600090815260066020526040808220929092556001600160a01b03851681522054611afe9083611eac565b6001600160a01b038416600081815260066020908152604091829020939093558051858152905191923392600080516020612b958339815191529281900390910190a350600192915050565b60005461010090046001600160a01b03163314611b9a576040805162461bcd60e51b81526020600482015260096024820152682737ba1037bbb732b960b91b604482015290519081900360640190fd5b60085460ff16611bae57611bae600861293e565b6113c8600882600161295a565b6001600160a01b03918216600090815260076020908152604080832093909416825291909152205490565b6001602081815260009384526040808520909152918352912080549181015460029091015460ff9092169183565b336000908152600160209081526040808320600280855292528220805483919060ff168015611c58575060018101541580611c585750806001015482826002015401105b611c9c576040805162461bcd60e51b815260206004820152601060248201526f139bdd081c195c9b5a5cdcda5bdb995960821b604482015290519081900360640190fd5b6002810154611cab9083611eac565b8160020181905550611cbf6002600061286e565b611cc98686612502565b50600195945050505050565b60005461010090046001600160a01b03163314611d25576040805162461bcd60e51b81526020600482015260096024820152682737ba1037bbb732b960b91b604482015290519081900360640190fd5b600080546040516001600160a01b038085169361010090930416917f8be0079c531659141344cd1fd0a4f28419497f9722a3daafe3b4186f6b6457e091a3600080546001600160a01b0390921661010002610100600160a81b0319909216919091179055565b6000611d9633611f40565b33600090815260066020526040902054611db09084611ef3565b33600090815260066020526040902055600554611dcd9084611ef3565b6005556040805184815290516000913391600080516020612b958339815191529181900360200190a350600192915050565b818102821580611e17575081838281611e1457fe5b04145b61104c576040805162461bcd60e51b815260206004820152600c60248201526b4d756c206f766572666c6f7760a01b604482015290519081900360640190fd5b6000808211611e9b576040805162461bcd60e51b815260206004820152600b60248201526a044697669646520627920360ac1b604482015290519081900360640190fd5b818381611ea457fe5b049392505050565b8181018281101561104c576040805162461bcd60e51b815260206004820152600c60248201526b416464206f766572666c6f7760a01b604482015290519081900360640190fd5b600082821115611f3a576040805162461bcd60e51b815260206004820152600d60248201526c53756220756e646572666c6f7760981b604482015290519081900360640190fd5b50900390565b60005b600a5481101561153e57611f55612b05565b600a805460099160009185908110611f6957fe5b6000918252602080832091909101546001600160a01b0390811684528382019490945260409283019091208251608081018452815481526001820154928101929092526002015492831691810191909152600160a01b90910460ff1615801560608301529091506120d0576000611fe48260400151856128bc565b9050801561208d576040808301516001600160a01b03166000908152600c60205220546120119082611ef3565b604080840180516001600160a01b039081166000908152600c60209081528482209590955588821681526006855283812092519091168152600290910190925290205461205e9082611eac565b6001600160a01b0380861660009081526006602090815260408083208782015190941683526002909301905220555b50604080820180516001600160a01b039081166000908152600b602090815284822054888416835260068252858320945190931682526001909301909252919020555b50600101611f43565b6002015490565b6001600160a01b03811660009081526001830160205260409020546121365760405162461bcd60e51b815260040180806020018281038252602c815260200180612b39602c913960400191505060405180910390fd5b6001600160a01b0381166000818152600180850160205260408083209091015490519092917fb661ea3e6b1e6046d6862e5d73c56417aa72f1a2f9a46e0718a9733d6ece488291a26002830180546000198101916000918390811061219757fe5b6000918252602090912001546002860180546001600160a01b0390921692508291859081106121c257fe5b600091825260208083209190910180546001600160a01b0319166001600160a01b039485161790558383168252600188810190915260408083208201879055928716825291812081815591820155600290810180546001600160a81b03191690558501541561225b578460020180548061223857fe5b600082815260209020810160001990810180546001600160a01b03191690550190555b5050505050565b60005b600a54811015610f5057612277612b05565b600a80546009916000918590811061228b57fe5b6000918252602080832091909101546001600160a01b0390811684528382019490945260409283019091208251608081018452815481526001820154928101929092526002015492831691810191909152600160a01b90910460ff1615801560608301529091506124f95760006123068260400151866128bc565b905080156123af576040808301516001600160a01b03166000908152600c60205220546123339082611ef3565b604080840180516001600160a01b039081166000908152600c6020908152848220959095558982168152600685528381209251909116815260029091019092529020546123809082611eac565b6001600160a01b0380871660009081526006602090815260408083208782015190941683526002909301905220555b604080830180516001600160a01b039081166000908152600b6020908152848220548a841680845260068352868420955185168452600190950190915293902092909255908516146124f757600061240b8360400151866128bc565b905080156124b4576040808401516001600160a01b03166000908152600c60205220546124389082611ef3565b604080850180516001600160a01b039081166000908152600c6020908152848220959095558982168152600685528381209251909116815260029091019092529020546124859082611eac565b6001600160a01b0380871660009081526006602090815260408083208882015190941683526002909301905220555b50604080830180516001600160a01b039081166000908152600b602090815284822054898416835260068252858320945190931682526001909301909252919020555b505b50600101612265565b61250b82611f40565b60005b600a54811015610f5057612520612b05565b600a80546009916000918590811061253457fe5b6000918252602080832091909101546001600160a01b0390811684528382019490945260409283019091208251608081018452815481526001820154928101929092526002015492831691810191909152600160a01b90910460ff1615801560608301529091506127a7576001600160a01b03808516600090815260066020908152604080832085820151909416835260029093019052205480156127a5576001600160a01b0380861660009081526006602090815260408083208682018051861685526002909101909252822091909155511661267a576040516001600160a01b0385169082156108fc029083906000818181858888f19350505050612675576040805162461bcd60e51b815260206004820152601060248201526f4554482073656e64206661696c75726560801b604482015290519081900360640190fd5b61274b565b81604001516001600160a01b031663a9059cbb85836040518363ffffffff1660e01b815260040180836001600160a01b0316815260200182815260200192505050602060405180830381600087803b1580156126d557600080fd5b505af11580156126e9573d6000803e3d6000fd5b505050506040513d60208110156126ff57600080fd5b505161274b576040805162461bcd60e51b81526020600482015260166024820152754552433230207472616e73666572206661696c75726560501b604482015290519081900360640190fd5b81604001516001600160a01b0316846001600160a01b0316866001600160a01b03167faf46461f0591cc59ce9ccb1354891c7ebf9f9f5490a6cf5e4276866bb1397bdc846040518082815260200191505060405180910390a45b505b5060010161250e565b6001600160a01b0382166000908152600184016020526040902080546128075760405162461bcd60e51b815260040180806020018281038252602c815260200180612b39602c913960400191505060405180910390fd5b428155600281018054831515600160a01b810260ff60a01b199092169190911790915560408051918252516001600160a01b038516917faff1d9fe56fe05c388371193a9a45b678ef42a350cb1e4193759c73f6b579093919081900360200190a250505050565b3360009081526001602090815260408083208584529091529020600201546128969082611eac565b336000908152600160209081526040808320958352949052929092206002019190915550565b6001600160a01b03808216600090815260066020908152604080832093861683526001909301815282822054600b90915291812054909182916128fe91611ef3565b6001600160a01b038416600090815260066020526040902054909150612936906b204fce5e3e2502611000000090610a049084611dff565b949350505050565b805460ff161561294d57600080fd5b805460ff19166001179055565b6001600160a01b0382166000908152600184016020526040902054156129b15760405162461bcd60e51b8152600401808060200182810382526027815260200180612bb56027913960400191505060405180910390fd5b82600201829080600181540180825580915050600190039060005260206000200160009091909190916101000a8154816001600160a01b0302191690836001600160a01b03160217905550604051806080016040528042815260200160018560020180549050038152602001836001600160a01b03168152602001821515815250836001016000846001600160a01b03166001600160a01b03168152602001908152602001600020600082015181600001556020820151816001015560408201518160020160006101000a8154816001600160a01b0302191690836001600160a01b0316021790555060608201518160020160146101000a81548160ff021916908315150217905550905050816001600160a01b03167f1243eb13657d02b7ad57424440e4c1a04c1199e04e5b53fe2ea33f78d60ea4268260405180821515815260200191505060405180910390a2505050565b6040518060800160405280600081526020016000815260200160006001600160a01b03168152602001600015158152509056fe4469766964656e64546f6b656e2e7570646174653a2041646472657373206e6f74207265676973746572656443616e6e6f74207265636f76657220746f6b656e7320666f7220656e61626c6564206469766964656e6420746f6b656eddf252ad1be2c89b69c2b068fc378daa952ba7f163c4a11628f55a4df523b3ef4469766964656e64546f6b656e2e6164643a2043616e6e6f7420616464206475706c6963617465a26469706673582212205f80f6395ab2af63118b6e18260ea2105760aa81fa14b4c82927d4a1d11f3c8d64736f6c63430007010033",
  "linkReferences": {},
  "deployedLinkReferences": {}
}