{
  "_format": "hh-sol-artifact-1",
  "contractName": "OGToken",
  "sourceName": "contracts/OGToken.sol",
  "abi": [
    {
      "inputs": [
        {
          "internalType": "string",
          "name": "symbol",
          "type": "string"
        },
        {
          "internalType": "string",
          "name": "name",
          "type": "string"
        },
        {
          "internalType": "uint8",
          "name": "decimals",
          "type": "uint8"
        },
        {
          "internalType": "address",
          "name": "tokenOwner",
          "type": "address"
        },
        {
          "internalType": "uint256",
          "name": "initialSupply",
          "type": "uint256"
        }
      ],
      "stateMutability": "nonpayable",
      "type": "constructor"
    },
    {
      "anonymous": false,
      "inputs": [
        {
          "indexed": true,
          "internalType": "address",
          "name": "tokenOwner",
          "type": "address"
        },
        {
          "indexed": true,
          "internalType": "address",
          "name": "spender",
          "type": "address"
        },
        {
          "indexed": false,
          "internalType": "uint256",
          "name": "tokens",
          "type": "uint256"
        }
      ],
      "name": "Approval",
      "type": "event"
    },
    {
      "anonymous": false,
      "inputs": [
        {
          "indexed": false,
          "internalType": "uint256",
          "name": "cap",
          "type": "uint256"
        },
        {
          "indexed": false,
          "internalType": "bool",
          "name": "freezeCap",
          "type": "bool"
        }
      ],
      "name": "CapUpdated",
      "type": "event"
    },
    {
      "anonymous": false,
      "inputs": [
        {
          "indexed": false,
          "internalType": "string",
          "name": "topic",
          "type": "string"
        },
        {
          "indexed": false,
          "internalType": "uint256",
          "name": "number",
          "type": "uint256"
        },
        {
          "indexed": false,
          "internalType": "bytes32",
          "name": "data",
          "type": "bytes32"
        },
        {
          "indexed": false,
          "internalType": "string",
          "name": "note",
          "type": "string"
        },
        {
          "indexed": false,
          "internalType": "address",
          "name": "addr",
          "type": "address"
        }
      ],
      "name": "LogInfo",
      "type": "event"
    },
    {
      "anonymous": false,
      "inputs": [
        {
          "indexed": true,
          "internalType": "address",
          "name": "from",
          "type": "address"
        },
        {
          "indexed": true,
          "internalType": "address",
          "name": "to",
          "type": "address"
        }
      ],
      "name": "OwnershipTransferred",
      "type": "event"
    },
    {
      "anonymous": false,
      "inputs": [
        {
          "indexed": true,
          "internalType": "address",
          "name": "account",
          "type": "address"
        },
        {
          "indexed": false,
          "internalType": "uint256",
          "name": "role",
          "type": "uint256"
        },
        {
          "indexed": false,
          "internalType": "bool",
          "name": "active",
          "type": "bool"
        },
        {
          "indexed": false,
          "internalType": "uint256",
          "name": "maximum",
          "type": "uint256"
        },
        {
          "indexed": false,
          "internalType": "uint256",
          "name": "processed",
          "type": "uint256"
        }
      ],
      "name": "PermissionUpdated",
      "type": "event"
    },
    {
      "anonymous": false,
      "inputs": [
        {
          "indexed": true,
          "internalType": "address",
          "name": "from",
          "type": "address"
        },
        {
          "indexed": true,
          "internalType": "address",
          "name": "to",
          "type": "address"
        },
        {
          "indexed": false,
          "internalType": "uint256",
          "name": "tokens",
          "type": "uint256"
        }
      ],
      "name": "Transfer",
      "type": "event"
    },
    {
      "inputs": [],
      "name": "ROLE_DIVIDENDWITHDRAWER",
      "outputs": [
        {
          "internalType": "uint256",
          "name": "",
          "type": "uint256"
        }
      ],
      "stateMutability": "view",
      "type": "function"
    },
    {
      "inputs": [],
      "name": "ROLE_MINTER",
      "outputs": [
        {
          "internalType": "uint256",
          "name": "",
          "type": "uint256"
        }
      ],
      "stateMutability": "view",
      "type": "function"
    },
    {
      "inputs": [
        {
          "internalType": "address",
          "name": "tokenOwner",
          "type": "address"
        },
        {
          "internalType": "address",
          "name": "spender",
          "type": "address"
        }
      ],
      "name": "allowance",
      "outputs": [
        {
          "internalType": "uint256",
          "name": "remaining",
          "type": "uint256"
        }
      ],
      "stateMutability": "view",
      "type": "function"
    },
    {
      "inputs": [
        {
          "internalType": "address",
          "name": "spender",
          "type": "address"
        },
        {
          "internalType": "uint256",
          "name": "tokens",
          "type": "uint256"
        }
      ],
      "name": "approve",
      "outputs": [
        {
          "internalType": "bool",
          "name": "success",
          "type": "bool"
        }
      ],
      "stateMutability": "nonpayable",
      "type": "function"
    },
    {
      "inputs": [
        {
          "internalType": "address",
          "name": "tokenOwner",
          "type": "address"
        }
      ],
      "name": "balanceOf",
      "outputs": [
        {
          "internalType": "uint256",
          "name": "balance",
          "type": "uint256"
        }
      ],
      "stateMutability": "view",
      "type": "function"
    },
    {
      "inputs": [
        {
          "internalType": "uint256",
          "name": "tokens",
          "type": "uint256"
        }
      ],
      "name": "burn",
      "outputs": [
        {
          "internalType": "bool",
          "name": "success",
          "type": "bool"
        }
      ],
      "stateMutability": "nonpayable",
      "type": "function"
    },
    {
      "inputs": [],
      "name": "cap",
      "outputs": [
        {
          "internalType": "uint256",
          "name": "",
          "type": "uint256"
        }
      ],
      "stateMutability": "view",
      "type": "function"
    },
    {
      "inputs": [],
      "name": "decimals",
      "outputs": [
        {
          "internalType": "uint8",
          "name": "",
          "type": "uint8"
        }
      ],
      "stateMutability": "view",
      "type": "function"
    },
    {
      "inputs": [],
      "name": "freezeCap",
      "outputs": [
        {
          "internalType": "bool",
          "name": "",
          "type": "bool"
        }
      ],
      "stateMutability": "view",
      "type": "function"
    },
    {
      "inputs": [
        {
          "internalType": "address",
          "name": "tokenOwner",
          "type": "address"
        },
        {
          "internalType": "uint256",
          "name": "tokens",
          "type": "uint256"
        }
      ],
      "name": "mint",
      "outputs": [
        {
          "internalType": "bool",
          "name": "success",
          "type": "bool"
        }
      ],
      "stateMutability": "nonpayable",
      "type": "function"
    },
    {
      "inputs": [],
      "name": "name",
      "outputs": [
        {
          "internalType": "string",
          "name": "",
          "type": "string"
        }
      ],
      "stateMutability": "view",
      "type": "function"
    },
    {
      "inputs": [],
      "name": "owner",
      "outputs": [
        {
          "internalType": "address",
          "name": "",
          "type": "address"
        }
      ],
      "stateMutability": "view",
      "type": "function"
    },
    {
      "inputs": [
        {
          "internalType": "address",
          "name": "",
          "type": "address"
        },
        {
          "internalType": "uint256",
          "name": "",
          "type": "uint256"
        }
      ],
      "name": "permissions",
      "outputs": [
        {
          "internalType": "bool",
          "name": "active",
          "type": "bool"
        },
        {
          "internalType": "uint256",
          "name": "maximum",
          "type": "uint256"
        },
        {
          "internalType": "uint256",
          "name": "processed",
          "type": "uint256"
        }
      ],
      "stateMutability": "view",
      "type": "function"
    },
    {
      "inputs": [
        {
          "internalType": "uint256",
          "name": "_cap",
          "type": "uint256"
        },
        {
          "internalType": "bool",
          "name": "_freezeCap",
          "type": "bool"
        }
      ],
      "name": "setCap",
      "outputs": [],
      "stateMutability": "nonpayable",
      "type": "function"
    },
    {
      "inputs": [
        {
          "internalType": "address",
          "name": "account",
          "type": "address"
        },
        {
          "internalType": "uint256",
          "name": "role",
          "type": "uint256"
        },
        {
          "internalType": "bool",
          "name": "active",
          "type": "bool"
        },
        {
          "internalType": "uint256",
          "name": "maximum",
          "type": "uint256"
        }
      ],
      "name": "setPermission",
      "outputs": [],
      "stateMutability": "nonpayable",
      "type": "function"
    },
    {
      "inputs": [
        {
          "internalType": "bytes32",
          "name": "",
          "type": "bytes32"
        }
      ],
      "name": "stakeInfoData",
      "outputs": [
        {
          "internalType": "uint256",
          "name": "dataType",
          "type": "uint256"
        }
      ],
      "stateMutability": "view",
      "type": "function"
    },
    {
      "inputs": [
        {
          "internalType": "uint256",
          "name": "",
          "type": "uint256"
        }
      ],
      "name": "stakeInfoIndex",
      "outputs": [
        {
          "internalType": "bytes32",
          "name": "",
          "type": "bytes32"
        }
      ],
      "stateMutability": "view",
      "type": "function"
    },
    {
      "inputs": [],
      "name": "symbol",
      "outputs": [
        {
          "internalType": "string",
          "name": "",
          "type": "string"
        }
      ],
      "stateMutability": "view",
      "type": "function"
    },
    {
      "inputs": [],
      "name": "totalSupply",
      "outputs": [
        {
          "internalType": "uint256",
          "name": "",
          "type": "uint256"
        }
      ],
      "stateMutability": "view",
      "type": "function"
    },
    {
      "inputs": [
        {
          "internalType": "address",
          "name": "to",
          "type": "address"
        },
        {
          "internalType": "uint256",
          "name": "tokens",
          "type": "uint256"
        }
      ],
      "name": "transfer",
      "outputs": [
        {
          "internalType": "bool",
          "name": "success",
          "type": "bool"
        }
      ],
      "stateMutability": "nonpayable",
      "type": "function"
    },
    {
      "inputs": [
        {
          "internalType": "address",
          "name": "from",
          "type": "address"
        },
        {
          "internalType": "address",
          "name": "to",
          "type": "address"
        },
        {
          "internalType": "uint256",
          "name": "tokens",
          "type": "uint256"
        }
      ],
      "name": "transferFrom",
      "outputs": [
        {
          "internalType": "bool",
          "name": "success",
          "type": "bool"
        }
      ],
      "stateMutability": "nonpayable",
      "type": "function"
    },
    {
      "inputs": [
        {
          "internalType": "address",
          "name": "_newOwner",
          "type": "address"
        }
      ],
      "name": "transferOwnership",
      "outputs": [],
      "stateMutability": "nonpayable",
      "type": "function"
    }
  ],
  "bytecode": "0x60806040523480156200001157600080fd5b506040516200125938038062001259833981810160405260a08110156200003757600080fd5b81019080805160405193929190846401000000008211156200005857600080fd5b9083019060208201858111156200006e57600080fd5b82516401000000008111828201881017156200008957600080fd5b82525081516020918201929091019080838360005b83811015620000b85781810151838201526020016200009e565b50505050905090810190601f168015620000e65780820380516001836020036101000a031916815260200191505b50604052602001805160405193929190846401000000008211156200010a57600080fd5b9083019060208201858111156200012057600080fd5b82516401000000008111828201881017156200013b57600080fd5b82525081516020918201929091019080838360005b838110156200016a57818101518382015260200162000150565b50505050905090810190601f168015620001985780820380516001836020036101000a031916815260200191505b506040908152602082015190820151606090920151909350909150620001be3362000259565b8451620001d3906002906020880190620002ef565b508351620001e9906003906020870190620002ef565b506004805460ff191660ff85161790556001600160a01b03821660008181526006602090815260408083208590556005859055805185815290517fddf252ad1be2c89b69c2b068fc378daa952ba7f163c4a11628f55a4df523b3ef929181900390910190a350505050506200038b565b620002648162000267565b50565b60005460ff1615620002c0576040805162461bcd60e51b815260206004820152601360248201527f416c726561647920696e697469616c6973656400000000000000000000000000604482015290519081900360640190fd5b6000805460ff196001600160a01b0390931661010002610100600160a81b031990911617919091166001179055565b828054600181600116156101000203166002900490600052602060002090601f016020900481019282601f106200033257805160ff191683800117855562000362565b8280016001018555821562000362579182015b828111156200036257825182559160200191906001019062000345565b506200037092915062000374565b5090565b5b8082111562000370576000815560010162000375565b610ebe806200039b6000396000f3fe608060405234801561001057600080fd5b50600436106101425760003560e01c8063458a474c116100b857806395d89b411161007c57806395d89b41146103a3578063a9059cbb146103ab578063dc2cabc6146103d7578063dd62ed3e146103f4578063e9d79b0e14610422578063f2fde38b1461046e57610142565b8063458a474c1461030f57806351955a0e1461034957806370a08231146103515780638da5cb5b1461037757806392afc33a1461039b57610142565b806323b872dd1161010a57806323b872dd1461024d5780632c6e2fa314610283578063313ce567146102a0578063355274ea146102be57806340c10f19146102c657806342966c68146102f257610142565b80630150a4ce1461014757806306fdde0314610161578063095ea7b3146101de578063156d3a461461021e57806318160ddd14610245575b600080fd5b61014f610494565b60408051918252519081900360200190f35b610169610499565b6040805160208082528351818301528351919283929083019185019080838360005b838110156101a357818101518382015260200161018b565b50505050905090810190601f1680156101d05780820380516001836020036101000a031916815260200191505b509250505060405180910390f35b61020a600480360360408110156101f457600080fd5b506001600160a01b03813516906020013561052f565b604080519115158252519081900360200190f35b6102436004803603604081101561023457600080fd5b50803590602001351515610596565b005b61014f610683565b61020a6004803603606081101561026357600080fd5b506001600160a01b038135811691602081013590911690604001356106c0565b61014f6004803603602081101561029957600080fd5b50356107a7565b6102a86107b9565b6040805160ff9092168252519081900360200190f35b61014f6107c2565b61020a600480360360408110156102dc57600080fd5b506001600160a01b0381351690602001356107c8565b61020a6004803603602081101561030857600080fd5b503561094a565b6102436004803603608081101561032557600080fd5b506001600160a01b03813516906020810135906040810135151590606001356109b2565b61020a610b2c565b61014f6004803603602081101561036757600080fd5b50356001600160a01b0316610b35565b61037f610b50565b604080516001600160a01b039092168252519081900360200190f35b61014f610b64565b610169610b69565b61020a600480360360408110156103c157600080fd5b506001600160a01b038135169060200135610bc7565b61014f600480360360208110156103ed57600080fd5b5035610c59565b61014f6004803603604081101561040a57600080fd5b506001600160a01b0381358116916020013516610c77565b61044e6004803603604081101561043857600080fd5b506001600160a01b038135169060200135610ca2565b604080519315158452602084019290925282820152519081900360600190f35b6102436004803603602081101561048457600080fd5b50356001600160a01b0316610cd0565b600281565b60038054604080516020601f60026000196101006001881615020190951694909404938401819004810282018101909252828152606093909290918301828280156105255780601f106104fa57610100808354040283529160200191610525565b820191906000526020600020905b81548152906001019060200180831161050857829003601f168201915b5050505050905090565b3360008181526007602090815260408083206001600160a01b038716808552908352818420869055815186815291519394909390927f8c5be1e5ebec7d5bd14f71427d1e84f3dd0314c0f7b2291e5b200ac8c7c3b925928290030190a35060015b92915050565b60005461010090046001600160a01b031633146105e6576040805162461bcd60e51b81526020600482015260096024820152682737ba1037bbb732b960b91b604482015290519081900360640190fd5b60095460ff161561062b576040805162461bcd60e51b815260206004820152600a60248201526921b0b810333937bd32b760b11b604482015290519081900360640190fd5b6009805460ff1916821515179081905560088390556040805184815260ff9092161515602083015280517f5ccbef86c2b45d438491635b517911230f8ef84521dd19d85290980f9d0e6d859281900390910190a15050565b600080805260066020527f54cdd369e4e8a8515e52ca72ec816c2101831ad1f18bf44102ed171459c9b4f8546005546106bb91610d86565b905090565b6001600160a01b0383166000908152600660205260408120546106e39083610d86565b6001600160a01b038516600090815260066020908152604080832093909355600781528282203383529052205461071a9083610d86565b6001600160a01b0380861660009081526007602090815260408083203384528252808320949094559186168152600690915220546107589083610dd3565b6001600160a01b038085166000818152600660209081526040918290209490945580518681529051919392881692600080516020610e6983398151915292918290030190a35060019392505050565b600a6020526000908152604090205481565b60045460ff1690565b60085481565b3360009081526001602081815260408084208385529091528220805484919060ff16801561080b57506001810154158061080b5750806001015482826002015401105b61084f576040805162461bcd60e51b815260206004820152601060248201526f139bdd081c195c9b5a5cdcda5bdb995960821b604482015290519081900360640190fd5b600281015461085e9083610dd3565b600282015560085415806108785750600854856005540111155b6108b8576040805162461bcd60e51b815260206004820152600c60248201526b10d85c08195e18d95959195960a21b604482015290519081900360640190fd5b6108c3600186610e1a565b6001600160a01b0386166000908152600660205260409020546108e69086610dd3565b6001600160a01b03871660009081526006602052604090205560055461090c9086610dd3565b6005556040805186815290516001600160a01b03881691600091600080516020610e698339815191529181900360200190a350600195945050505050565b336000908152600660205260408120546109649083610d86565b336000908152600660205260409020556005546109819083610d86565b6005556040805183815290516000913391600080516020610e698339815191529181900360200190a3506001919050565b60005461010090046001600160a01b03163314610a02576040805162461bcd60e51b81526020600482015260096024820152682737ba1037bbb732b960b91b604482015290519081900360640190fd5b600060016000866001600160a01b03166001600160a01b031681526020019081526020016000206000858152602001908152602001600020600201549050604051806060016040528084151581526020018381526020018281525060016000876001600160a01b03166001600160a01b03168152602001908152602001600020600086815260200190815260200160002060008201518160000160006101000a81548160ff0219169083151502179055506020820151816001015560408201518160020155905050846001600160a01b03167fe67a76df6139aaa58a2a1331d7961dfefaa82e4290f2410f14e582fcc6e3bd628585858560405180858152602001841515815260200183815260200182815260200194505050505060405180910390a25050505050565b60095460ff1681565b6001600160a01b031660009081526006602052604090205490565b60005461010090046001600160a01b031681565b600181565b60028054604080516020601f60001961010060018716150201909416859004938401819004810282018101909252828152606093909290918301828280156105255780601f106104fa57610100808354040283529160200191610525565b33600090815260066020526040812054610be19083610d86565b33600090815260066020526040808220929092556001600160a01b03851681522054610c0d9083610dd3565b6001600160a01b038416600081815260066020908152604091829020939093558051858152905191923392600080516020610e698339815191529281900390910190a350600192915050565b600b8181548110610c6657fe5b600091825260209091200154905081565b6001600160a01b03918216600090815260076020908152604080832093909416825291909152205490565b6001602081815260009384526040808520909152918352912080549181015460029091015460ff9092169183565b60005461010090046001600160a01b03163314610d20576040805162461bcd60e51b81526020600482015260096024820152682737ba1037bbb732b960b91b604482015290519081900360640190fd5b600080546040516001600160a01b038085169361010090930416917f8be0079c531659141344cd1fd0a4f28419497f9722a3daafe3b4186f6b6457e091a3600080546001600160a01b0390921661010002610100600160a81b0319909216919091179055565b600082821115610dcd576040805162461bcd60e51b815260206004820152600d60248201526c53756220756e646572666c6f7760981b604482015290519081900360640190fd5b50900390565b81810182811015610590576040805162461bcd60e51b815260206004820152600c60248201526b416464206f766572666c6f7760a01b604482015290519081900360640190fd5b336000908152600160209081526040808320858452909152902060020154610e429082610dd3565b33600090815260016020908152604080832095835294905292909220600201919091555056feddf252ad1be2c89b69c2b068fc378daa952ba7f163c4a11628f55a4df523b3efa264697066735822122041ba8d75423ea4677e170d59d8de6282336907b3f8358c91bc9bf6179540012364736f6c63430007010033",
  "linkReferences": {},
  "deployedLinkReferences": {}
}